{
  "_format": "hh-sol-artifact-1",
  "contractName": "AIGT",
  "sourceName": "contracts/AIGT.sol",
  "abi": [
    {
      "inputs": [
        {
          "internalType": "uint256",
          "name": "_modelIndex",
          "type": "uint256"
        },
        {
          "internalType": "string",
          "name": "_modelName",
          "type": "string"
        },
        {
          "internalType": "string",
          "name": "_modelSymbol",
          "type": "string"
        },
        {
          "internalType": "uint256",
          "name": "_tokenPrice",
          "type": "uint256"
        },
        {
          "internalType": "address",
          "name": "_owner",
          "type": "address"
        },
        {
          "internalType": "uint256",
          "name": "_maxSupply",
          "type": "uint256"
        },
        {
          "internalType": "uint256",
          "name": "_ownerReservePercent",
          "type": "uint256"
        }
      ],
      "stateMutability": "nonpayable",
      "type": "constructor"
    },
    {
      "inputs": [
        {
          "internalType": "address",
          "name": "spender",
          "type": "address"
        },
        {
          "internalType": "uint256",
          "name": "allowance",
          "type": "uint256"
        },
        {
          "internalType": "uint256",
          "name": "needed",
          "type": "uint256"
        }
      ],
      "name": "ERC20InsufficientAllowance",
      "type": "error"
    },
    {
      "inputs": [
        {
          "internalType": "address",
          "name": "sender",
          "type": "address"
        },
        {
          "internalType": "uint256",
          "name": "balance",
          "type": "uint256"
        },
        {
          "internalType": "uint256",
          "name": "needed",
          "type": "uint256"
        }
      ],
      "name": "ERC20InsufficientBalance",
      "type": "error"
    },
    {
      "inputs": [
        {
          "internalType": "address",
          "name": "approver",
          "type": "address"
        }
      ],
      "name": "ERC20InvalidApprover",
      "type": "error"
    },
    {
      "inputs": [
        {
          "internalType": "address",
          "name": "receiver",
          "type": "address"
        }
      ],
      "name": "ERC20InvalidReceiver",
      "type": "error"
    },
    {
      "inputs": [
        {
          "internalType": "address",
          "name": "sender",
          "type": "address"
        }
      ],
      "name": "ERC20InvalidSender",
      "type": "error"
    },
    {
      "inputs": [
        {
          "internalType": "address",
          "name": "spender",
          "type": "address"
        }
      ],
      "name": "ERC20InvalidSpender",
      "type": "error"
    },
    {
      "inputs": [
        {
          "internalType": "address",
          "name": "owner",
          "type": "address"
        }
      ],
      "name": "OwnableInvalidOwner",
      "type": "error"
    },
    {
      "inputs": [
        {
          "internalType": "address",
          "name": "account",
          "type": "address"
        }
      ],
      "name": "OwnableUnauthorizedAccount",
      "type": "error"
    },
    {
      "anonymous": false,
      "inputs": [
        {
          "indexed": true,
          "internalType": "address",
          "name": "owner",
          "type": "address"
        },
        {
          "indexed": true,
          "internalType": "address",
          "name": "spender",
          "type": "address"
        },
        {
          "indexed": false,
          "internalType": "uint256",
          "name": "value",
          "type": "uint256"
        }
      ],
      "name": "Approval",
      "type": "event"
    },
    {
      "anonymous": false,
      "inputs": [
        {
          "indexed": true,
          "internalType": "address",
          "name": "previousOwner",
          "type": "address"
        },
        {
          "indexed": true,
          "internalType": "address",
          "name": "newOwner",
          "type": "address"
        }
      ],
      "name": "OwnershipTransferred",
      "type": "event"
    },
    {
      "anonymous": false,
      "inputs": [
        {
          "indexed": true,
          "internalType": "address",
          "name": "from",
          "type": "address"
        },
        {
          "indexed": true,
          "internalType": "address",
          "name": "to",
          "type": "address"
        },
        {
          "indexed": false,
          "internalType": "uint256",
          "name": "value",
          "type": "uint256"
        }
      ],
      "name": "Transfer",
      "type": "event"
    },
    {
      "inputs": [
        {
          "internalType": "address",
          "name": "owner",
          "type": "address"
        },
        {
          "internalType": "address",
          "name": "spender",
          "type": "address"
        }
      ],
      "name": "allowance",
      "outputs": [
        {
          "internalType": "uint256",
          "name": "",
          "type": "uint256"
        }
      ],
      "stateMutability": "view",
      "type": "function"
    },
    {
      "inputs": [
        {
          "internalType": "address",
          "name": "spender",
          "type": "address"
        },
        {
          "internalType": "uint256",
          "name": "value",
          "type": "uint256"
        }
      ],
      "name": "approve",
      "outputs": [
        {
          "internalType": "bool",
          "name": "",
          "type": "bool"
        }
      ],
      "stateMutability": "nonpayable",
      "type": "function"
    },
    {
      "inputs": [
        {
          "internalType": "address",
          "name": "account",
          "type": "address"
        }
      ],
      "name": "balanceOf",
      "outputs": [
        {
          "internalType": "uint256",
          "name": "",
          "type": "uint256"
        }
      ],
      "stateMutability": "view",
      "type": "function"
    },
    {
      "inputs": [],
      "name": "decimals",
      "outputs": [
        {
          "internalType": "uint8",
          "name": "",
          "type": "uint8"
        }
      ],
      "stateMutability": "view",
      "type": "function"
    },
    {
      "inputs": [],
      "name": "getModelIndex",
      "outputs": [
        {
          "internalType": "uint256",
          "name": "",
          "type": "uint256"
        }
      ],
      "stateMutability": "view",
      "type": "function"
    },
    {
      "inputs": [],
      "name": "getShare",
      "outputs": [
        {
          "internalType": "uint256",
          "name": "",
          "type": "uint256"
        }
      ],
      "stateMutability": "view",
      "type": "function"
    },
    {
      "inputs": [],
      "name": "maxSupply",
      "outputs": [
        {
          "internalType": "uint256",
          "name": "",
          "type": "uint256"
        }
      ],
      "stateMutability": "view",
      "type": "function"
    },
    {
      "inputs": [
        {
          "internalType": "uint256",
          "name": "_amount",
          "type": "uint256"
        }
      ],
      "name": "mint",
      "outputs": [],
      "stateMutability": "payable",
      "type": "function"
    },
    {
      "inputs": [],
      "name": "modelIndex",
      "outputs": [
        {
          "internalType": "uint256",
          "name": "",
          "type": "uint256"
        }
      ],
      "stateMutability": "view",
      "type": "function"
    },
    {
      "inputs": [],
      "name": "name",
      "outputs": [
        {
          "internalType": "string",
          "name": "",
          "type": "string"
        }
      ],
      "stateMutability": "view",
      "type": "function"
    },
    {
      "inputs": [],
      "name": "owner",
      "outputs": [
        {
          "internalType": "address",
          "name": "",
          "type": "address"
        }
      ],
      "stateMutability": "view",
      "type": "function"
    },
    {
      "inputs": [],
      "name": "renounceOwnership",
      "outputs": [],
      "stateMutability": "nonpayable",
      "type": "function"
    },
    {
      "inputs": [],
      "name": "symbol",
      "outputs": [
        {
          "internalType": "string",
          "name": "",
          "type": "string"
        }
      ],
      "stateMutability": "view",
      "type": "function"
    },
    {
      "inputs": [],
      "name": "tokenPrice",
      "outputs": [
        {
          "internalType": "uint256",
          "name": "",
          "type": "uint256"
        }
      ],
      "stateMutability": "view",
      "type": "function"
    },
    {
      "inputs": [],
      "name": "totalSupply",
      "outputs": [
        {
          "internalType": "uint256",
          "name": "",
          "type": "uint256"
        }
      ],
      "stateMutability": "view",
      "type": "function"
    },
    {
      "inputs": [
        {
          "internalType": "address",
          "name": "to",
          "type": "address"
        },
        {
          "internalType": "uint256",
          "name": "value",
          "type": "uint256"
        }
      ],
      "name": "transfer",
      "outputs": [
        {
          "internalType": "bool",
          "name": "",
          "type": "bool"
        }
      ],
      "stateMutability": "nonpayable",
      "type": "function"
    },
    {
      "inputs": [
        {
          "internalType": "address",
          "name": "from",
          "type": "address"
        },
        {
          "internalType": "address",
          "name": "to",
          "type": "address"
        },
        {
          "internalType": "uint256",
          "name": "value",
          "type": "uint256"
        }
      ],
      "name": "transferFrom",
      "outputs": [
        {
          "internalType": "bool",
          "name": "",
          "type": "bool"
        }
      ],
      "stateMutability": "nonpayable",
      "type": "function"
    },
    {
      "inputs": [
        {
          "internalType": "address",
          "name": "newOwner",
          "type": "address"
        }
      ],
      "name": "transferOwnership",
      "outputs": [],
      "stateMutability": "nonpayable",
      "type": "function"
    },
    {
      "inputs": [],
      "name": "withdraw",
      "outputs": [],
      "stateMutability": "nonpayable",
      "type": "function"
    }
  ],
  "bytecode": "0x60806040523480156200001157600080fd5b5060405162002256380380620022568339818101604052810190620000379190620006ec565b82868681600390816200004b919062000a1e565b5080600490816200005d919062000a1e565b505050600073ffffffffffffffffffffffffffffffffffffffff168173ffffffffffffffffffffffffffffffffffffffff1603620000d55760006040517f1e4fbdf7000000000000000000000000000000000000000000000000000000008152600401620000cc919062000b16565b60405180910390fd5b620000e6816200013660201b60201c565b5086600681905550836007819055508160088190555062000129836064838562000111919062000b62565b6200011d919062000bdc565b620001fc60201b60201c565b5050505050505062000cba565b6000600560009054906101000a900473ffffffffffffffffffffffffffffffffffffffff16905081600560006101000a81548173ffffffffffffffffffffffffffffffffffffffff021916908373ffffffffffffffffffffffffffffffffffffffff1602179055508173ffffffffffffffffffffffffffffffffffffffff168173ffffffffffffffffffffffffffffffffffffffff167f8be0079c531659141344cd1fd0a4f28419497f9722a3daafe3b4186f6b6457e060405160405180910390a35050565b600073ffffffffffffffffffffffffffffffffffffffff168273ffffffffffffffffffffffffffffffffffffffff1603620002715760006040517fec442f0500000000000000000000000000000000000000000000000000000000815260040162000268919062000b16565b60405180910390fd5b62000285600083836200028960201b60201c565b5050565b600073ffffffffffffffffffffffffffffffffffffffff168373ffffffffffffffffffffffffffffffffffffffff1603620002df578060026000828254620002d2919062000c14565b92505081905550620003b5565b60008060008573ffffffffffffffffffffffffffffffffffffffff1673ffffffffffffffffffffffffffffffffffffffff168152602001908152602001600020549050818110156200036e578381836040517fe450d38c000000000000000000000000000000000000000000000000000000008152600401620003659392919062000c60565b60405180910390fd5b8181036000808673ffffffffffffffffffffffffffffffffffffffff1673ffffffffffffffffffffffffffffffffffffffff16815260200190815260200160002081905550505b600073ffffffffffffffffffffffffffffffffffffffff168273ffffffffffffffffffffffffffffffffffffffff16036200040057806002600082825403925050819055506200044d565b806000808473ffffffffffffffffffffffffffffffffffffffff1673ffffffffffffffffffffffffffffffffffffffff168152602001908152602001600020600082825401925050819055505b8173ffffffffffffffffffffffffffffffffffffffff168373ffffffffffffffffffffffffffffffffffffffff167fddf252ad1be2c89b69c2b068fc378daa952ba7f163c4a11628f55a4df523b3ef83604051620004ac919062000c9d565b60405180910390a3505050565b6000604051905090565b600080fd5b600080fd5b6000819050919050565b620004e281620004cd565b8114620004ee57600080fd5b50565b6000815190506200050281620004d7565b92915050565b600080fd5b600080fd5b6000601f19601f8301169050919050565b7f4e487b7100000000000000000000000000000000000000000000000000000000600052604160045260246000fd5b6200055d8262000512565b810181811067ffffffffffffffff821117156200057f576200057e62000523565b5b80604052505050565b600062000594620004b9565b9050620005a2828262000552565b919050565b600067ffffffffffffffff821115620005c557620005c462000523565b5b620005d08262000512565b9050602081019050919050565b60005b83811015620005fd578082015181840152602081019050620005e0565b60008484015250505050565b6000620006206200061a84620005a7565b62000588565b9050828152602081018484840111156200063f576200063e6200050d565b5b6200064c848285620005dd565b509392505050565b600082601f8301126200066c576200066b62000508565b5b81516200067e84826020860162000609565b91505092915050565b600073ffffffffffffffffffffffffffffffffffffffff82169050919050565b6000620006b48262000687565b9050919050565b620006c681620006a7565b8114620006d257600080fd5b50565b600081519050620006e681620006bb565b92915050565b600080600080600080600060e0888a0312156200070e576200070d620004c3565b5b60006200071e8a828b01620004f1565b975050602088015167ffffffffffffffff811115620007425762000741620004c8565b5b620007508a828b0162000654565b965050604088015167ffffffffffffffff811115620007745762000773620004c8565b5b620007828a828b0162000654565b9550506060620007958a828b01620004f1565b9450506080620007a88a828b01620006d5565b93505060a0620007bb8a828b01620004f1565b92505060c0620007ce8a828b01620004f1565b91505092959891949750929550565b600081519050919050565b7f4e487b7100000000000000000000000000000000000000000000000000000000600052602260045260246000fd5b600060028204905060018216806200083057607f821691505b602082108103620008465762000845620007e8565b5b50919050565b60008190508160005260206000209050919050565b60006020601f8301049050919050565b600082821b905092915050565b600060088302620008b07fffffffffffffffffffffffffffffffffffffffffffffffffffffffffffffffff8262000871565b620008bc868362000871565b95508019841693508086168417925050509392505050565b6000819050919050565b6000620008ff620008f9620008f384620004cd565b620008d4565b620004cd565b9050919050565b6000819050919050565b6200091b83620008de565b620009336200092a8262000906565b8484546200087e565b825550505050565b600090565b6200094a6200093b565b6200095781848462000910565b505050565b5b818110156200097f576200097360008262000940565b6001810190506200095d565b5050565b601f821115620009ce5762000998816200084c565b620009a38462000861565b81016020851015620009b3578190505b620009cb620009c28562000861565b8301826200095c565b50505b505050565b600082821c905092915050565b6000620009f360001984600802620009d3565b1980831691505092915050565b600062000a0e8383620009e0565b9150826002028217905092915050565b62000a2982620007dd565b67ffffffffffffffff81111562000a455762000a4462000523565b5b62000a51825462000817565b62000a5e82828562000983565b600060209050601f83116001811462000a96576000841562000a81578287015190505b62000a8d858262000a00565b86555062000afd565b601f19841662000aa6866200084c565b60005b8281101562000ad05784890151825560018201915060208501945060208101905062000aa9565b8683101562000af0578489015162000aec601f891682620009e0565b8355505b6001600288020188555050505b505050505050565b62000b1081620006a7565b82525050565b600060208201905062000b2d600083018462000b05565b92915050565b7f4e487b7100000000000000000000000000000000000000000000000000000000600052601160045260246000fd5b600062000b6f82620004cd565b915062000b7c83620004cd565b925082820262000b8c81620004cd565b9150828204841483151762000ba65762000ba562000b33565b5b5092915050565b7f4e487b7100000000000000000000000000000000000000000000000000000000600052601260045260246000fd5b600062000be982620004cd565b915062000bf683620004cd565b92508262000c095762000c0862000bad565b5b828204905092915050565b600062000c2182620004cd565b915062000c2e83620004cd565b925082820190508082111562000c495762000c4862000b33565b5b92915050565b62000c5a81620004cd565b82525050565b600060608201905062000c77600083018662000b05565b62000c86602083018562000c4f565b62000c95604083018462000c4f565b949350505050565b600060208201905062000cb4600083018462000c4f565b92915050565b61158c8062000cca6000396000f3fe6080604052600436106101145760003560e01c806375298734116100a0578063a9059cbb11610064578063a9059cbb14610372578063d5abeb01146103af578063dd62ed3e146103da578063df218bd114610417578063f2fde38b1461044257610114565b806375298734146102aa5780637ff9b596146102d55780638da5cb5b1461030057806395d89b411461032b578063a0712d681461035657610114565b8063313ce567116100e7578063313ce567146101e95780633ccfd60b14610214578063608193c31461022b57806370a0823114610256578063715018a61461029357610114565b806306fdde0314610119578063095ea7b31461014457806318160ddd1461018157806323b872dd146101ac575b600080fd5b34801561012557600080fd5b5061012e61046b565b60405161013b91906110a5565b60405180910390f35b34801561015057600080fd5b5061016b60048036038101906101669190611160565b6104fd565b60405161017891906111bb565b60405180910390f35b34801561018d57600080fd5b50610196610520565b6040516101a391906111e5565b60405180910390f35b3480156101b857600080fd5b506101d360048036038101906101ce9190611200565b61052a565b6040516101e091906111bb565b60405180910390f35b3480156101f557600080fd5b506101fe610559565b60405161020b919061126f565b60405180910390f35b34801561022057600080fd5b50610229610562565b005b34801561023757600080fd5b506102406105ba565b60405161024d91906111e5565b60405180910390f35b34801561026257600080fd5b5061027d6004803603810190610278919061128a565b6105c4565b60405161028a91906111e5565b60405180910390f35b34801561029f57600080fd5b506102a861060c565b005b3480156102b657600080fd5b506102bf610620565b6040516102cc91906111e5565b60405180910390f35b3480156102e157600080fd5b506102ea61064e565b6040516102f791906111e5565b60405180910390f35b34801561030c57600080fd5b50610315610654565b60405161032291906112c6565b60405180910390f35b34801561033757600080fd5b5061034061067e565b60405161034d91906110a5565b60405180910390f35b610370600480360381019061036b91906112e1565b610710565b005b34801561037e57600080fd5b5061039960048036038101906103949190611160565b61076c565b6040516103a691906111bb565b60405180910390f35b3480156103bb57600080fd5b506103c461078f565b6040516103d191906111e5565b60405180910390f35b3480156103e657600080fd5b5061040160048036038101906103fc919061130e565b610795565b60405161040e91906111e5565b60405180910390f35b34801561042357600080fd5b5061042c61081c565b60405161043991906111e5565b60405180910390f35b34801561044e57600080fd5b506104696004803603810190610464919061128a565b610822565b005b60606003805461047a9061137d565b80601f01602080910402602001604051908101604052809291908181526020018280546104a69061137d565b80156104f35780601f106104c8576101008083540402835291602001916104f3565b820191906000526020600020905b8154815290600101906020018083116104d657829003601f168201915b5050505050905090565b6000806105086108a8565b90506105158185856108b0565b600191505092915050565b6000600254905090565b6000806105356108a8565b90506105428582856108c2565b61054d858585610956565b60019150509392505050565b60006012905090565b61056a610a4a565b610572610654565b73ffffffffffffffffffffffffffffffffffffffff166108fc479081150290604051600060405180830381858888f193505050501580156105b7573d6000803e3d6000fd5b50565b6000600654905090565b60008060008373ffffffffffffffffffffffffffffffffffffffff1673ffffffffffffffffffffffffffffffffffffffff168152602001908152602001600020549050919050565b610614610a4a565b61061e6000610ad1565b565b600061062a610520565b6064610635336105c4565b61063f91906113dd565b610649919061144e565b905090565b60075481565b6000600560009054906101000a900473ffffffffffffffffffffffffffffffffffffffff16905090565b60606004805461068d9061137d565b80601f01602080910402602001604051908101604052809291908181526020018280546106b99061137d565b80156107065780601f106106db57610100808354040283529160200191610706565b820191906000526020600020905b8154815290600101906020018083116106e957829003601f168201915b5050505050905090565b6007548161071e91906113dd565b341461075f576040517f08c379a0000000000000000000000000000000000000000000000000000000008152600401610756906114cb565b60405180910390fd5b6107693382610b97565b50565b6000806107776108a8565b9050610784818585610956565b600191505092915050565b60085481565b6000600160008473ffffffffffffffffffffffffffffffffffffffff1673ffffffffffffffffffffffffffffffffffffffff16815260200190815260200160002060008373ffffffffffffffffffffffffffffffffffffffff1673ffffffffffffffffffffffffffffffffffffffff16815260200190815260200160002054905092915050565b60065481565b61082a610a4a565b600073ffffffffffffffffffffffffffffffffffffffff168173ffffffffffffffffffffffffffffffffffffffff160361089c5760006040517f1e4fbdf700000000000000000000000000000000000000000000000000000000815260040161089391906112c6565b60405180910390fd5b6108a581610ad1565b50565b600033905090565b6108bd8383836001610c19565b505050565b60006108ce8484610795565b90507fffffffffffffffffffffffffffffffffffffffffffffffffffffffffffffffff81146109505781811015610940578281836040517ffb8f41b2000000000000000000000000000000000000000000000000000000008152600401610937939291906114eb565b60405180910390fd5b61094f84848484036000610c19565b5b50505050565b600073ffffffffffffffffffffffffffffffffffffffff168373ffffffffffffffffffffffffffffffffffffffff16036109c85760006040517f96c6fd1e0000000000000000000000000000000000000000000000000000000081526004016109bf91906112c6565b60405180910390fd5b600073ffffffffffffffffffffffffffffffffffffffff168273ffffffffffffffffffffffffffffffffffffffff1603610a3a5760006040517fec442f05000000000000000000000000000000000000000000000000000000008152600401610a3191906112c6565b60405180910390fd5b610a45838383610df0565b505050565b610a526108a8565b73ffffffffffffffffffffffffffffffffffffffff16610a70610654565b73ffffffffffffffffffffffffffffffffffffffff1614610acf57610a936108a8565b6040517f118cdaa7000000000000000000000000000000000000000000000000000000008152600401610ac691906112c6565b60405180910390fd5b565b6000600560009054906101000a900473ffffffffffffffffffffffffffffffffffffffff16905081600560006101000a81548173ffffffffffffffffffffffffffffffffffffffff021916908373ffffffffffffffffffffffffffffffffffffffff1602179055508173ffffffffffffffffffffffffffffffffffffffff168173ffffffffffffffffffffffffffffffffffffffff167f8be0079c531659141344cd1fd0a4f28419497f9722a3daafe3b4186f6b6457e060405160405180910390a35050565b600073ffffffffffffffffffffffffffffffffffffffff168273ffffffffffffffffffffffffffffffffffffffff1603610c095760006040517fec442f05000000000000000000000000000000000000000000000000000000008152600401610c0091906112c6565b60405180910390fd5b610c1560008383610df0565b5050565b600073ffffffffffffffffffffffffffffffffffffffff168473ffffffffffffffffffffffffffffffffffffffff1603610c8b5760006040517fe602df05000000000000000000000000000000000000000000000000000000008152600401610c8291906112c6565b60405180910390fd5b600073ffffffffffffffffffffffffffffffffffffffff168373ffffffffffffffffffffffffffffffffffffffff1603610cfd5760006040517f94280d62000000000000000000000000000000000000000000000000000000008152600401610cf491906112c6565b60405180910390fd5b81600160008673ffffffffffffffffffffffffffffffffffffffff1673ffffffffffffffffffffffffffffffffffffffff16815260200190815260200160002060008573ffffffffffffffffffffffffffffffffffffffff1673ffffffffffffffffffffffffffffffffffffffff168152602001908152602001600020819055508015610dea578273ffffffffffffffffffffffffffffffffffffffff168473ffffffffffffffffffffffffffffffffffffffff167f8c5be1e5ebec7d5bd14f71427d1e84f3dd0314c0f7b2291e5b200ac8c7c3b92584604051610de191906111e5565b60405180910390a35b50505050565b600073ffffffffffffffffffffffffffffffffffffffff168373ffffffffffffffffffffffffffffffffffffffff1603610e42578060026000828254610e369190611522565b92505081905550610f15565b60008060008573ffffffffffffffffffffffffffffffffffffffff1673ffffffffffffffffffffffffffffffffffffffff16815260200190815260200160002054905081811015610ece578381836040517fe450d38c000000000000000000000000000000000000000000000000000000008152600401610ec5939291906114eb565b60405180910390fd5b8181036000808673ffffffffffffffffffffffffffffffffffffffff1673ffffffffffffffffffffffffffffffffffffffff16815260200190815260200160002081905550505b600073ffffffffffffffffffffffffffffffffffffffff168273ffffffffffffffffffffffffffffffffffffffff1603610f5e5780600260008282540392505081905550610fab565b806000808473ffffffffffffffffffffffffffffffffffffffff1673ffffffffffffffffffffffffffffffffffffffff168152602001908152602001600020600082825401925050819055505b8173ffffffffffffffffffffffffffffffffffffffff168373ffffffffffffffffffffffffffffffffffffffff167fddf252ad1be2c89b69c2b068fc378daa952ba7f163c4a11628f55a4df523b3ef8360405161100891906111e5565b60405180910390a3505050565b600081519050919050565b600082825260208201905092915050565b60005b8381101561104f578082015181840152602081019050611034565b60008484015250505050565b6000601f19601f8301169050919050565b600061107782611015565b6110818185611020565b9350611091818560208601611031565b61109a8161105b565b840191505092915050565b600060208201905081810360008301526110bf818461106c565b905092915050565b600080fd5b600073ffffffffffffffffffffffffffffffffffffffff82169050919050565b60006110f7826110cc565b9050919050565b611107816110ec565b811461111257600080fd5b50565b600081359050611124816110fe565b92915050565b6000819050919050565b61113d8161112a565b811461114857600080fd5b50565b60008135905061115a81611134565b92915050565b60008060408385031215611177576111766110c7565b5b600061118585828601611115565b92505060206111968582860161114b565b9150509250929050565b60008115159050919050565b6111b5816111a0565b82525050565b60006020820190506111d060008301846111ac565b92915050565b6111df8161112a565b82525050565b60006020820190506111fa60008301846111d6565b92915050565b600080600060608486031215611219576112186110c7565b5b600061122786828701611115565b935050602061123886828701611115565b92505060406112498682870161114b565b9150509250925092565b600060ff82169050919050565b61126981611253565b82525050565b60006020820190506112846000830184611260565b92915050565b6000602082840312156112a05761129f6110c7565b5b60006112ae84828501611115565b91505092915050565b6112c0816110ec565b82525050565b60006020820190506112db60008301846112b7565b92915050565b6000602082840312156112f7576112f66110c7565b5b60006113058482850161114b565b91505092915050565b60008060408385031215611325576113246110c7565b5b600061133385828601611115565b925050602061134485828601611115565b9150509250929050565b7f4e487b7100000000000000000000000000000000000000000000000000000000600052602260045260246000fd5b6000600282049050600182168061139557607f821691505b6020821081036113a8576113a761134e565b5b50919050565b7f4e487b7100000000000000000000000000000000000000000000000000000000600052601160045260246000fd5b60006113e88261112a565b91506113f38361112a565b92508282026114018161112a565b91508282048414831517611418576114176113ae565b5b5092915050565b7f4e487b7100000000000000000000000000000000000000000000000000000000600052601260045260246000fd5b60006114598261112a565b91506114648361112a565b9250826114745761147361141f565b5b828204905092915050565b7f4e6f7420656e6f7567682065746820746f206d696e7420746f6b656e00000000600082015250565b60006114b5601c83611020565b91506114c08261147f565b602082019050919050565b600060208201905081810360008301526114e4816114a8565b9050919050565b600060608201905061150060008301866112b7565b61150d60208301856111d6565b61151a60408301846111d6565b949350505050565b600061152d8261112a565b91506115388361112a565b92508282019050808211156115505761154f6113ae565b5b9291505056fea2646970667358221220454b588953951eb5c4cc7aa1d2d3343bca1c100b5188678292556f7a9269345364736f6c63430008140033",
  "linkReferences": {},
  "deployedLinkReferences": {}
}