{
  "_format": "hh-sol-artifact-1",
  "contractName": "AIGT",
  "sourceName": "contracts/AIGT.sol",
  "abi": [
    {
      "inputs": [
        {
          "internalType": "uint256",
          "name": "_modelIndex",
          "type": "uint256"
        },
        {
          "internalType": "string",
          "name": "_modelName",
          "type": "string"
        },
        {
          "internalType": "string",
          "name": "_modelSymbol",
          "type": "string"
        },
        {
          "internalType": "uint256",
          "name": "_tokenPrice",
          "type": "uint256"
        },
        {
          "internalType": "address",
          "name": "_owner",
          "type": "address"
        }
      ],
      "stateMutability": "nonpayable",
      "type": "constructor"
    },
    {
      "inputs": [
        {
          "internalType": "address",
          "name": "spender",
          "type": "address"
        },
        {
          "internalType": "uint256",
          "name": "allowance",
          "type": "uint256"
        },
        {
          "internalType": "uint256",
          "name": "needed",
          "type": "uint256"
        }
      ],
      "name": "ERC20InsufficientAllowance",
      "type": "error"
    },
    {
      "inputs": [
        {
          "internalType": "address",
          "name": "sender",
          "type": "address"
        },
        {
          "internalType": "uint256",
          "name": "balance",
          "type": "uint256"
        },
        {
          "internalType": "uint256",
          "name": "needed",
          "type": "uint256"
        }
      ],
      "name": "ERC20InsufficientBalance",
      "type": "error"
    },
    {
      "inputs": [
        {
          "internalType": "address",
          "name": "approver",
          "type": "address"
        }
      ],
      "name": "ERC20InvalidApprover",
      "type": "error"
    },
    {
      "inputs": [
        {
          "internalType": "address",
          "name": "receiver",
          "type": "address"
        }
      ],
      "name": "ERC20InvalidReceiver",
      "type": "error"
    },
    {
      "inputs": [
        {
          "internalType": "address",
          "name": "sender",
          "type": "address"
        }
      ],
      "name": "ERC20InvalidSender",
      "type": "error"
    },
    {
      "inputs": [
        {
          "internalType": "address",
          "name": "spender",
          "type": "address"
        }
      ],
      "name": "ERC20InvalidSpender",
      "type": "error"
    },
    {
      "inputs": [
        {
          "internalType": "address",
          "name": "owner",
          "type": "address"
        }
      ],
      "name": "OwnableInvalidOwner",
      "type": "error"
    },
    {
      "inputs": [
        {
          "internalType": "address",
          "name": "account",
          "type": "address"
        }
      ],
      "name": "OwnableUnauthorizedAccount",
      "type": "error"
    },
    {
      "anonymous": false,
      "inputs": [
        {
          "indexed": true,
          "internalType": "address",
          "name": "owner",
          "type": "address"
        },
        {
          "indexed": true,
          "internalType": "address",
          "name": "spender",
          "type": "address"
        },
        {
          "indexed": false,
          "internalType": "uint256",
          "name": "value",
          "type": "uint256"
        }
      ],
      "name": "Approval",
      "type": "event"
    },
    {
      "anonymous": false,
      "inputs": [
        {
          "indexed": true,
          "internalType": "address",
          "name": "previousOwner",
          "type": "address"
        },
        {
          "indexed": true,
          "internalType": "address",
          "name": "newOwner",
          "type": "address"
        }
      ],
      "name": "OwnershipTransferred",
      "type": "event"
    },
    {
      "anonymous": false,
      "inputs": [
        {
          "indexed": true,
          "internalType": "address",
          "name": "from",
          "type": "address"
        },
        {
          "indexed": true,
          "internalType": "address",
          "name": "to",
          "type": "address"
        },
        {
          "indexed": false,
          "internalType": "uint256",
          "name": "value",
          "type": "uint256"
        }
      ],
      "name": "Transfer",
      "type": "event"
    },
    {
      "inputs": [
        {
          "internalType": "address",
          "name": "owner",
          "type": "address"
        },
        {
          "internalType": "address",
          "name": "spender",
          "type": "address"
        }
      ],
      "name": "allowance",
      "outputs": [
        {
          "internalType": "uint256",
          "name": "",
          "type": "uint256"
        }
      ],
      "stateMutability": "view",
      "type": "function"
    },
    {
      "inputs": [
        {
          "internalType": "address",
          "name": "spender",
          "type": "address"
        },
        {
          "internalType": "uint256",
          "name": "value",
          "type": "uint256"
        }
      ],
      "name": "approve",
      "outputs": [
        {
          "internalType": "bool",
          "name": "",
          "type": "bool"
        }
      ],
      "stateMutability": "nonpayable",
      "type": "function"
    },
    {
      "inputs": [
        {
          "internalType": "address",
          "name": "account",
          "type": "address"
        }
      ],
      "name": "balanceOf",
      "outputs": [
        {
          "internalType": "uint256",
          "name": "",
          "type": "uint256"
        }
      ],
      "stateMutability": "view",
      "type": "function"
    },
    {
      "inputs": [],
      "name": "decimals",
      "outputs": [
        {
          "internalType": "uint8",
          "name": "",
          "type": "uint8"
        }
      ],
      "stateMutability": "view",
      "type": "function"
    },
    {
      "inputs": [],
      "name": "getModelIndex",
      "outputs": [
        {
          "internalType": "uint256",
          "name": "",
          "type": "uint256"
        }
      ],
      "stateMutability": "view",
      "type": "function"
    },
    {
      "inputs": [
        {
          "internalType": "uint256",
          "name": "_amount",
          "type": "uint256"
        }
      ],
      "name": "mint",
      "outputs": [],
      "stateMutability": "payable",
      "type": "function"
    },
    {
      "inputs": [],
      "name": "modelIndex",
      "outputs": [
        {
          "internalType": "uint256",
          "name": "",
          "type": "uint256"
        }
      ],
      "stateMutability": "view",
      "type": "function"
    },
    {
      "inputs": [],
      "name": "name",
      "outputs": [
        {
          "internalType": "string",
          "name": "",
          "type": "string"
        }
      ],
      "stateMutability": "view",
      "type": "function"
    },
    {
      "inputs": [],
      "name": "owner",
      "outputs": [
        {
          "internalType": "address",
          "name": "",
          "type": "address"
        }
      ],
      "stateMutability": "view",
      "type": "function"
    },
    {
      "inputs": [],
      "name": "renounceOwnership",
      "outputs": [],
      "stateMutability": "nonpayable",
      "type": "function"
    },
    {
      "inputs": [],
      "name": "symbol",
      "outputs": [
        {
          "internalType": "string",
          "name": "",
          "type": "string"
        }
      ],
      "stateMutability": "view",
      "type": "function"
    },
    {
      "inputs": [],
      "name": "tokenPrice",
      "outputs": [
        {
          "internalType": "uint256",
          "name": "",
          "type": "uint256"
        }
      ],
      "stateMutability": "view",
      "type": "function"
    },
    {
      "inputs": [],
      "name": "totalSupply",
      "outputs": [
        {
          "internalType": "uint256",
          "name": "",
          "type": "uint256"
        }
      ],
      "stateMutability": "view",
      "type": "function"
    },
    {
      "inputs": [
        {
          "internalType": "address",
          "name": "to",
          "type": "address"
        },
        {
          "internalType": "uint256",
          "name": "value",
          "type": "uint256"
        }
      ],
      "name": "transfer",
      "outputs": [
        {
          "internalType": "bool",
          "name": "",
          "type": "bool"
        }
      ],
      "stateMutability": "nonpayable",
      "type": "function"
    },
    {
      "inputs": [
        {
          "internalType": "address",
          "name": "from",
          "type": "address"
        },
        {
          "internalType": "address",
          "name": "to",
          "type": "address"
        },
        {
          "internalType": "uint256",
          "name": "value",
          "type": "uint256"
        }
      ],
      "name": "transferFrom",
      "outputs": [
        {
          "internalType": "bool",
          "name": "",
          "type": "bool"
        }
      ],
      "stateMutability": "nonpayable",
      "type": "function"
    },
    {
      "inputs": [
        {
          "internalType": "address",
          "name": "newOwner",
          "type": "address"
        }
      ],
      "name": "transferOwnership",
      "outputs": [],
      "stateMutability": "nonpayable",
      "type": "function"
    },
    {
      "inputs": [],
      "name": "withdraw",
      "outputs": [],
      "stateMutability": "nonpayable",
      "type": "function"
    }
  ],
  "bytecode": "0x60806040523480156200001157600080fd5b5060405162001c6338038062001c638339818101604052810190620000379190620003f9565b80848481600390816200004b919062000700565b5080600490816200005d919062000700565b505050600073ffffffffffffffffffffffffffffffffffffffff168173ffffffffffffffffffffffffffffffffffffffff1603620000d55760006040517f1e4fbdf7000000000000000000000000000000000000000000000000000000008152600401620000cc9190620007f8565b60405180910390fd5b620000e6816200010060201b60201c565b508460068190555081600781905550505050505062000815565b6000600560009054906101000a900473ffffffffffffffffffffffffffffffffffffffff16905081600560006101000a81548173ffffffffffffffffffffffffffffffffffffffff021916908373ffffffffffffffffffffffffffffffffffffffff1602179055508173ffffffffffffffffffffffffffffffffffffffff168173ffffffffffffffffffffffffffffffffffffffff167f8be0079c531659141344cd1fd0a4f28419497f9722a3daafe3b4186f6b6457e060405160405180910390a35050565b6000604051905090565b600080fd5b600080fd5b6000819050919050565b620001ef81620001da565b8114620001fb57600080fd5b50565b6000815190506200020f81620001e4565b92915050565b600080fd5b600080fd5b6000601f19601f8301169050919050565b7f4e487b7100000000000000000000000000000000000000000000000000000000600052604160045260246000fd5b6200026a826200021f565b810181811067ffffffffffffffff821117156200028c576200028b62000230565b5b80604052505050565b6000620002a1620001c6565b9050620002af82826200025f565b919050565b600067ffffffffffffffff821115620002d257620002d162000230565b5b620002dd826200021f565b9050602081019050919050565b60005b838110156200030a578082015181840152602081019050620002ed565b60008484015250505050565b60006200032d6200032784620002b4565b62000295565b9050828152602081018484840111156200034c576200034b6200021a565b5b62000359848285620002ea565b509392505050565b600082601f83011262000379576200037862000215565b5b81516200038b84826020860162000316565b91505092915050565b600073ffffffffffffffffffffffffffffffffffffffff82169050919050565b6000620003c18262000394565b9050919050565b620003d381620003b4565b8114620003df57600080fd5b50565b600081519050620003f381620003c8565b92915050565b600080600080600060a08688031215620004185762000417620001d0565b5b60006200042888828901620001fe565b955050602086015167ffffffffffffffff8111156200044c576200044b620001d5565b5b6200045a8882890162000361565b945050604086015167ffffffffffffffff8111156200047e576200047d620001d5565b5b6200048c8882890162000361565b93505060606200049f88828901620001fe565b9250506080620004b288828901620003e2565b9150509295509295909350565b600081519050919050565b7f4e487b7100000000000000000000000000000000000000000000000000000000600052602260045260246000fd5b600060028204905060018216806200051257607f821691505b602082108103620005285762000527620004ca565b5b50919050565b60008190508160005260206000209050919050565b60006020601f8301049050919050565b600082821b905092915050565b600060088302620005927fffffffffffffffffffffffffffffffffffffffffffffffffffffffffffffffff8262000553565b6200059e868362000553565b95508019841693508086168417925050509392505050565b6000819050919050565b6000620005e1620005db620005d584620001da565b620005b6565b620001da565b9050919050565b6000819050919050565b620005fd83620005c0565b620006156200060c82620005e8565b84845462000560565b825550505050565b600090565b6200062c6200061d565b62000639818484620005f2565b505050565b5b8181101562000661576200065560008262000622565b6001810190506200063f565b5050565b601f821115620006b0576200067a816200052e565b620006858462000543565b8101602085101562000695578190505b620006ad620006a48562000543565b8301826200063e565b50505b505050565b600082821c905092915050565b6000620006d560001984600802620006b5565b1980831691505092915050565b6000620006f08383620006c2565b9150826002028217905092915050565b6200070b82620004bf565b67ffffffffffffffff81111562000727576200072662000230565b5b620007338254620004f9565b6200074082828562000665565b600060209050601f83116001811462000778576000841562000763578287015190505b6200076f8582620006e2565b865550620007df565b601f19841662000788866200052e565b60005b82811015620007b2578489015182556001820191506020850194506020810190506200078b565b86831015620007d25784890151620007ce601f891682620006c2565b8355505b6001600288020188555050505b505050505050565b620007f281620003b4565b82525050565b60006020820190506200080f6000830184620007e7565b92915050565b61143e80620008256000396000f3fe6080604052600436106100fe5760003560e01c8063715018a611610095578063a0712d6811610064578063a0712d6814610315578063a9059cbb14610331578063dd62ed3e1461036e578063df218bd1146103ab578063f2fde38b146103d6576100fe565b8063715018a61461027d5780637ff9b596146102945780638da5cb5b146102bf57806395d89b41146102ea576100fe565b8063313ce567116100d1578063313ce567146101d35780633ccfd60b146101fe578063608193c31461021557806370a0823114610240576100fe565b806306fdde0314610103578063095ea7b31461012e57806318160ddd1461016b57806323b872dd14610196575b600080fd5b34801561010f57600080fd5b506101186103ff565b6040516101259190610fb7565b60405180910390f35b34801561013a57600080fd5b5061015560048036038101906101509190611072565b610491565b60405161016291906110cd565b60405180910390f35b34801561017757600080fd5b506101806104b4565b60405161018d91906110f7565b60405180910390f35b3480156101a257600080fd5b506101bd60048036038101906101b89190611112565b6104be565b6040516101ca91906110cd565b60405180910390f35b3480156101df57600080fd5b506101e86104ed565b6040516101f59190611181565b60405180910390f35b34801561020a57600080fd5b506102136104f6565b005b34801561022157600080fd5b5061022a610500565b60405161023791906110f7565b60405180910390f35b34801561024c57600080fd5b506102676004803603810190610262919061119c565b61050a565b60405161027491906110f7565b60405180910390f35b34801561028957600080fd5b50610292610552565b005b3480156102a057600080fd5b506102a9610566565b6040516102b691906110f7565b60405180910390f35b3480156102cb57600080fd5b506102d461056c565b6040516102e191906111d8565b60405180910390f35b3480156102f657600080fd5b506102ff610596565b60405161030c9190610fb7565b60405180910390f35b61032f600480360381019061032a91906111f3565b610628565b005b34801561033d57600080fd5b5061035860048036038101906103539190611072565b610684565b60405161036591906110cd565b60405180910390f35b34801561037a57600080fd5b5061039560048036038101906103909190611220565b6106a7565b6040516103a291906110f7565b60405180910390f35b3480156103b757600080fd5b506103c061072e565b6040516103cd91906110f7565b60405180910390f35b3480156103e257600080fd5b506103fd60048036038101906103f8919061119c565b610734565b005b60606003805461040e9061128f565b80601f016020809104026020016040519081016040528092919081815260200182805461043a9061128f565b80156104875780601f1061045c57610100808354040283529160200191610487565b820191906000526020600020905b81548152906001019060200180831161046a57829003601f168201915b5050505050905090565b60008061049c6107ba565b90506104a98185856107c2565b600191505092915050565b6000600254905090565b6000806104c96107ba565b90506104d68582856107d4565b6104e1858585610868565b60019150509392505050565b60006012905090565b6104fe61095c565b565b6000600654905090565b60008060008373ffffffffffffffffffffffffffffffffffffffff1673ffffffffffffffffffffffffffffffffffffffff168152602001908152602001600020549050919050565b61055a61095c565b61056460006109e3565b565b60075481565b6000600560009054906101000a900473ffffffffffffffffffffffffffffffffffffffff16905090565b6060600480546105a59061128f565b80601f01602080910402602001604051908101604052809291908181526020018280546105d19061128f565b801561061e5780601f106105f35761010080835404028352916020019161061e565b820191906000526020600020905b81548152906001019060200180831161060157829003601f168201915b5050505050905090565b6007548161063691906112ef565b3414610677576040517f08c379a000000000000000000000000000000000000000000000000000000000815260040161066e9061137d565b60405180910390fd5b6106813382610aa9565b50565b60008061068f6107ba565b905061069c818585610868565b600191505092915050565b6000600160008473ffffffffffffffffffffffffffffffffffffffff1673ffffffffffffffffffffffffffffffffffffffff16815260200190815260200160002060008373ffffffffffffffffffffffffffffffffffffffff1673ffffffffffffffffffffffffffffffffffffffff16815260200190815260200160002054905092915050565b60065481565b61073c61095c565b600073ffffffffffffffffffffffffffffffffffffffff168173ffffffffffffffffffffffffffffffffffffffff16036107ae5760006040517f1e4fbdf70000000000000000000000000000000000000000000000000000000081526004016107a591906111d8565b60405180910390fd5b6107b7816109e3565b50565b600033905090565b6107cf8383836001610b2b565b505050565b60006107e084846106a7565b90507fffffffffffffffffffffffffffffffffffffffffffffffffffffffffffffffff81146108625781811015610852578281836040517ffb8f41b20000000000000000000000000000000000000000000000000000000081526004016108499392919061139d565b60405180910390fd5b61086184848484036000610b2b565b5b50505050565b600073ffffffffffffffffffffffffffffffffffffffff168373ffffffffffffffffffffffffffffffffffffffff16036108da5760006040517f96c6fd1e0000000000000000000000000000000000000000000000000000000081526004016108d191906111d8565b60405180910390fd5b600073ffffffffffffffffffffffffffffffffffffffff168273ffffffffffffffffffffffffffffffffffffffff160361094c5760006040517fec442f0500000000000000000000000000000000000000000000000000000000815260040161094391906111d8565b60405180910390fd5b610957838383610d02565b505050565b6109646107ba565b73ffffffffffffffffffffffffffffffffffffffff1661098261056c565b73ffffffffffffffffffffffffffffffffffffffff16146109e1576109a56107ba565b6040517f118cdaa70000000000000000000000000000000000000000000000000000000081526004016109d891906111d8565b60405180910390fd5b565b6000600560009054906101000a900473ffffffffffffffffffffffffffffffffffffffff16905081600560006101000a81548173ffffffffffffffffffffffffffffffffffffffff021916908373ffffffffffffffffffffffffffffffffffffffff1602179055508173ffffffffffffffffffffffffffffffffffffffff168173ffffffffffffffffffffffffffffffffffffffff167f8be0079c531659141344cd1fd0a4f28419497f9722a3daafe3b4186f6b6457e060405160405180910390a35050565b600073ffffffffffffffffffffffffffffffffffffffff168273ffffffffffffffffffffffffffffffffffffffff1603610b1b5760006040517fec442f05000000000000000000000000000000000000000000000000000000008152600401610b1291906111d8565b60405180910390fd5b610b2760008383610d02565b5050565b600073ffffffffffffffffffffffffffffffffffffffff168473ffffffffffffffffffffffffffffffffffffffff1603610b9d5760006040517fe602df05000000000000000000000000000000000000000000000000000000008152600401610b9491906111d8565b60405180910390fd5b600073ffffffffffffffffffffffffffffffffffffffff168373ffffffffffffffffffffffffffffffffffffffff1603610c0f5760006040517f94280d62000000000000000000000000000000000000000000000000000000008152600401610c0691906111d8565b60405180910390fd5b81600160008673ffffffffffffffffffffffffffffffffffffffff1673ffffffffffffffffffffffffffffffffffffffff16815260200190815260200160002060008573ffffffffffffffffffffffffffffffffffffffff1673ffffffffffffffffffffffffffffffffffffffff168152602001908152602001600020819055508015610cfc578273ffffffffffffffffffffffffffffffffffffffff168473ffffffffffffffffffffffffffffffffffffffff167f8c5be1e5ebec7d5bd14f71427d1e84f3dd0314c0f7b2291e5b200ac8c7c3b92584604051610cf391906110f7565b60405180910390a35b50505050565b600073ffffffffffffffffffffffffffffffffffffffff168373ffffffffffffffffffffffffffffffffffffffff1603610d54578060026000828254610d4891906113d4565b92505081905550610e27565b60008060008573ffffffffffffffffffffffffffffffffffffffff1673ffffffffffffffffffffffffffffffffffffffff16815260200190815260200160002054905081811015610de0578381836040517fe450d38c000000000000000000000000000000000000000000000000000000008152600401610dd79392919061139d565b60405180910390fd5b8181036000808673ffffffffffffffffffffffffffffffffffffffff1673ffffffffffffffffffffffffffffffffffffffff16815260200190815260200160002081905550505b600073ffffffffffffffffffffffffffffffffffffffff168273ffffffffffffffffffffffffffffffffffffffff1603610e705780600260008282540392505081905550610ebd565b806000808473ffffffffffffffffffffffffffffffffffffffff1673ffffffffffffffffffffffffffffffffffffffff168152602001908152602001600020600082825401925050819055505b8173ffffffffffffffffffffffffffffffffffffffff168373ffffffffffffffffffffffffffffffffffffffff167fddf252ad1be2c89b69c2b068fc378daa952ba7f163c4a11628f55a4df523b3ef83604051610f1a91906110f7565b60405180910390a3505050565b600081519050919050565b600082825260208201905092915050565b60005b83811015610f61578082015181840152602081019050610f46565b60008484015250505050565b6000601f19601f8301169050919050565b6000610f8982610f27565b610f938185610f32565b9350610fa3818560208601610f43565b610fac81610f6d565b840191505092915050565b60006020820190508181036000830152610fd18184610f7e565b905092915050565b600080fd5b600073ffffffffffffffffffffffffffffffffffffffff82169050919050565b600061100982610fde565b9050919050565b61101981610ffe565b811461102457600080fd5b50565b60008135905061103681611010565b92915050565b6000819050919050565b61104f8161103c565b811461105a57600080fd5b50565b60008135905061106c81611046565b92915050565b6000806040838503121561108957611088610fd9565b5b600061109785828601611027565b92505060206110a88582860161105d565b9150509250929050565b60008115159050919050565b6110c7816110b2565b82525050565b60006020820190506110e260008301846110be565b92915050565b6110f18161103c565b82525050565b600060208201905061110c60008301846110e8565b92915050565b60008060006060848603121561112b5761112a610fd9565b5b600061113986828701611027565b935050602061114a86828701611027565b925050604061115b8682870161105d565b9150509250925092565b600060ff82169050919050565b61117b81611165565b82525050565b60006020820190506111966000830184611172565b92915050565b6000602082840312156111b2576111b1610fd9565b5b60006111c084828501611027565b91505092915050565b6111d281610ffe565b82525050565b60006020820190506111ed60008301846111c9565b92915050565b60006020828403121561120957611208610fd9565b5b60006112178482850161105d565b91505092915050565b6000806040838503121561123757611236610fd9565b5b600061124585828601611027565b925050602061125685828601611027565b9150509250929050565b7f4e487b7100000000000000000000000000000000000000000000000000000000600052602260045260246000fd5b600060028204905060018216806112a757607f821691505b6020821081036112ba576112b9611260565b5b50919050565b7f4e487b7100000000000000000000000000000000000000000000000000000000600052601160045260246000fd5b60006112fa8261103c565b91506113058361103c565b92508282026113138161103c565b9150828204841483151761132a576113296112c0565b5b5092915050565b7f4e6f7420656e6f7567682065746820746f206d696e7420746f6b656e00000000600082015250565b6000611367601c83610f32565b915061137282611331565b602082019050919050565b600060208201905081810360008301526113968161135a565b9050919050565b60006060820190506113b260008301866111c9565b6113bf60208301856110e8565b6113cc60408301846110e8565b949350505050565b60006113df8261103c565b91506113ea8361103c565b9250828201905080821115611402576114016112c0565b5b9291505056fea264697066735822122014a49b470ea842dc107eefe2872de76d75be216323f1f36070eee8d71c236d2064736f6c63430008140033",
  "linkReferences": {},
  "deployedLinkReferences": {}
}