{
  "_format": "hh-sol-artifact-1",
  "contractName": "AIGC_Factory",
  "sourceName": "contracts/AIGC_Factory.sol",
  "abi": [
    {
      "anonymous": false,
      "inputs": [
        {
          "indexed": false,
          "internalType": "address",
          "name": "aigcAddress",
          "type": "address"
        },
        {
          "indexed": false,
          "internalType": "address",
          "name": "aigtAddress",
          "type": "address"
        }
      ],
      "name": "AIGC_Created",
      "type": "event"
    },
    {
      "inputs": [
        {
          "internalType": "string",
          "name": "_modelName",
          "type": "string"
        },
        {
          "internalType": "string",
          "name": "_modelSymbol",
          "type": "string"
        },
        {
          "internalType": "uint256",
          "name": "_tokenPrice",
          "type": "uint256"
        },
        {
          "internalType": "uint256",
          "name": "_costToken",
          "type": "uint256"
        },
        {
          "internalType": "bytes32",
          "name": "_aiModelVm",
          "type": "bytes32"
        },
        {
          "internalType": "address",
          "name": "_opmlLib",
          "type": "address"
        },
        {
          "internalType": "uint256",
          "name": "_tokenMaxSupply",
          "type": "uint256"
        },
        {
          "internalType": "uint256",
          "name": "_ownerReservePercent",
          "type": "uint256"
        },
        {
          "internalType": "uint96",
          "name": "_royalty",
          "type": "uint96"
        }
      ],
      "name": "createAIGC",
      "outputs": [
        {
          "internalType": "uint256",
          "name": "",
          "type": "uint256"
        }
      ],
      "stateMutability": "nonpayable",
      "type": "function"
    },
    {
      "inputs": [
        {
          "internalType": "uint256",
          "name": "",
          "type": "uint256"
        }
      ],
      "name": "deployedAIGCs",
      "outputs": [
        {
          "internalType": "address",
          "name": "",
          "type": "address"
        }
      ],
      "stateMutability": "view",
      "type": "function"
    },
    {
      "inputs": [
        {
          "internalType": "uint256",
          "name": "",
          "type": "uint256"
        }
      ],
      "name": "deployedAIGTs",
      "outputs": [
        {
          "internalType": "address",
          "name": "",
          "type": "address"
        }
      ],
      "stateMutability": "view",
      "type": "function"
    },
    {
      "inputs": [
        {
          "internalType": "uint256",
          "name": "_modelIndex",
          "type": "uint256"
        }
      ],
      "name": "getAIGC",
      "outputs": [
        {
          "internalType": "address",
          "name": "",
          "type": "address"
        }
      ],
      "stateMutability": "view",
      "type": "function"
    },
    {
      "inputs": [
        {
          "internalType": "uint256",
          "name": "_modelIndex",
          "type": "uint256"
        }
      ],
      "name": "getAIGT",
      "outputs": [
        {
          "internalType": "address",
          "name": "",
          "type": "address"
        }
      ],
      "stateMutability": "view",
      "type": "function"
    },
    {
      "inputs": [],
      "name": "modelIndexCurrent",
      "outputs": [
        {
          "internalType": "uint256",
          "name": "",
          "type": "uint256"
        }
      ],
      "stateMutability": "view",
      "type": "function"
    }
  ],
  "bytecode": "0x608060405234801561001057600080fd5b50613672806100206000396000f3fe60806040523480156200001157600080fd5b50600436106200007b5760003560e01c80634238b53711620000565780634238b53714620000e45780634a7432f714620000fb57806364b213d1146200011257600080fd5b806301f2f67b14620000805780630f3a0e3a14620000aa5780633656104914620000da575b600080fd5b62000097620000913660046200041d565b62000129565b6040519081526020015b60405180910390f35b620000c1620000bb366004620004eb565b620002ad565b6040516001600160a01b039091168152602001620000a1565b6200009760005481565b620000c1620000f5366004620004eb565b620002d8565b620000c16200010c366004620004eb565b6200030b565b620000c162000123366004620004eb565b62000323565b6000806000548b8b8b338989604051620001439062000334565b6200015597969594939291906200054d565b604051809103906000f08015801562000172573d6000803e3d6000fd5b509050600080548c8c848c8c8c8a6040516200018e9062000342565b620001a1989796959493929190620005ac565b604051809103906000f080158015620001be573d6000803e3d6000fd5b506001805480820182557fb10e2d527612073b26eecdfd717e6a320cf44b4afac2b0732d9fcbe2b7fa0cf60180546001600160a01b038481167fffffffffffffffffffffffff000000000000000000000000000000000000000092831681179093556002805494850181556000527f405787fa12a823e0f2b7631cc41b3ba8828b3321ca811111fa75cd3aa3bb5ace909301805493871693909116831790556040805191825260208201929092529192507f89b4e42ad48b530e844746cbc0c0a63533ef6016579c4a268bd61f57afb7b0ae910160405180910390a150506000549a9950505050505050505050565b60028181548110620002be57600080fd5b6000918252602090912001546001600160a01b0316905081565b600060028281548110620002f057620002f062000627565b6000918252602090912001546001600160a01b031692915050565b600060018281548110620002f057620002f062000627565b60018181548110620002be57600080fd5b611245806200063e83390190565b611dba806200188383390190565b634e487b7160e01b600052604160045260246000fd5b600082601f8301126200037857600080fd5b813567ffffffffffffffff8082111562000396576200039662000350565b604051601f8301601f19908116603f01168101908282118183101715620003c157620003c162000350565b81604052838152866020858801011115620003db57600080fd5b836020870160208301376000602085830101528094505050505092915050565b80356bffffffffffffffffffffffff811681146200041857600080fd5b919050565b60008060008060008060008060006101208a8c0312156200043d57600080fd5b893567ffffffffffffffff808211156200045657600080fd5b620004648d838e0162000366565b9a5060208c01359150808211156200047b57600080fd5b506200048a8c828d0162000366565b98505060408a0135965060608a0135955060808a0135945060a08a01356001600160a01b0381168114620004bd57600080fd5b935060c08a0135925060e08a01359150620004dc6101008b01620003fb565b90509295985092959850929598565b600060208284031215620004fe57600080fd5b5035919050565b6000815180845260005b818110156200052d576020818501810151868301820152016200050f565b506000602082860101526020601f19601f83011685010191505092915050565b87815260e0602082015260006200056860e083018962000505565b82810360408401526200057c818962000505565b9150508560608301526001600160a01b03851660808301528360a08301528260c083015298975050505050505050565b60006101008a8352806020840152620005c88184018b62000505565b90508281036040840152620005de818a62000505565b9150506001600160a01b0380881660608401528660808401528560a084015280851660c0840152506bffffffffffffffffffffffff831660e08301529998505050505050505050565b634e487b7160e01b600052603260045260246000fdfe60806040523480156200001157600080fd5b50604051620012453803806200124583398101604081905262000034916200035c565b8286866003620000458382620004a0565b506004620000548282620004a0565b5050506001600160a01b0381166200008757604051631e4fbdf760e01b8152600060048201526024015b60405180910390fd5b6200009281620000d4565b50600687905560078490556008829055620000c7836064620000b5848662000582565b620000c19190620005a2565b62000126565b50505050505050620005db565b600580546001600160a01b038381166001600160a01b0319831681179093556040519116919082907f8be0079c531659141344cd1fd0a4f28419497f9722a3daafe3b4186f6b6457e090600090a35050565b6001600160a01b038216620001525760405163ec442f0560e01b8152600060048201526024016200007e565b620001606000838362000164565b5050565b6001600160a01b03831662000193578060026000828254620001879190620005c5565b90915550620002079050565b6001600160a01b03831660009081526020819052604090205481811015620001e85760405163391434e360e21b81526001600160a01b038516600482015260248101829052604481018390526064016200007e565b6001600160a01b03841660009081526020819052604090209082900390555b6001600160a01b038216620002255760028054829003905562000244565b6001600160a01b03821660009081526020819052604090208054820190555b816001600160a01b0316836001600160a01b03167fddf252ad1be2c89b69c2b068fc378daa952ba7f163c4a11628f55a4df523b3ef836040516200028a91815260200190565b60405180910390a3505050565b634e487b7160e01b600052604160045260246000fd5b600082601f830112620002bf57600080fd5b81516001600160401b0380821115620002dc57620002dc62000297565b604051601f8301601f19908116603f0116810190828211818310171562000307576200030762000297565b816040528381526020925086838588010111156200032457600080fd5b600091505b8382101562000348578582018301518183018401529082019062000329565b600093810190920192909252949350505050565b600080600080600080600060e0888a0312156200037857600080fd5b875160208901519097506001600160401b03808211156200039857600080fd5b620003a68b838c01620002ad565b975060408a0151915080821115620003bd57600080fd5b50620003cc8a828b01620002ad565b60608a015160808b0151919750955090506001600160a01b0381168114620003f357600080fd5b8093505060a0880151915060c0880151905092959891949750929550565b600181811c908216806200042657607f821691505b6020821081036200044757634e487b7160e01b600052602260045260246000fd5b50919050565b601f8211156200049b57600081815260208120601f850160051c81016020861015620004765750805b601f850160051c820191505b81811015620004975782815560010162000482565b5050505b505050565b81516001600160401b03811115620004bc57620004bc62000297565b620004d481620004cd845462000411565b846200044d565b602080601f8311600181146200050c5760008415620004f35750858301515b600019600386901b1c1916600185901b17855562000497565b600085815260208120601f198616915b828110156200053d578886015182559484019460019091019084016200051c565b50858210156200055c5787850151600019600388901b60f8161c191681555b5050505050600190811b01905550565b634e487b7160e01b600052601160045260246000fd5b80820281158282048414176200059c576200059c6200056c565b92915050565b600082620005c057634e487b7160e01b600052601260045260246000fd5b500490565b808201808211156200059c576200059c6200056c565b610c5a80620005eb6000396000f3fe6080604052600436106101445760003560e01c806375298734116100c0578063a9059cbb11610074578063dd62ed3e11610059578063dd62ed3e14610327578063df218bd11461036d578063f2fde38b1461038357600080fd5b8063a9059cbb146102f1578063d5abeb011461031157600080fd5b80638da5cb5b116100a55780638da5cb5b146102a157806395d89b41146102c9578063a0712d68146102de57600080fd5b806375298734146102765780637ff9b5961461028b57600080fd5b8063313ce56711610117578063608193c3116100fc578063608193c31461021657806370a082311461022b578063715018a61461026157600080fd5b8063313ce567146101e35780633ccfd60b146101ff57600080fd5b806306fdde0314610149578063095ea7b31461017457806318160ddd146101a457806323b872dd146101c3575b600080fd5b34801561015557600080fd5b5061015e6103a3565b60405161016b9190610a4a565b60405180910390f35b34801561018057600080fd5b5061019461018f366004610ab4565b610435565b604051901515815260200161016b565b3480156101b057600080fd5b506002545b60405190815260200161016b565b3480156101cf57600080fd5b506101946101de366004610ade565b61044f565b3480156101ef57600080fd5b506040516012815260200161016b565b34801561020b57600080fd5b50610214610473565b005b34801561022257600080fd5b506006546101b5565b34801561023757600080fd5b506101b5610246366004610b1a565b6001600160a01b031660009081526020819052604090205490565b34801561026d57600080fd5b506102146104b7565b34801561028257600080fd5b506101b56104cb565b34801561029757600080fd5b506101b560075481565b3480156102ad57600080fd5b506005546040516001600160a01b03909116815260200161016b565b3480156102d557600080fd5b5061015e610500565b6102146102ec366004610b3c565b61050f565b3480156102fd57600080fd5b5061019461030c366004610ab4565b610593565b34801561031d57600080fd5b506101b560085481565b34801561033357600080fd5b506101b5610342366004610b55565b6001600160a01b03918216600090815260016020908152604080832093909416825291909152205490565b34801561037957600080fd5b506101b560065481565b34801561038f57600080fd5b5061021461039e366004610b1a565b6105a1565b6060600380546103b290610b88565b80601f01602080910402602001604051908101604052809291908181526020018280546103de90610b88565b801561042b5780601f106104005761010080835404028352916020019161042b565b820191906000526020600020905b81548152906001019060200180831161040e57829003601f168201915b5050505050905090565b6000336104438185856105f5565b60019150505b92915050565b60003361045d858285610607565b61046885858561069e565b506001949350505050565b61047b610716565b6005546040516001600160a01b03909116904780156108fc02916000818181858888f193505050501580156104b4573d6000803e3d6000fd5b50565b6104bf610716565b6104c9600061075c565b565b60006104d660025490565b336000908152602081905260409020546104f1906064610bd8565b6104fb9190610bef565b905090565b6060600480546103b290610b88565b60075461051c9082610bd8565b3414610589576040517f08c379a000000000000000000000000000000000000000000000000000000000815260206004820152601c60248201527f4e6f7420656e6f7567682065746820746f206d696e7420746f6b656e0000000060448201526064015b60405180910390fd5b6104b433826107c6565b60003361044381858561069e565b6105a9610716565b6001600160a01b0381166105ec576040517f1e4fbdf700000000000000000000000000000000000000000000000000000000815260006004820152602401610580565b6104b48161075c565b6106028383836001610800565b505050565b6001600160a01b0383811660009081526001602090815260408083209386168352929052205460001981146106985781811015610689576040517ffb8f41b20000000000000000000000000000000000000000000000000000000081526001600160a01b03841660048201526024810182905260448101839052606401610580565b61069884848484036000610800565b50505050565b6001600160a01b0383166106e1576040517f96c6fd1e00000000000000000000000000000000000000000000000000000000815260006004820152602401610580565b6001600160a01b03821661070b5760405163ec442f0560e01b815260006004820152602401610580565b610602838383610907565b6005546001600160a01b031633146104c9576040517f118cdaa7000000000000000000000000000000000000000000000000000000008152336004820152602401610580565b600580546001600160a01b038381167fffffffffffffffffffffffff0000000000000000000000000000000000000000831681179093556040519116919082907f8be0079c531659141344cd1fd0a4f28419497f9722a3daafe3b4186f6b6457e090600090a35050565b6001600160a01b0382166107f05760405163ec442f0560e01b815260006004820152602401610580565b6107fc60008383610907565b5050565b6001600160a01b038416610843576040517fe602df0500000000000000000000000000000000000000000000000000000000815260006004820152602401610580565b6001600160a01b038316610886576040517f94280d6200000000000000000000000000000000000000000000000000000000815260006004820152602401610580565b6001600160a01b038085166000908152600160209081526040808320938716835292905220829055801561069857826001600160a01b0316846001600160a01b03167f8c5be1e5ebec7d5bd14f71427d1e84f3dd0314c0f7b2291e5b200ac8c7c3b925846040516108f991815260200190565b60405180910390a350505050565b6001600160a01b0383166109325780600260008282546109279190610c11565b909155506109bd9050565b6001600160a01b0383166000908152602081905260409020548181101561099e576040517fe450d38c0000000000000000000000000000000000000000000000000000000081526001600160a01b03851660048201526024810182905260448101839052606401610580565b6001600160a01b03841660009081526020819052604090209082900390555b6001600160a01b0382166109d9576002805482900390556109f8565b6001600160a01b03821660009081526020819052604090208054820190555b816001600160a01b0316836001600160a01b03167fddf252ad1be2c89b69c2b068fc378daa952ba7f163c4a11628f55a4df523b3ef83604051610a3d91815260200190565b60405180910390a3505050565b600060208083528351808285015260005b81811015610a7757858101830151858201604001528201610a5b565b506000604082860101526040601f19601f8301168501019250505092915050565b80356001600160a01b0381168114610aaf57600080fd5b919050565b60008060408385031215610ac757600080fd5b610ad083610a98565b946020939093013593505050565b600080600060608486031215610af357600080fd5b610afc84610a98565b9250610b0a60208501610a98565b9150604084013590509250925092565b600060208284031215610b2c57600080fd5b610b3582610a98565b9392505050565b600060208284031215610b4e57600080fd5b5035919050565b60008060408385031215610b6857600080fd5b610b7183610a98565b9150610b7f60208401610a98565b90509250929050565b600181811c90821680610b9c57607f821691505b602082108103610bbc57634e487b7160e01b600052602260045260246000fd5b50919050565b634e487b7160e01b600052601160045260246000fd5b808202811582820484141761044957610449610bc2565b600082610c0c57634e487b7160e01b600052601260045260246000fd5b500490565b8082018082111561044957610449610bc256fea2646970667358221220db758b73a4fa211e3c5e0740fac83681f8ac3cfc6343c15972bdd0a341eedf3964736f6c6343000814003360806040523480156200001157600080fd5b5060405162001dba38038062001dba83398101604081905262000034916200023c565b868660026200004483826200039b565b5060036200005382826200039b565b5050600c80546001600160a01b038089166001600160a01b03199283161790925560098b9055600b879055600d869055600e80549286169290911691909117905550620000a18582620000af565b505050505050505062000467565b6127106001600160601b038216811015620000f457604051636f483d0960e01b81526001600160601b0383166004820152602481018290526044015b60405180910390fd5b6001600160a01b0383166200012057604051635b6cc80560e11b815260006004820152602401620000eb565b50604080518082019091526001600160a01b039092168083526001600160601b039091166020909201829052600160a01b90910217600055565b634e487b7160e01b600052604160045260246000fd5b600082601f8301126200018257600080fd5b81516001600160401b03808211156200019f576200019f6200015a565b604051601f8301601f19908116603f01168101908282118183101715620001ca57620001ca6200015a565b81604052838152602092508683858801011115620001e757600080fd5b600091505b838210156200020b5785820183015181830184015290820190620001ec565b600093810190920192909252949350505050565b80516001600160a01b03811681146200023757600080fd5b919050565b600080600080600080600080610100898b0312156200025a57600080fd5b885160208a01519098506001600160401b03808211156200027a57600080fd5b620002888c838d0162000170565b985060408b01519150808211156200029f57600080fd5b50620002ae8b828c0162000170565b965050620002bf60608a016200021f565b94506080890151935060a08901519250620002dd60c08a016200021f565b60e08a01519092506001600160601b0381168114620002fb57600080fd5b809150509295985092959890939650565b600181811c908216806200032157607f821691505b6020821081036200034257634e487b7160e01b600052602260045260246000fd5b50919050565b601f8211156200039657600081815260208120601f850160051c81016020861015620003715750805b601f850160051c820191505b8181101562000392578281556001016200037d565b5050505b505050565b81516001600160401b03811115620003b757620003b76200015a565b620003cf81620003c884546200030c565b8462000348565b602080601f831160018114620004075760008415620003ee5750858301515b600019600386901b1c1916600185901b17855562000392565b600085815260208120601f198616915b82811015620004385788860151825594840194600190910190840162000417565b5085821015620004575787850151600019600388901b60f8161c191681555b5050505050600190811b01905550565b61194380620004776000396000f3fe608060405234801561001057600080fd5b506004361061018d5760003560e01c80636352211e116100e3578063b88d4fde1161008c578063df218bd111610066578063df218bd114610338578063e985e9c514610341578063fc0c546a1461037d57600080fd5b8063b88d4fde146102ff578063c87b56dd14610312578063d632265d1461032557600080fd5b80638753367f116100bd5780638753367f146102d157806395d89b41146102e4578063a22cb465146102ec57600080fd5b80636352211e146102a257806370a08231146102b557806374a349d2146102c857600080fd5b806317d70f7c116101455780632f03012e1161011f5780632f03012e1461027457806342842e0e14610287578063608193c31461029a57600080fd5b806317d70f7c1461022657806323b872dd1461022f5780632a55205a1461024257600080fd5b8063081812fc11610176578063081812fc146101cf578063095ea7b3146101fa578063129865131461020f57600080fd5b806301ffc9a71461019257806306fdde03146101ba575b600080fd5b6101a56101a0366004611365565b610390565b60405190151581526020015b60405180910390f35b6101c26103a1565b6040516101b191906113d2565b6101e26101dd3660046113e5565b610433565b6040516001600160a01b0390911681526020016101b1565b61020d61020836600461141a565b61045c565b005b610218600d5481565b6040519081526020016101b1565b610218600a5481565b61020d61023d366004611444565b61046b565b610255610250366004611480565b610514565b604080516001600160a01b0390931683526020830191909152016101b1565b600e546101e2906001600160a01b031681565b61020d610295366004611444565b6105cf565b600954610218565b6101e26102b03660046113e5565b6105ef565b6102186102c33660046114a2565b6105fa565b610218600b5481565b6101a56102df3660046113e5565b61065b565b6101c26106f8565b61020d6102fa3660046114cb565b610707565b61020d61030d36600461158e565b610712565b6101c26103203660046113e5565b610729565b61020d61033336600461160a565b610734565b61021860095481565b6101a561034f36600461166c565b6001600160a01b03918216600090815260076020908152604080832093909416825291909152205460ff1690565b600c546101e2906001600160a01b031681565b600061039b826108ab565b92915050565b6060600280546103b09061169f565b80601f01602080910402602001604051908101604052809291908181526020018280546103dc9061169f565b80156104295780601f106103fe57610100808354040283529160200191610429565b820191906000526020600020905b81548152906001019060200180831161040c57829003601f168201915b5050505050905090565b600061043e826108b6565b506000828152600660205260409020546001600160a01b031661039b565b6104678282336108ef565b5050565b6001600160a01b03821661049a57604051633250574960e11b8152600060048201526024015b60405180910390fd5b60006104a78383336108fc565b9050836001600160a01b0316816001600160a01b03161461050e576040517f64283d7b0000000000000000000000000000000000000000000000000000000081526001600160a01b0380861660048301526024820184905282166044820152606401610491565b50505050565b60008281526001602090815260408083208151808301909252546001600160a01b038116808352600160a01b9091046bffffffffffffffffffffffff169282019290925282916105935750604080518082019091526000546001600160a01b0381168252600160a01b90046bffffffffffffffffffffffff1660208201525b6020810151600090612710906105b7906bffffffffffffffffffffffff16876116ef565b6105c19190611706565b915196919550909350505050565b6105ea83838360405180602001604052806000815250610712565b505050565b600061039b826108b6565b60006001600160a01b03821661063f576040517f89c62b6400000000000000000000000000000000000000000000000000000000815260006004820152602401610491565b506001600160a01b031660009081526005602052604090205490565b600e546000828152600f60205260408082205490517f33727c4d00000000000000000000000000000000000000000000000000000000815291926001600160a01b0316916333727c4d916106b59160040190815260200190565b6020604051808303816000875af11580156106d4573d6000803e3d6000fd5b505050506040513d601f19601f8201168201806040525081019061039b9190611728565b6060600380546103b09061169f565b610467338383610a02565b61071d84848461046b565b61050e84848484610aba565b606061039b82610be3565b600c54600b546040517f23b872dd00000000000000000000000000000000000000000000000000000000815233600482015230602482015260448101919091526001600160a01b03909116906323b872dd906064016020604051808303816000875af11580156107a8573d6000803e3d6000fd5b505050506040513d601f19601f820116820180604052508101906107cc9190611728565b506107d933600a54610cf4565b6107e5600a5484610d0e565b600e54600d546040517f1aafb2be000000000000000000000000000000000000000000000000000000008152600481019190915260248101849052604481018390526001600160a01b0390911690631aafb2be906064016020604051808303816000875af115801561085b573d6000803e3d6000fd5b505050506040513d601f19601f8201168201806040525081019061087f9190611745565b600a80546000908152600f60205260408120929092558054916108a18361175e565b9190505550505050565b600061039b82610d5e565b6000818152600460205260408120546001600160a01b03168061039b57604051637e27328960e01b815260048101849052602401610491565b6105ea8383836001610d9c565b6000828152600460205260408120546001600160a01b039081169083161561092957610929818486610ee7565b6001600160a01b0381161561096757610946600085600080610d9c565b6001600160a01b038116600090815260056020526040902080546000190190555b6001600160a01b03851615610996576001600160a01b0385166000908152600560205260409020805460010190555b600084815260046020526040808220805473ffffffffffffffffffffffffffffffffffffffff19166001600160a01b0389811691821790925591518793918516917fddf252ad1be2c89b69c2b068fc378daa952ba7f163c4a11628f55a4df523b3ef91a4949350505050565b6001600160a01b038216610a4d576040517f5b08ba180000000000000000000000000000000000000000000000000000000081526001600160a01b0383166004820152602401610491565b6001600160a01b03838116600081815260076020908152604080832094871680845294825291829020805460ff191686151590811790915591519182527f17307eab39ab6107e8899845ad3d59bd9653f200f220920489ca2b5937696c31910160405180910390a3505050565b6001600160a01b0383163b1561050e57604051630a85bd0160e11b81526001600160a01b0384169063150b7a0290610afc903390889087908790600401611777565b6020604051808303816000875af1925050508015610b37575060408051601f3d908101601f19168201909252610b34918101906117b3565b60015b610ba0573d808015610b65576040519150601f19603f3d011682016040523d82523d6000602084013e610b6a565b606091505b508051600003610b9857604051633250574960e11b81526001600160a01b0385166004820152602401610491565b805181602001fd5b6001600160e01b03198116630a85bd0160e11b14610bdc57604051633250574960e11b81526001600160a01b0385166004820152602401610491565b5050505050565b6060610bee826108b6565b5060008281526008602052604081208054610c089061169f565b80601f0160208091040260200160405190810160405280929190818152602001828054610c349061169f565b8015610c815780601f10610c5657610100808354040283529160200191610c81565b820191906000526020600020905b815481529060010190602001808311610c6457829003601f168201915b505050505090506000610c9f60408051602081019091526000815290565b90508051600003610cb1575092915050565b815115610ce3578082604051602001610ccb9291906117d0565b60405160208183030381529060405292505050919050565b610cec84610f64565b949350505050565b610467828260405180602001604052806000815250610fd9565b6000828152600860205260409020610d26828261184d565b506040518281527ff8e1a15aba9398e019f0b49df1a4fde98ee17ae345cb5f6b5e2c27f5033e8ce79060200160405180910390a15050565b60006001600160e01b031982167f4906490600000000000000000000000000000000000000000000000000000000148061039b575061039b82610ff0565b8080610db057506001600160a01b03821615155b15610eaa576000610dc0846108b6565b90506001600160a01b03831615801590610dec5750826001600160a01b0316816001600160a01b031614155b8015610e1e57506001600160a01b0380821660009081526007602090815260408083209387168352929052205460ff16155b15610e60576040517fa9fbf51f0000000000000000000000000000000000000000000000000000000081526001600160a01b0384166004820152602401610491565b8115610ea85783856001600160a01b0316826001600160a01b03167f8c5be1e5ebec7d5bd14f71427d1e84f3dd0314c0f7b2291e5b200ac8c7c3b92560405160405180910390a45b505b50506000908152600660205260409020805473ffffffffffffffffffffffffffffffffffffffff19166001600160a01b0392909216919091179055565b610ef2838383611062565b6105ea576001600160a01b038316610f2057604051637e27328960e01b815260048101829052602401610491565b6040517f177e802f0000000000000000000000000000000000000000000000000000000081526001600160a01b038316600482015260248101829052604401610491565b6060610f6f826108b6565b506000610f8760408051602081019091526000815290565b90506000815111610fa75760405180602001604052806000815250610fd2565b80610fb1846110e5565b604051602001610fc29291906117d0565b6040516020818303038152906040525b9392505050565b610fe38383611185565b6105ea6000848484610aba565b60006001600160e01b031982167f80ac58cd00000000000000000000000000000000000000000000000000000000148061105357506001600160e01b031982167f5b5e139f00000000000000000000000000000000000000000000000000000000145b8061039b575061039b82611203565b60006001600160a01b03831615801590610cec5750826001600160a01b0316846001600160a01b031614806110bc57506001600160a01b0380851660009081526007602090815260408083209387168352929052205460ff165b80610cec5750506000908152600660205260409020546001600160a01b03908116911614919050565b606060006110f28361126a565b600101905060008167ffffffffffffffff81111561111257611112611502565b6040519080825280601f01601f19166020018201604052801561113c576020820181803683370190505b5090508181016020015b600019017f3031323334353637383961626364656600000000000000000000000000000000600a86061a8153600a850494508461114657509392505050565b6001600160a01b0382166111af57604051633250574960e11b815260006004820152602401610491565b60006111bd838360006108fc565b90506001600160a01b038116156105ea576040517f73c6ac6e00000000000000000000000000000000000000000000000000000000815260006004820152602401610491565b60006001600160e01b031982167f2a55205a00000000000000000000000000000000000000000000000000000000148061039b57507f01ffc9a7000000000000000000000000000000000000000000000000000000006001600160e01b031983161461039b565b6000807a184f03e93ff9f4daa797ed6e38ed64bf6a1f01000000000000000083106112b3577a184f03e93ff9f4daa797ed6e38ed64bf6a1f010000000000000000830492506040015b6d04ee2d6d415b85acef810000000083106112df576d04ee2d6d415b85acef8100000000830492506020015b662386f26fc1000083106112fd57662386f26fc10000830492506010015b6305f5e1008310611315576305f5e100830492506008015b612710831061132957612710830492506004015b6064831061133b576064830492506002015b600a831061039b5760010192915050565b6001600160e01b03198116811461136257600080fd5b50565b60006020828403121561137757600080fd5b8135610fd28161134c565b60005b8381101561139d578181015183820152602001611385565b50506000910152565b600081518084526113be816020860160208601611382565b601f01601f19169290920160200192915050565b602081526000610fd260208301846113a6565b6000602082840312156113f757600080fd5b5035919050565b80356001600160a01b038116811461141557600080fd5b919050565b6000806040838503121561142d57600080fd5b611436836113fe565b946020939093013593505050565b60008060006060848603121561145957600080fd5b611462846113fe565b9250611470602085016113fe565b9150604084013590509250925092565b6000806040838503121561149357600080fd5b50508035926020909101359150565b6000602082840312156114b457600080fd5b610fd2826113fe565b801515811461136257600080fd5b600080604083850312156114de57600080fd5b6114e7836113fe565b915060208301356114f7816114bd565b809150509250929050565b634e487b7160e01b600052604160045260246000fd5b600067ffffffffffffffff8084111561153357611533611502565b604051601f8501601f19908116603f0116810190828211818310171561155b5761155b611502565b8160405280935085815286868601111561157457600080fd5b858560208301376000602087830101525050509392505050565b600080600080608085870312156115a457600080fd5b6115ad856113fe565b93506115bb602086016113fe565b925060408501359150606085013567ffffffffffffffff8111156115de57600080fd5b8501601f810187136115ef57600080fd5b6115fe87823560208401611518565b91505092959194509250565b60008060006060848603121561161f57600080fd5b833567ffffffffffffffff81111561163657600080fd5b8401601f8101861361164757600080fd5b61165686823560208401611518565b9660208601359650604090950135949350505050565b6000806040838503121561167f57600080fd5b611688836113fe565b9150611696602084016113fe565b90509250929050565b600181811c908216806116b357607f821691505b6020821081036116d357634e487b7160e01b600052602260045260246000fd5b50919050565b634e487b7160e01b600052601160045260246000fd5b808202811582820484141761039b5761039b6116d9565b60008261172357634e487b7160e01b600052601260045260246000fd5b500490565b60006020828403121561173a57600080fd5b8151610fd2816114bd565b60006020828403121561175757600080fd5b5051919050565b600060018201611770576117706116d9565b5060010190565b60006001600160a01b038087168352808616602084015250836040830152608060608301526117a960808301846113a6565b9695505050505050565b6000602082840312156117c557600080fd5b8151610fd28161134c565b600083516117e2818460208801611382565b8351908301906117f6818360208801611382565b01949350505050565b601f8211156105ea57600081815260208120601f850160051c810160208610156118265750805b601f850160051c820191505b8181101561184557828155600101611832565b505050505050565b815167ffffffffffffffff81111561186757611867611502565b61187b81611875845461169f565b846117ff565b602080601f8311600181146118b057600084156118985750858301515b600019600386901b1c1916600185901b178555611845565b600085815260208120601f198616915b828110156118df578886015182559484019460019091019084016118c0565b50858210156118fd5787850151600019600388901b60f8161c191681555b5050505050600190811b0190555056fea2646970667358221220a8ab8dc72d11e96dfc0d13683501f8afed2ce57d52a51442a995a79c95b097ef64736f6c63430008140033a264697066735822122061488cdd55927a920862f282c5527954a2c44a97b8c2e587e0dcfebd2c56834464736f6c63430008140033",
  "linkReferences": {},
  "deployedLinkReferences": {}
}