{
  "_format": "hh-sol-artifact-1",
  "contractName": "AIGC_Factory",
  "sourceName": "contracts/AIGC_Factory.sol",
  "abi": [
    {
      "anonymous": false,
      "inputs": [
        {
          "indexed": false,
          "internalType": "address",
          "name": "aigcAddress",
          "type": "address"
        },
        {
          "indexed": false,
          "internalType": "address",
          "name": "aigtAddress",
          "type": "address"
        }
      ],
      "name": "AIGC_Created",
      "type": "event"
    },
    {
      "inputs": [
        {
          "internalType": "string",
          "name": "_modelName",
          "type": "string"
        },
        {
          "internalType": "string",
          "name": "_modelSymbol",
          "type": "string"
        },
        {
          "internalType": "uint256",
          "name": "_tokenPrice",
          "type": "uint256"
        },
        {
          "internalType": "uint256",
          "name": "_costToken",
          "type": "uint256"
        },
        {
          "internalType": "bytes32",
          "name": "_aiModelVm",
          "type": "bytes32"
        },
        {
          "internalType": "address",
          "name": "_opmlLib",
          "type": "address"
        },
        {
          "internalType": "uint256",
          "name": "_tokenMaxSupply",
          "type": "uint256"
        },
        {
          "internalType": "uint256",
          "name": "_ownerReservePercent",
          "type": "uint256"
        },
        {
          "internalType": "uint96",
          "name": "_royalty",
          "type": "uint96"
        }
      ],
      "name": "createAIGC",
      "outputs": [
        {
          "internalType": "uint256",
          "name": "",
          "type": "uint256"
        }
      ],
      "stateMutability": "nonpayable",
      "type": "function"
    },
    {
      "inputs": [
        {
          "internalType": "uint256",
          "name": "",
          "type": "uint256"
        }
      ],
      "name": "deployedAIGCs",
      "outputs": [
        {
          "internalType": "address",
          "name": "",
          "type": "address"
        }
      ],
      "stateMutability": "view",
      "type": "function"
    },
    {
      "inputs": [
        {
          "internalType": "uint256",
          "name": "",
          "type": "uint256"
        }
      ],
      "name": "deployedAIGTs",
      "outputs": [
        {
          "internalType": "address",
          "name": "",
          "type": "address"
        }
      ],
      "stateMutability": "view",
      "type": "function"
    },
    {
      "inputs": [],
      "name": "getDeployedAIGCs",
      "outputs": [
        {
          "internalType": "address[]",
          "name": "",
          "type": "address[]"
        }
      ],
      "stateMutability": "view",
      "type": "function"
    },
    {
      "inputs": [],
      "name": "modelIndexCurrent",
      "outputs": [
        {
          "internalType": "uint256",
          "name": "",
          "type": "uint256"
        }
      ],
      "stateMutability": "view",
      "type": "function"
    }
  ],
  "bytecode": "0x608060405234801561001057600080fd5b506165b9806100206000396000f3fe60806040523480156200001157600080fd5b50600436106200005e5760003560e01c806301f2f67b14620000635780630f3a0e3a14620000995780633656104914620000cf57806348bcb63114620000f157806364b213d11462000113575b600080fd5b6200008160048036038101906200007b9190620006c2565b62000149565b604051620000909190620007f0565b60405180910390f35b620000b76004803603810190620000b191906200080d565b620002f6565b604051620000c6919062000850565b60405180910390f35b620000d962000336565b604051620000e89190620007f0565b60405180910390f35b620000fb6200033c565b6040516200010a91906200093b565b60405180910390f35b6200013160048036038101906200012b91906200080d565b620003cc565b60405162000140919062000850565b60405180910390f35b6000806000548b8b8b33898960405162000163906200040c565b620001759796959493929190620009e8565b604051809103906000f08015801562000192573d6000803e3d6000fd5b509050600080548c8c848c8c8c8a604051620001ae906200041a565b620001c198979695949392919062000a95565b604051809103906000f080158015620001de573d6000803e3d6000fd5b5090506001819080600181540180825580915050600190039060005260206000200160009091909190916101000a81548173ffffffffffffffffffffffffffffffffffffffff021916908373ffffffffffffffffffffffffffffffffffffffff1602179055506002829080600181540180825580915050600190039060005260206000200160009091909190916101000a81548173ffffffffffffffffffffffffffffffffffffffff021916908373ffffffffffffffffffffffffffffffffffffffff1602179055507f89b4e42ad48b530e844746cbc0c0a63533ef6016579c4a268bd61f57afb7b0ae8183604051620002da92919062000b31565b60405180910390a1600054925050509998505050505050505050565b600281815481106200030757600080fd5b906000526020600020016000915054906101000a900473ffffffffffffffffffffffffffffffffffffffff1681565b60005481565b60606001805480602002602001604051908101604052809291908181526020018280548015620003c257602002820191906000526020600020905b8160009054906101000a900473ffffffffffffffffffffffffffffffffffffffff1673ffffffffffffffffffffffffffffffffffffffff168152602001906001019080831162000377575b5050505050905090565b60018181548110620003dd57600080fd5b906000526020600020016000915054906101000a900473ffffffffffffffffffffffffffffffffffffffff1681565b6122568062000b5f83390190565b6137cf8062002db583390190565b6000604051905090565b600080fd5b600080fd5b600080fd5b600080fd5b6000601f19601f8301169050919050565b7f4e487b7100000000000000000000000000000000000000000000000000000000600052604160045260246000fd5b620004918262000446565b810181811067ffffffffffffffff82111715620004b357620004b262000457565b5b80604052505050565b6000620004c862000428565b9050620004d6828262000486565b919050565b600067ffffffffffffffff821115620004f957620004f862000457565b5b620005048262000446565b9050602081019050919050565b82818337600083830152505050565b6000620005376200053184620004db565b620004bc565b90508281526020810184848401111562000556576200055562000441565b5b6200056384828562000511565b509392505050565b600082601f8301126200058357620005826200043c565b5b81356200059584826020860162000520565b91505092915050565b6000819050919050565b620005b3816200059e565b8114620005bf57600080fd5b50565b600081359050620005d381620005a8565b92915050565b6000819050919050565b620005ee81620005d9565b8114620005fa57600080fd5b50565b6000813590506200060e81620005e3565b92915050565b600073ffffffffffffffffffffffffffffffffffffffff82169050919050565b6000620006418262000614565b9050919050565b620006538162000634565b81146200065f57600080fd5b50565b600081359050620006738162000648565b92915050565b60006bffffffffffffffffffffffff82169050919050565b6200069c8162000679565b8114620006a857600080fd5b50565b600081359050620006bc8162000691565b92915050565b60008060008060008060008060006101208a8c031215620006e857620006e762000432565b5b60008a013567ffffffffffffffff81111562000709576200070862000437565b5b620007178c828d016200056b565b99505060208a013567ffffffffffffffff8111156200073b576200073a62000437565b5b620007498c828d016200056b565b98505060406200075c8c828d01620005c2565b97505060606200076f8c828d01620005c2565b9650506080620007828c828d01620005fd565b95505060a0620007958c828d0162000662565b94505060c0620007a88c828d01620005c2565b93505060e0620007bb8c828d01620005c2565b925050610100620007cf8c828d01620006ab565b9150509295985092959850929598565b620007ea816200059e565b82525050565b6000602082019050620008076000830184620007df565b92915050565b60006020828403121562000826576200082562000432565b5b60006200083684828501620005c2565b91505092915050565b6200084a8162000634565b82525050565b60006020820190506200086760008301846200083f565b92915050565b600081519050919050565b600082825260208201905092915050565b6000819050602082019050919050565b620008a48162000634565b82525050565b6000620008b8838362000899565b60208301905092915050565b6000602082019050919050565b6000620008de826200086d565b620008ea818562000878565b9350620008f78362000889565b8060005b838110156200092e578151620009128882620008aa565b97506200091f83620008c4565b925050600181019050620008fb565b5085935050505092915050565b60006020820190508181036000830152620009578184620008d1565b905092915050565b600081519050919050565b600082825260208201905092915050565b60005b838110156200099b5780820151818401526020810190506200097e565b60008484015250505050565b6000620009b4826200095f565b620009c081856200096a565b9350620009d28185602086016200097b565b620009dd8162000446565b840191505092915050565b600060e082019050620009ff600083018a620007df565b818103602083015262000a138189620009a7565b9050818103604083015262000a298188620009a7565b905062000a3a6060830187620007df565b62000a4960808301866200083f565b62000a5860a0830185620007df565b62000a6760c0830184620007df565b98975050505050505050565b62000a7e81620005d9565b82525050565b62000a8f8162000679565b82525050565b60006101008201905062000aad600083018b620007df565b818103602083015262000ac1818a620009a7565b9050818103604083015262000ad78189620009a7565b905062000ae860608301886200083f565b62000af76080830187620007df565b62000b0660a083018662000a73565b62000b1560c08301856200083f565b62000b2460e083018462000a84565b9998505050505050505050565b600060408201905062000b4860008301856200083f565b62000b5760208301846200083f565b939250505056fe60806040523480156200001157600080fd5b5060405162002256380380620022568339818101604052810190620000379190620006ec565b82868681600390816200004b919062000a1e565b5080600490816200005d919062000a1e565b505050600073ffffffffffffffffffffffffffffffffffffffff168173ffffffffffffffffffffffffffffffffffffffff1603620000d55760006040517f1e4fbdf7000000000000000000000000000000000000000000000000000000008152600401620000cc919062000b16565b60405180910390fd5b620000e6816200013660201b60201c565b5086600681905550836007819055508160088190555062000129836064838562000111919062000b62565b6200011d919062000bdc565b620001fc60201b60201c565b5050505050505062000cba565b6000600560009054906101000a900473ffffffffffffffffffffffffffffffffffffffff16905081600560006101000a81548173ffffffffffffffffffffffffffffffffffffffff021916908373ffffffffffffffffffffffffffffffffffffffff1602179055508173ffffffffffffffffffffffffffffffffffffffff168173ffffffffffffffffffffffffffffffffffffffff167f8be0079c531659141344cd1fd0a4f28419497f9722a3daafe3b4186f6b6457e060405160405180910390a35050565b600073ffffffffffffffffffffffffffffffffffffffff168273ffffffffffffffffffffffffffffffffffffffff1603620002715760006040517fec442f0500000000000000000000000000000000000000000000000000000000815260040162000268919062000b16565b60405180910390fd5b62000285600083836200028960201b60201c565b5050565b600073ffffffffffffffffffffffffffffffffffffffff168373ffffffffffffffffffffffffffffffffffffffff1603620002df578060026000828254620002d2919062000c14565b92505081905550620003b5565b60008060008573ffffffffffffffffffffffffffffffffffffffff1673ffffffffffffffffffffffffffffffffffffffff168152602001908152602001600020549050818110156200036e578381836040517fe450d38c000000000000000000000000000000000000000000000000000000008152600401620003659392919062000c60565b60405180910390fd5b8181036000808673ffffffffffffffffffffffffffffffffffffffff1673ffffffffffffffffffffffffffffffffffffffff16815260200190815260200160002081905550505b600073ffffffffffffffffffffffffffffffffffffffff168273ffffffffffffffffffffffffffffffffffffffff16036200040057806002600082825403925050819055506200044d565b806000808473ffffffffffffffffffffffffffffffffffffffff1673ffffffffffffffffffffffffffffffffffffffff168152602001908152602001600020600082825401925050819055505b8173ffffffffffffffffffffffffffffffffffffffff168373ffffffffffffffffffffffffffffffffffffffff167fddf252ad1be2c89b69c2b068fc378daa952ba7f163c4a11628f55a4df523b3ef83604051620004ac919062000c9d565b60405180910390a3505050565b6000604051905090565b600080fd5b600080fd5b6000819050919050565b620004e281620004cd565b8114620004ee57600080fd5b50565b6000815190506200050281620004d7565b92915050565b600080fd5b600080fd5b6000601f19601f8301169050919050565b7f4e487b7100000000000000000000000000000000000000000000000000000000600052604160045260246000fd5b6200055d8262000512565b810181811067ffffffffffffffff821117156200057f576200057e62000523565b5b80604052505050565b600062000594620004b9565b9050620005a2828262000552565b919050565b600067ffffffffffffffff821115620005c557620005c462000523565b5b620005d08262000512565b9050602081019050919050565b60005b83811015620005fd578082015181840152602081019050620005e0565b60008484015250505050565b6000620006206200061a84620005a7565b62000588565b9050828152602081018484840111156200063f576200063e6200050d565b5b6200064c848285620005dd565b509392505050565b600082601f8301126200066c576200066b62000508565b5b81516200067e84826020860162000609565b91505092915050565b600073ffffffffffffffffffffffffffffffffffffffff82169050919050565b6000620006b48262000687565b9050919050565b620006c681620006a7565b8114620006d257600080fd5b50565b600081519050620006e681620006bb565b92915050565b600080600080600080600060e0888a0312156200070e576200070d620004c3565b5b60006200071e8a828b01620004f1565b975050602088015167ffffffffffffffff811115620007425762000741620004c8565b5b620007508a828b0162000654565b965050604088015167ffffffffffffffff811115620007745762000773620004c8565b5b620007828a828b0162000654565b9550506060620007958a828b01620004f1565b9450506080620007a88a828b01620006d5565b93505060a0620007bb8a828b01620004f1565b92505060c0620007ce8a828b01620004f1565b91505092959891949750929550565b600081519050919050565b7f4e487b7100000000000000000000000000000000000000000000000000000000600052602260045260246000fd5b600060028204905060018216806200083057607f821691505b602082108103620008465762000845620007e8565b5b50919050565b60008190508160005260206000209050919050565b60006020601f8301049050919050565b600082821b905092915050565b600060088302620008b07fffffffffffffffffffffffffffffffffffffffffffffffffffffffffffffffff8262000871565b620008bc868362000871565b95508019841693508086168417925050509392505050565b6000819050919050565b6000620008ff620008f9620008f384620004cd565b620008d4565b620004cd565b9050919050565b6000819050919050565b6200091b83620008de565b620009336200092a8262000906565b8484546200087e565b825550505050565b600090565b6200094a6200093b565b6200095781848462000910565b505050565b5b818110156200097f576200097360008262000940565b6001810190506200095d565b5050565b601f821115620009ce5762000998816200084c565b620009a38462000861565b81016020851015620009b3578190505b620009cb620009c28562000861565b8301826200095c565b50505b505050565b600082821c905092915050565b6000620009f360001984600802620009d3565b1980831691505092915050565b600062000a0e8383620009e0565b9150826002028217905092915050565b62000a2982620007dd565b67ffffffffffffffff81111562000a455762000a4462000523565b5b62000a51825462000817565b62000a5e82828562000983565b600060209050601f83116001811462000a96576000841562000a81578287015190505b62000a8d858262000a00565b86555062000afd565b601f19841662000aa6866200084c565b60005b8281101562000ad05784890151825560018201915060208501945060208101905062000aa9565b8683101562000af0578489015162000aec601f891682620009e0565b8355505b6001600288020188555050505b505050505050565b62000b1081620006a7565b82525050565b600060208201905062000b2d600083018462000b05565b92915050565b7f4e487b7100000000000000000000000000000000000000000000000000000000600052601160045260246000fd5b600062000b6f82620004cd565b915062000b7c83620004cd565b925082820262000b8c81620004cd565b9150828204841483151762000ba65762000ba562000b33565b5b5092915050565b7f4e487b7100000000000000000000000000000000000000000000000000000000600052601260045260246000fd5b600062000be982620004cd565b915062000bf683620004cd565b92508262000c095762000c0862000bad565b5b828204905092915050565b600062000c2182620004cd565b915062000c2e83620004cd565b925082820190508082111562000c495762000c4862000b33565b5b92915050565b62000c5a81620004cd565b82525050565b600060608201905062000c77600083018662000b05565b62000c86602083018562000c4f565b62000c95604083018462000c4f565b949350505050565b600060208201905062000cb4600083018462000c4f565b92915050565b61158c8062000cca6000396000f3fe6080604052600436106101145760003560e01c806375298734116100a0578063a9059cbb11610064578063a9059cbb14610372578063d5abeb01146103af578063dd62ed3e146103da578063df218bd114610417578063f2fde38b1461044257610114565b806375298734146102aa5780637ff9b596146102d55780638da5cb5b1461030057806395d89b411461032b578063a0712d681461035657610114565b8063313ce567116100e7578063313ce567146101e95780633ccfd60b14610214578063608193c31461022b57806370a0823114610256578063715018a61461029357610114565b806306fdde0314610119578063095ea7b31461014457806318160ddd1461018157806323b872dd146101ac575b600080fd5b34801561012557600080fd5b5061012e61046b565b60405161013b91906110a5565b60405180910390f35b34801561015057600080fd5b5061016b60048036038101906101669190611160565b6104fd565b60405161017891906111bb565b60405180910390f35b34801561018d57600080fd5b50610196610520565b6040516101a391906111e5565b60405180910390f35b3480156101b857600080fd5b506101d360048036038101906101ce9190611200565b61052a565b6040516101e091906111bb565b60405180910390f35b3480156101f557600080fd5b506101fe610559565b60405161020b919061126f565b60405180910390f35b34801561022057600080fd5b50610229610562565b005b34801561023757600080fd5b506102406105ba565b60405161024d91906111e5565b60405180910390f35b34801561026257600080fd5b5061027d6004803603810190610278919061128a565b6105c4565b60405161028a91906111e5565b60405180910390f35b34801561029f57600080fd5b506102a861060c565b005b3480156102b657600080fd5b506102bf610620565b6040516102cc91906111e5565b60405180910390f35b3480156102e157600080fd5b506102ea61064e565b6040516102f791906111e5565b60405180910390f35b34801561030c57600080fd5b50610315610654565b60405161032291906112c6565b60405180910390f35b34801561033757600080fd5b5061034061067e565b60405161034d91906110a5565b60405180910390f35b610370600480360381019061036b91906112e1565b610710565b005b34801561037e57600080fd5b5061039960048036038101906103949190611160565b61076c565b6040516103a691906111bb565b60405180910390f35b3480156103bb57600080fd5b506103c461078f565b6040516103d191906111e5565b60405180910390f35b3480156103e657600080fd5b5061040160048036038101906103fc919061130e565b610795565b60405161040e91906111e5565b60405180910390f35b34801561042357600080fd5b5061042c61081c565b60405161043991906111e5565b60405180910390f35b34801561044e57600080fd5b506104696004803603810190610464919061128a565b610822565b005b60606003805461047a9061137d565b80601f01602080910402602001604051908101604052809291908181526020018280546104a69061137d565b80156104f35780601f106104c8576101008083540402835291602001916104f3565b820191906000526020600020905b8154815290600101906020018083116104d657829003601f168201915b5050505050905090565b6000806105086108a8565b90506105158185856108b0565b600191505092915050565b6000600254905090565b6000806105356108a8565b90506105428582856108c2565b61054d858585610956565b60019150509392505050565b60006012905090565b61056a610a4a565b610572610654565b73ffffffffffffffffffffffffffffffffffffffff166108fc479081150290604051600060405180830381858888f193505050501580156105b7573d6000803e3d6000fd5b50565b6000600654905090565b60008060008373ffffffffffffffffffffffffffffffffffffffff1673ffffffffffffffffffffffffffffffffffffffff168152602001908152602001600020549050919050565b610614610a4a565b61061e6000610ad1565b565b600061062a610520565b6064610635336105c4565b61063f91906113dd565b610649919061144e565b905090565b60075481565b6000600560009054906101000a900473ffffffffffffffffffffffffffffffffffffffff16905090565b60606004805461068d9061137d565b80601f01602080910402602001604051908101604052809291908181526020018280546106b99061137d565b80156107065780601f106106db57610100808354040283529160200191610706565b820191906000526020600020905b8154815290600101906020018083116106e957829003601f168201915b5050505050905090565b6007548161071e91906113dd565b341461075f576040517f08c379a0000000000000000000000000000000000000000000000000000000008152600401610756906114cb565b60405180910390fd5b6107693382610b97565b50565b6000806107776108a8565b9050610784818585610956565b600191505092915050565b60085481565b6000600160008473ffffffffffffffffffffffffffffffffffffffff1673ffffffffffffffffffffffffffffffffffffffff16815260200190815260200160002060008373ffffffffffffffffffffffffffffffffffffffff1673ffffffffffffffffffffffffffffffffffffffff16815260200190815260200160002054905092915050565b60065481565b61082a610a4a565b600073ffffffffffffffffffffffffffffffffffffffff168173ffffffffffffffffffffffffffffffffffffffff160361089c5760006040517f1e4fbdf700000000000000000000000000000000000000000000000000000000815260040161089391906112c6565b60405180910390fd5b6108a581610ad1565b50565b600033905090565b6108bd8383836001610c19565b505050565b60006108ce8484610795565b90507fffffffffffffffffffffffffffffffffffffffffffffffffffffffffffffffff81146109505781811015610940578281836040517ffb8f41b2000000000000000000000000000000000000000000000000000000008152600401610937939291906114eb565b60405180910390fd5b61094f84848484036000610c19565b5b50505050565b600073ffffffffffffffffffffffffffffffffffffffff168373ffffffffffffffffffffffffffffffffffffffff16036109c85760006040517f96c6fd1e0000000000000000000000000000000000000000000000000000000081526004016109bf91906112c6565b60405180910390fd5b600073ffffffffffffffffffffffffffffffffffffffff168273ffffffffffffffffffffffffffffffffffffffff1603610a3a5760006040517fec442f05000000000000000000000000000000000000000000000000000000008152600401610a3191906112c6565b60405180910390fd5b610a45838383610df0565b505050565b610a526108a8565b73ffffffffffffffffffffffffffffffffffffffff16610a70610654565b73ffffffffffffffffffffffffffffffffffffffff1614610acf57610a936108a8565b6040517f118cdaa7000000000000000000000000000000000000000000000000000000008152600401610ac691906112c6565b60405180910390fd5b565b6000600560009054906101000a900473ffffffffffffffffffffffffffffffffffffffff16905081600560006101000a81548173ffffffffffffffffffffffffffffffffffffffff021916908373ffffffffffffffffffffffffffffffffffffffff1602179055508173ffffffffffffffffffffffffffffffffffffffff168173ffffffffffffffffffffffffffffffffffffffff167f8be0079c531659141344cd1fd0a4f28419497f9722a3daafe3b4186f6b6457e060405160405180910390a35050565b600073ffffffffffffffffffffffffffffffffffffffff168273ffffffffffffffffffffffffffffffffffffffff1603610c095760006040517fec442f05000000000000000000000000000000000000000000000000000000008152600401610c0091906112c6565b60405180910390fd5b610c1560008383610df0565b5050565b600073ffffffffffffffffffffffffffffffffffffffff168473ffffffffffffffffffffffffffffffffffffffff1603610c8b5760006040517fe602df05000000000000000000000000000000000000000000000000000000008152600401610c8291906112c6565b60405180910390fd5b600073ffffffffffffffffffffffffffffffffffffffff168373ffffffffffffffffffffffffffffffffffffffff1603610cfd5760006040517f94280d62000000000000000000000000000000000000000000000000000000008152600401610cf491906112c6565b60405180910390fd5b81600160008673ffffffffffffffffffffffffffffffffffffffff1673ffffffffffffffffffffffffffffffffffffffff16815260200190815260200160002060008573ffffffffffffffffffffffffffffffffffffffff1673ffffffffffffffffffffffffffffffffffffffff168152602001908152602001600020819055508015610dea578273ffffffffffffffffffffffffffffffffffffffff168473ffffffffffffffffffffffffffffffffffffffff167f8c5be1e5ebec7d5bd14f71427d1e84f3dd0314c0f7b2291e5b200ac8c7c3b92584604051610de191906111e5565b60405180910390a35b50505050565b600073ffffffffffffffffffffffffffffffffffffffff168373ffffffffffffffffffffffffffffffffffffffff1603610e42578060026000828254610e369190611522565b92505081905550610f15565b60008060008573ffffffffffffffffffffffffffffffffffffffff1673ffffffffffffffffffffffffffffffffffffffff16815260200190815260200160002054905081811015610ece578381836040517fe450d38c000000000000000000000000000000000000000000000000000000008152600401610ec5939291906114eb565b60405180910390fd5b8181036000808673ffffffffffffffffffffffffffffffffffffffff1673ffffffffffffffffffffffffffffffffffffffff16815260200190815260200160002081905550505b600073ffffffffffffffffffffffffffffffffffffffff168273ffffffffffffffffffffffffffffffffffffffff1603610f5e5780600260008282540392505081905550610fab565b806000808473ffffffffffffffffffffffffffffffffffffffff1673ffffffffffffffffffffffffffffffffffffffff168152602001908152602001600020600082825401925050819055505b8173ffffffffffffffffffffffffffffffffffffffff168373ffffffffffffffffffffffffffffffffffffffff167fddf252ad1be2c89b69c2b068fc378daa952ba7f163c4a11628f55a4df523b3ef8360405161100891906111e5565b60405180910390a3505050565b600081519050919050565b600082825260208201905092915050565b60005b8381101561104f578082015181840152602081019050611034565b60008484015250505050565b6000601f19601f8301169050919050565b600061107782611015565b6110818185611020565b9350611091818560208601611031565b61109a8161105b565b840191505092915050565b600060208201905081810360008301526110bf818461106c565b905092915050565b600080fd5b600073ffffffffffffffffffffffffffffffffffffffff82169050919050565b60006110f7826110cc565b9050919050565b611107816110ec565b811461111257600080fd5b50565b600081359050611124816110fe565b92915050565b6000819050919050565b61113d8161112a565b811461114857600080fd5b50565b60008135905061115a81611134565b92915050565b60008060408385031215611177576111766110c7565b5b600061118585828601611115565b92505060206111968582860161114b565b9150509250929050565b60008115159050919050565b6111b5816111a0565b82525050565b60006020820190506111d060008301846111ac565b92915050565b6111df8161112a565b82525050565b60006020820190506111fa60008301846111d6565b92915050565b600080600060608486031215611219576112186110c7565b5b600061122786828701611115565b935050602061123886828701611115565b92505060406112498682870161114b565b9150509250925092565b600060ff82169050919050565b61126981611253565b82525050565b60006020820190506112846000830184611260565b92915050565b6000602082840312156112a05761129f6110c7565b5b60006112ae84828501611115565b91505092915050565b6112c0816110ec565b82525050565b60006020820190506112db60008301846112b7565b92915050565b6000602082840312156112f7576112f66110c7565b5b60006113058482850161114b565b91505092915050565b60008060408385031215611325576113246110c7565b5b600061133385828601611115565b925050602061134485828601611115565b9150509250929050565b7f4e487b7100000000000000000000000000000000000000000000000000000000600052602260045260246000fd5b6000600282049050600182168061139557607f821691505b6020821081036113a8576113a761134e565b5b50919050565b7f4e487b7100000000000000000000000000000000000000000000000000000000600052601160045260246000fd5b60006113e88261112a565b91506113f38361112a565b92508282026114018161112a565b91508282048414831517611418576114176113ae565b5b5092915050565b7f4e487b7100000000000000000000000000000000000000000000000000000000600052601260045260246000fd5b60006114598261112a565b91506114648361112a565b9250826114745761147361141f565b5b828204905092915050565b7f4e6f7420656e6f7567682065746820746f206d696e7420746f6b656e00000000600082015250565b60006114b5601c83611020565b91506114c08261147f565b602082019050919050565b600060208201905081810360008301526114e4816114a8565b9050919050565b600060608201905061150060008301866112b7565b61150d60208301856111d6565b61151a60408301846111d6565b949350505050565b600061152d8261112a565b91506115388361112a565b92508282019050808211156115505761154f6113ae565b5b9291505056fea2646970667358221220454b588953951eb5c4cc7aa1d2d3343bca1c100b5188678292556f7a9269345364736f6c6343000814003360806040523480156200001157600080fd5b50604051620037cf380380620037cf833981810160405281019062000037919062000586565b868681600290816200004a9190620008ce565b5080600390816200005c9190620008ce565b50505084600c60006101000a81548173ffffffffffffffffffffffffffffffffffffffff021916908373ffffffffffffffffffffffffffffffffffffffff1602179055508760098190555083600b8190555082600d8190555081600e60006101000a81548173ffffffffffffffffffffffffffffffffffffffff021916908373ffffffffffffffffffffffffffffffffffffffff1602179055506200010885826200011660201b60201c565b505050505050505062000a5a565b600062000128620002c560201b60201c565b6bffffffffffffffffffffffff16905080826bffffffffffffffffffffffff161115620001905781816040517f6f483d0900000000000000000000000000000000000000000000000000000000815260040162000187929190620009ff565b60405180910390fd5b600073ffffffffffffffffffffffffffffffffffffffff168373ffffffffffffffffffffffffffffffffffffffff1603620002055760006040517fb6d9900a000000000000000000000000000000000000000000000000000000008152600401620001fc919062000a3d565b60405180910390fd5b60405180604001604052808473ffffffffffffffffffffffffffffffffffffffff168152602001836bffffffffffffffffffffffff168152506000808201518160000160006101000a81548173ffffffffffffffffffffffffffffffffffffffff021916908373ffffffffffffffffffffffffffffffffffffffff16021790555060208201518160000160146101000a8154816bffffffffffffffffffffffff02191690836bffffffffffffffffffffffff160217905550905050505050565b6000612710905090565b6000604051905090565b600080fd5b600080fd5b6000819050919050565b620002f881620002e3565b81146200030457600080fd5b50565b6000815190506200031881620002ed565b92915050565b600080fd5b600080fd5b6000601f19601f8301169050919050565b7f4e487b7100000000000000000000000000000000000000000000000000000000600052604160045260246000fd5b620003738262000328565b810181811067ffffffffffffffff8211171562000395576200039462000339565b5b80604052505050565b6000620003aa620002cf565b9050620003b8828262000368565b919050565b600067ffffffffffffffff821115620003db57620003da62000339565b5b620003e68262000328565b9050602081019050919050565b60005b8381101562000413578082015181840152602081019050620003f6565b60008484015250505050565b6000620004366200043084620003bd565b6200039e565b90508281526020810184848401111562000455576200045462000323565b5b62000462848285620003f3565b509392505050565b600082601f8301126200048257620004816200031e565b5b8151620004948482602086016200041f565b91505092915050565b600073ffffffffffffffffffffffffffffffffffffffff82169050919050565b6000620004ca826200049d565b9050919050565b620004dc81620004bd565b8114620004e857600080fd5b50565b600081519050620004fc81620004d1565b92915050565b6000819050919050565b620005178162000502565b81146200052357600080fd5b50565b60008151905062000537816200050c565b92915050565b60006bffffffffffffffffffffffff82169050919050565b62000560816200053d565b81146200056c57600080fd5b50565b600081519050620005808162000555565b92915050565b600080600080600080600080610100898b031215620005aa57620005a9620002d9565b5b6000620005ba8b828c0162000307565b985050602089015167ffffffffffffffff811115620005de57620005dd620002de565b5b620005ec8b828c016200046a565b975050604089015167ffffffffffffffff81111562000610576200060f620002de565b5b6200061e8b828c016200046a565b9650506060620006318b828c01620004eb565b9550506080620006448b828c0162000307565b94505060a0620006578b828c0162000526565b93505060c06200066a8b828c01620004eb565b92505060e06200067d8b828c016200056f565b9150509295985092959890939650565b600081519050919050565b7f4e487b7100000000000000000000000000000000000000000000000000000000600052602260045260246000fd5b60006002820490506001821680620006e057607f821691505b602082108103620006f657620006f562000698565b5b50919050565b60008190508160005260206000209050919050565b60006020601f8301049050919050565b600082821b905092915050565b600060088302620007607fffffffffffffffffffffffffffffffffffffffffffffffffffffffffffffffff8262000721565b6200076c868362000721565b95508019841693508086168417925050509392505050565b6000819050919050565b6000620007af620007a9620007a384620002e3565b62000784565b620002e3565b9050919050565b6000819050919050565b620007cb836200078e565b620007e3620007da82620007b6565b8484546200072e565b825550505050565b600090565b620007fa620007eb565b62000807818484620007c0565b505050565b5b818110156200082f5762000823600082620007f0565b6001810190506200080d565b5050565b601f8211156200087e576200084881620006fc565b620008538462000711565b8101602085101562000863578190505b6200087b620008728562000711565b8301826200080c565b50505b505050565b600082821c905092915050565b6000620008a36000198460080262000883565b1980831691505092915050565b6000620008be838362000890565b9150826002028217905092915050565b620008d9826200068d565b67ffffffffffffffff811115620008f557620008f462000339565b5b620009018254620006c7565b6200090e82828562000833565b600060209050601f83116001811462000946576000841562000931578287015190505b6200093d8582620008b0565b865550620009ad565b601f1984166200095686620006fc565b60005b82811015620009805784890151825560018201915060208501945060208101905062000959565b86831015620009a057848901516200099c601f89168262000890565b8355505b6001600288020188555050505b505050505050565b6000620009d6620009d0620009ca846200053d565b62000784565b620002e3565b9050919050565b620009e881620009b5565b82525050565b620009f981620002e3565b82525050565b600060408201905062000a166000830185620009dd565b62000a256020830184620009ee565b9392505050565b62000a3781620004bd565b82525050565b600060208201905062000a54600083018462000a2c565b92915050565b612d658062000a6a6000396000f3fe608060405234801561001057600080fd5b506004361061014d5760003560e01c80636352211e116100c3578063b88d4fde1161007c578063b88d4fde146103b5578063c87b56dd146103d1578063d632265d14610401578063df218bd11461041d578063e985e9c51461043b578063fc0c546a1461046b5761014d565b80636352211e146102cd57806370a08231146102fd57806374a349d21461032d5780638753367f1461034b57806395d89b411461037b578063a22cb465146103995761014d565b806317d70f7c1161011557806317d70f7c1461020a57806323b872dd146102285780632a55205a146102445780632f03012e1461027557806342842e0e14610293578063608193c3146102af5761014d565b806301ffc9a71461015257806306fdde0314610182578063081812fc146101a0578063095ea7b3146101d057806312986513146101ec575b600080fd5b61016c60048036038101906101679190611ef9565b610489565b6040516101799190611f41565b60405180910390f35b61018a61049b565b6040516101979190611fec565b60405180910390f35b6101ba60048036038101906101b59190612044565b61052d565b6040516101c791906120b2565b60405180910390f35b6101ea60048036038101906101e591906120f9565b610549565b005b6101f461055f565b6040516102019190612152565b60405180910390f35b610212610565565b60405161021f919061217c565b60405180910390f35b610242600480360381019061023d9190612197565b61056b565b005b61025e600480360381019061025991906121ea565b61066d565b60405161026c92919061222a565b60405180910390f35b61027d610857565b60405161028a91906122b2565b60405180910390f35b6102ad60048036038101906102a89190612197565b61087d565b005b6102b761089d565b6040516102c4919061217c565b60405180910390f35b6102e760048036038101906102e29190612044565b6108a7565b6040516102f491906120b2565b60405180910390f35b610317600480360381019061031291906122cd565b6108b9565b604051610324919061217c565b60405180910390f35b610335610973565b604051610342919061217c565b60405180910390f35b61036560048036038101906103609190612044565b610979565b6040516103729190611f41565b60405180910390f35b610383610a33565b6040516103909190611fec565b60405180910390f35b6103b360048036038101906103ae9190612326565b610ac5565b005b6103cf60048036038101906103ca919061249b565b610adb565b005b6103eb60048036038101906103e69190612044565b610af8565b6040516103f89190611fec565b60405180910390f35b61041b600480360381019061041691906125eb565b610b0a565b005b610425610ca1565b604051610432919061217c565b60405180910390f35b6104556004803603810190610450919061265a565b610ca7565b6040516104629190611f41565b60405180910390f35b610473610d3b565b60405161048091906126bb565b60405180910390f35b600061049482610d61565b9050919050565b6060600280546104aa90612705565b80601f01602080910402602001604051908101604052809291908181526020018280546104d690612705565b80156105235780601f106104f857610100808354040283529160200191610523565b820191906000526020600020905b81548152906001019060200180831161050657829003601f168201915b5050505050905090565b600061053882610d73565b5061054282610dfb565b9050919050565b61055b8282610556610e38565b610e40565b5050565b600d5481565b600a5481565b600073ffffffffffffffffffffffffffffffffffffffff168273ffffffffffffffffffffffffffffffffffffffff16036105dd5760006040517f64a0ae920000000000000000000000000000000000000000000000000000000081526004016105d491906120b2565b60405180910390fd5b60006105f183836105ec610e38565b610e52565b90508373ffffffffffffffffffffffffffffffffffffffff168173ffffffffffffffffffffffffffffffffffffffff1614610667578382826040517f64283d7b00000000000000000000000000000000000000000000000000000000815260040161065e93929190612736565b60405180910390fd5b50505050565b6000806000600160008681526020019081526020016000206040518060400160405290816000820160009054906101000a900473ffffffffffffffffffffffffffffffffffffffff1673ffffffffffffffffffffffffffffffffffffffff1673ffffffffffffffffffffffffffffffffffffffff1681526020016000820160149054906101000a90046bffffffffffffffffffffffff166bffffffffffffffffffffffff166bffffffffffffffffffffffff16815250509050600073ffffffffffffffffffffffffffffffffffffffff16816000015173ffffffffffffffffffffffffffffffffffffffff16036108025760006040518060400160405290816000820160009054906101000a900473ffffffffffffffffffffffffffffffffffffffff1673ffffffffffffffffffffffffffffffffffffffff1673ffffffffffffffffffffffffffffffffffffffff1681526020016000820160149054906101000a90046bffffffffffffffffffffffff166bffffffffffffffffffffffff166bffffffffffffffffffffffff168152505090505b600061080c61106c565b6bffffffffffffffffffffffff1682602001516bffffffffffffffffffffffff1686610838919061279c565b610842919061280d565b90508160000151819350935050509250929050565b600e60009054906101000a900473ffffffffffffffffffffffffffffffffffffffff1681565b61089883838360405180602001604052806000815250610adb565b505050565b6000600954905090565b60006108b282610d73565b9050919050565b60008073ffffffffffffffffffffffffffffffffffffffff168273ffffffffffffffffffffffffffffffffffffffff160361092c5760006040517f89c62b6400000000000000000000000000000000000000000000000000000000815260040161092391906120b2565b60405180910390fd5b600560008373ffffffffffffffffffffffffffffffffffffffff1673ffffffffffffffffffffffffffffffffffffffff168152602001908152602001600020549050919050565b600b5481565b6000600e60009054906101000a900473ffffffffffffffffffffffffffffffffffffffff1673ffffffffffffffffffffffffffffffffffffffff166333727c4d600f6000858152602001908152602001600020546040518263ffffffff1660e01b81526004016109e9919061217c565b6020604051808303816000875af1158015610a08573d6000803e3d6000fd5b505050506040513d601f19601f82011682018060405250810190610a2c9190612853565b9050919050565b606060038054610a4290612705565b80601f0160208091040260200160405190810160405280929190818152602001828054610a6e90612705565b8015610abb5780601f10610a9057610100808354040283529160200191610abb565b820191906000526020600020905b815481529060010190602001808311610a9e57829003601f168201915b5050505050905090565b610ad7610ad0610e38565b8383611076565b5050565b610ae684848461056b565b610af2848484846111e5565b50505050565b6060610b038261139c565b9050919050565b600c60009054906101000a900473ffffffffffffffffffffffffffffffffffffffff1673ffffffffffffffffffffffffffffffffffffffff166323b872dd3330600b546040518463ffffffff1660e01b8152600401610b6b93929190612880565b6020604051808303816000875af1158015610b8a573d6000803e3d6000fd5b505050506040513d601f19601f82011682018060405250810190610bae9190612853565b50610bbb33600a546114af565b610bc7600a54846114cd565b600e60009054906101000a900473ffffffffffffffffffffffffffffffffffffffff1673ffffffffffffffffffffffffffffffffffffffff16631aafb2be600d5484846040518463ffffffff1660e01b8152600401610c28939291906128b7565b6020604051808303816000875af1158015610c47573d6000803e3d6000fd5b505050506040513d601f19601f82011682018060405250810190610c6b9190612903565b600f6000600a54815260200190815260200160002081905550600a6000815480929190610c9790612930565b9190505550505050565b60095481565b6000600760008473ffffffffffffffffffffffffffffffffffffffff1673ffffffffffffffffffffffffffffffffffffffff16815260200190815260200160002060008373ffffffffffffffffffffffffffffffffffffffff1673ffffffffffffffffffffffffffffffffffffffff16815260200190815260200160002060009054906101000a900460ff16905092915050565b600c60009054906101000a900473ffffffffffffffffffffffffffffffffffffffff1681565b6000610d6c82611529565b9050919050565b600080610d7f8361158a565b9050600073ffffffffffffffffffffffffffffffffffffffff168173ffffffffffffffffffffffffffffffffffffffff1603610df257826040517f7e273289000000000000000000000000000000000000000000000000000000008152600401610de9919061217c565b60405180910390fd5b80915050919050565b60006006600083815260200190815260200160002060009054906101000a900473ffffffffffffffffffffffffffffffffffffffff169050919050565b600033905090565b610e4d83838360016115c7565b505050565b600080610e5e8461158a565b9050600073ffffffffffffffffffffffffffffffffffffffff168373ffffffffffffffffffffffffffffffffffffffff1614610ea057610e9f81848661178c565b5b600073ffffffffffffffffffffffffffffffffffffffff168173ffffffffffffffffffffffffffffffffffffffff1614610f3157610ee26000856000806115c7565b6001600560008373ffffffffffffffffffffffffffffffffffffffff1673ffffffffffffffffffffffffffffffffffffffff168152602001908152602001600020600082825403925050819055505b600073ffffffffffffffffffffffffffffffffffffffff168573ffffffffffffffffffffffffffffffffffffffff1614610fb4576001600560008773ffffffffffffffffffffffffffffffffffffffff1673ffffffffffffffffffffffffffffffffffffffff168152602001908152602001600020600082825401925050819055505b846004600086815260200190815260200160002060006101000a81548173ffffffffffffffffffffffffffffffffffffffff021916908373ffffffffffffffffffffffffffffffffffffffff160217905550838573ffffffffffffffffffffffffffffffffffffffff168273ffffffffffffffffffffffffffffffffffffffff167fddf252ad1be2c89b69c2b068fc378daa952ba7f163c4a11628f55a4df523b3ef60405160405180910390a4809150509392505050565b6000612710905090565b600073ffffffffffffffffffffffffffffffffffffffff168273ffffffffffffffffffffffffffffffffffffffff16036110e757816040517f5b08ba180000000000000000000000000000000000000000000000000000000081526004016110de91906120b2565b60405180910390fd5b80600760008573ffffffffffffffffffffffffffffffffffffffff1673ffffffffffffffffffffffffffffffffffffffff16815260200190815260200160002060008473ffffffffffffffffffffffffffffffffffffffff1673ffffffffffffffffffffffffffffffffffffffff16815260200190815260200160002060006101000a81548160ff0219169083151502179055508173ffffffffffffffffffffffffffffffffffffffff168373ffffffffffffffffffffffffffffffffffffffff167f17307eab39ab6107e8899845ad3d59bd9653f200f220920489ca2b5937696c31836040516111d89190611f41565b60405180910390a3505050565b60008373ffffffffffffffffffffffffffffffffffffffff163b1115611396578273ffffffffffffffffffffffffffffffffffffffff1663150b7a02611229610e38565b8685856040518563ffffffff1660e01b815260040161124b94939291906129cd565b6020604051808303816000875af192505050801561128757506040513d601f19601f820116820180604052508101906112849190612a2e565b60015b61130b573d80600081146112b7576040519150601f19603f3d011682016040523d82523d6000602084013e6112bc565b606091505b50600081510361130357836040517f64a0ae920000000000000000000000000000000000000000000000000000000081526004016112fa91906120b2565b60405180910390fd5b805181602001fd5b63150b7a0260e01b7bffffffffffffffffffffffffffffffffffffffffffffffffffffffff1916817bffffffffffffffffffffffffffffffffffffffffffffffffffffffff19161461139457836040517f64a0ae9200000000000000000000000000000000000000000000000000000000815260040161138b91906120b2565b60405180910390fd5b505b50505050565b60606113a782610d73565b5060006008600084815260200190815260200160002080546113c890612705565b80601f01602080910402602001604051908101604052809291908181526020018280546113f490612705565b80156114415780601f1061141657610100808354040283529160200191611441565b820191906000526020600020905b81548152906001019060200180831161142457829003601f168201915b505050505090506000611452611850565b905060008151036114675781925050506114aa565b60008251111561149c578082604051602001611484929190612a97565b604051602081830303815290604052925050506114aa565b6114a584611867565b925050505b919050565b6114c98282604051806020016040528060008152506118d0565b5050565b806008600084815260200190815260200160002090816114ed9190612c5d565b507ff8e1a15aba9398e019f0b49df1a4fde98ee17ae345cb5f6b5e2c27f5033e8ce78260405161151d919061217c565b60405180910390a15050565b6000634906490660e01b7bffffffffffffffffffffffffffffffffffffffffffffffffffffffff1916827bffffffffffffffffffffffffffffffffffffffffffffffffffffffff191614806115835750611582826118ec565b5b9050919050565b60006004600083815260200190815260200160002060009054906101000a900473ffffffffffffffffffffffffffffffffffffffff169050919050565b80806116005750600073ffffffffffffffffffffffffffffffffffffffff168273ffffffffffffffffffffffffffffffffffffffff1614155b1561173457600061161084610d73565b9050600073ffffffffffffffffffffffffffffffffffffffff168373ffffffffffffffffffffffffffffffffffffffff161415801561167b57508273ffffffffffffffffffffffffffffffffffffffff168173ffffffffffffffffffffffffffffffffffffffff1614155b801561168e575061168c8184610ca7565b155b156116d057826040517fa9fbf51f0000000000000000000000000000000000000000000000000000000081526004016116c791906120b2565b60405180910390fd5b811561173257838573ffffffffffffffffffffffffffffffffffffffff168273ffffffffffffffffffffffffffffffffffffffff167f8c5be1e5ebec7d5bd14f71427d1e84f3dd0314c0f7b2291e5b200ac8c7c3b92560405160405180910390a45b505b836006600085815260200190815260200160002060006101000a81548173ffffffffffffffffffffffffffffffffffffffff021916908373ffffffffffffffffffffffffffffffffffffffff16021790555050505050565b6117978383836119ce565b61184b57600073ffffffffffffffffffffffffffffffffffffffff168373ffffffffffffffffffffffffffffffffffffffff160361180c57806040517f7e273289000000000000000000000000000000000000000000000000000000008152600401611803919061217c565b60405180910390fd5b81816040517f177e802f00000000000000000000000000000000000000000000000000000000815260040161184292919061222a565b60405180910390fd5b505050565b606060405180602001604052806000815250905090565b606061187282610d73565b50600061187d611850565b9050600081511161189d57604051806020016040528060008152506118c8565b806118a784611a8f565b6040516020016118b8929190612a97565b6040516020818303038152906040525b915050919050565b6118da8383611b5d565b6118e760008484846111e5565b505050565b60007f80ac58cd000000000000000000000000000000000000000000000000000000007bffffffffffffffffffffffffffffffffffffffffffffffffffffffff1916827bffffffffffffffffffffffffffffffffffffffffffffffffffffffff191614806119b757507f5b5e139f000000000000000000000000000000000000000000000000000000007bffffffffffffffffffffffffffffffffffffffffffffffffffffffff1916827bffffffffffffffffffffffffffffffffffffffffffffffffffffffff1916145b806119c757506119c682611c56565b5b9050919050565b60008073ffffffffffffffffffffffffffffffffffffffff168373ffffffffffffffffffffffffffffffffffffffff1614158015611a8657508273ffffffffffffffffffffffffffffffffffffffff168473ffffffffffffffffffffffffffffffffffffffff161480611a475750611a468484610ca7565b5b80611a8557508273ffffffffffffffffffffffffffffffffffffffff16611a6d83610dfb565b73ffffffffffffffffffffffffffffffffffffffff16145b5b90509392505050565b606060006001611a9e84611cd0565b01905060008167ffffffffffffffff811115611abd57611abc612370565b5b6040519080825280601f01601f191660200182016040528015611aef5781602001600182028036833780820191505090505b509050600082602001820190505b600115611b52578080600190039150507f3031323334353637383961626364656600000000000000000000000000000000600a86061a8153600a8581611b4657611b456127de565b5b04945060008503611afd575b819350505050919050565b600073ffffffffffffffffffffffffffffffffffffffff168273ffffffffffffffffffffffffffffffffffffffff1603611bcf5760006040517f64a0ae92000000000000000000000000000000000000000000000000000000008152600401611bc691906120b2565b60405180910390fd5b6000611bdd83836000610e52565b9050600073ffffffffffffffffffffffffffffffffffffffff168173ffffffffffffffffffffffffffffffffffffffff1614611c515760006040517f73c6ac6e000000000000000000000000000000000000000000000000000000008152600401611c4891906120b2565b60405180910390fd5b505050565b60007f2a55205a000000000000000000000000000000000000000000000000000000007bffffffffffffffffffffffffffffffffffffffffffffffffffffffff1916827bffffffffffffffffffffffffffffffffffffffffffffffffffffffff19161480611cc95750611cc882611e23565b5b9050919050565b600080600090507a184f03e93ff9f4daa797ed6e38ed64bf6a1f0100000000000000008310611d2e577a184f03e93ff9f4daa797ed6e38ed64bf6a1f0100000000000000008381611d2457611d236127de565b5b0492506040810190505b6d04ee2d6d415b85acef81000000008310611d6b576d04ee2d6d415b85acef81000000008381611d6157611d606127de565b5b0492506020810190505b662386f26fc100008310611d9a57662386f26fc100008381611d9057611d8f6127de565b5b0492506010810190505b6305f5e1008310611dc3576305f5e1008381611db957611db86127de565b5b0492506008810190505b6127108310611de8576127108381611dde57611ddd6127de565b5b0492506004810190505b60648310611e0b5760648381611e0157611e006127de565b5b0492506002810190505b600a8310611e1a576001810190505b80915050919050565b60007f01ffc9a7000000000000000000000000000000000000000000000000000000007bffffffffffffffffffffffffffffffffffffffffffffffffffffffff1916827bffffffffffffffffffffffffffffffffffffffffffffffffffffffff1916149050919050565b6000604051905090565b600080fd5b600080fd5b60007fffffffff0000000000000000000000000000000000000000000000000000000082169050919050565b611ed681611ea1565b8114611ee157600080fd5b50565b600081359050611ef381611ecd565b92915050565b600060208284031215611f0f57611f0e611e97565b5b6000611f1d84828501611ee4565b91505092915050565b60008115159050919050565b611f3b81611f26565b82525050565b6000602082019050611f566000830184611f32565b92915050565b600081519050919050565b600082825260208201905092915050565b60005b83811015611f96578082015181840152602081019050611f7b565b60008484015250505050565b6000601f19601f8301169050919050565b6000611fbe82611f5c565b611fc88185611f67565b9350611fd8818560208601611f78565b611fe181611fa2565b840191505092915050565b600060208201905081810360008301526120068184611fb3565b905092915050565b6000819050919050565b6120218161200e565b811461202c57600080fd5b50565b60008135905061203e81612018565b92915050565b60006020828403121561205a57612059611e97565b5b60006120688482850161202f565b91505092915050565b600073ffffffffffffffffffffffffffffffffffffffff82169050919050565b600061209c82612071565b9050919050565b6120ac81612091565b82525050565b60006020820190506120c760008301846120a3565b92915050565b6120d681612091565b81146120e157600080fd5b50565b6000813590506120f3816120cd565b92915050565b600080604083850312156121105761210f611e97565b5b600061211e858286016120e4565b925050602061212f8582860161202f565b9150509250929050565b6000819050919050565b61214c81612139565b82525050565b60006020820190506121676000830184612143565b92915050565b6121768161200e565b82525050565b6000602082019050612191600083018461216d565b92915050565b6000806000606084860312156121b0576121af611e97565b5b60006121be868287016120e4565b93505060206121cf868287016120e4565b92505060406121e08682870161202f565b9150509250925092565b6000806040838503121561220157612200611e97565b5b600061220f8582860161202f565b92505060206122208582860161202f565b9150509250929050565b600060408201905061223f60008301856120a3565b61224c602083018461216d565b9392505050565b6000819050919050565b600061227861227361226e84612071565b612253565b612071565b9050919050565b600061228a8261225d565b9050919050565b600061229c8261227f565b9050919050565b6122ac81612291565b82525050565b60006020820190506122c760008301846122a3565b92915050565b6000602082840312156122e3576122e2611e97565b5b60006122f1848285016120e4565b91505092915050565b61230381611f26565b811461230e57600080fd5b50565b600081359050612320816122fa565b92915050565b6000806040838503121561233d5761233c611e97565b5b600061234b858286016120e4565b925050602061235c85828601612311565b9150509250929050565b600080fd5b600080fd5b7f4e487b7100000000000000000000000000000000000000000000000000000000600052604160045260246000fd5b6123a882611fa2565b810181811067ffffffffffffffff821117156123c7576123c6612370565b5b80604052505050565b60006123da611e8d565b90506123e6828261239f565b919050565b600067ffffffffffffffff82111561240657612405612370565b5b61240f82611fa2565b9050602081019050919050565b82818337600083830152505050565b600061243e612439846123eb565b6123d0565b90508281526020810184848401111561245a5761245961236b565b5b61246584828561241c565b509392505050565b600082601f83011261248257612481612366565b5b813561249284826020860161242b565b91505092915050565b600080600080608085870312156124b5576124b4611e97565b5b60006124c3878288016120e4565b94505060206124d4878288016120e4565b93505060406124e58782880161202f565b925050606085013567ffffffffffffffff81111561250657612505611e9c565b5b6125128782880161246d565b91505092959194509250565b600067ffffffffffffffff82111561253957612538612370565b5b61254282611fa2565b9050602081019050919050565b600061256261255d8461251e565b6123d0565b90508281526020810184848401111561257e5761257d61236b565b5b61258984828561241c565b509392505050565b600082601f8301126125a6576125a5612366565b5b81356125b684826020860161254f565b91505092915050565b6125c881612139565b81146125d357600080fd5b50565b6000813590506125e5816125bf565b92915050565b60008060006060848603121561260457612603611e97565b5b600084013567ffffffffffffffff81111561262257612621611e9c565b5b61262e86828701612591565b935050602061263f868287016125d6565b9250506040612650868287016125d6565b9150509250925092565b6000806040838503121561267157612670611e97565b5b600061267f858286016120e4565b9250506020612690858286016120e4565b9150509250929050565b60006126a58261227f565b9050919050565b6126b58161269a565b82525050565b60006020820190506126d060008301846126ac565b92915050565b7f4e487b7100000000000000000000000000000000000000000000000000000000600052602260045260246000fd5b6000600282049050600182168061271d57607f821691505b6020821081036127305761272f6126d6565b5b50919050565b600060608201905061274b60008301866120a3565b612758602083018561216d565b61276560408301846120a3565b949350505050565b7f4e487b7100000000000000000000000000000000000000000000000000000000600052601160045260246000fd5b60006127a78261200e565b91506127b28361200e565b92508282026127c08161200e565b915082820484148315176127d7576127d661276d565b5b5092915050565b7f4e487b7100000000000000000000000000000000000000000000000000000000600052601260045260246000fd5b60006128188261200e565b91506128238361200e565b925082612833576128326127de565b5b828204905092915050565b60008151905061284d816122fa565b92915050565b60006020828403121561286957612868611e97565b5b60006128778482850161283e565b91505092915050565b600060608201905061289560008301866120a3565b6128a260208301856120a3565b6128af604083018461216d565b949350505050565b60006060820190506128cc6000830186612143565b6128d96020830185612143565b6128e66040830184612143565b949350505050565b6000815190506128fd81612018565b92915050565b60006020828403121561291957612918611e97565b5b6000612927848285016128ee565b91505092915050565b600061293b8261200e565b91507fffffffffffffffffffffffffffffffffffffffffffffffffffffffffffffffff820361296d5761296c61276d565b5b600182019050919050565b600081519050919050565b600082825260208201905092915050565b600061299f82612978565b6129a98185612983565b93506129b9818560208601611f78565b6129c281611fa2565b840191505092915050565b60006080820190506129e260008301876120a3565b6129ef60208301866120a3565b6129fc604083018561216d565b8181036060830152612a0e8184612994565b905095945050505050565b600081519050612a2881611ecd565b92915050565b600060208284031215612a4457612a43611e97565b5b6000612a5284828501612a19565b91505092915050565b600081905092915050565b6000612a7182611f5c565b612a7b8185612a5b565b9350612a8b818560208601611f78565b80840191505092915050565b6000612aa38285612a66565b9150612aaf8284612a66565b91508190509392505050565b60008190508160005260206000209050919050565b60006020601f8301049050919050565b600082821b905092915050565b600060088302612b1d7fffffffffffffffffffffffffffffffffffffffffffffffffffffffffffffffff82612ae0565b612b278683612ae0565b95508019841693508086168417925050509392505050565b6000612b5a612b55612b508461200e565b612253565b61200e565b9050919050565b6000819050919050565b612b7483612b3f565b612b88612b8082612b61565b848454612aed565b825550505050565b600090565b612b9d612b90565b612ba8818484612b6b565b505050565b5b81811015612bcc57612bc1600082612b95565b600181019050612bae565b5050565b601f821115612c1157612be281612abb565b612beb84612ad0565b81016020851015612bfa578190505b612c0e612c0685612ad0565b830182612bad565b50505b505050565b600082821c905092915050565b6000612c3460001984600802612c16565b1980831691505092915050565b6000612c4d8383612c23565b9150826002028217905092915050565b612c6682611f5c565b67ffffffffffffffff811115612c7f57612c7e612370565b5b612c898254612705565b612c94828285612bd0565b600060209050601f831160018114612cc75760008415612cb5578287015190505b612cbf8582612c41565b865550612d27565b601f198416612cd586612abb565b60005b82811015612cfd57848901518255600182019150602085019450602081019050612cd8565b86831015612d1a5784890151612d16601f891682612c23565b8355505b6001600288020188555050505b50505050505056fea2646970667358221220294b1ab158285ff4c5890a82f890e4745003a6c4f3a80cd738045213b4ec4bb464736f6c63430008140033a26469706673582212202a6ee9db923b34255acf300cd1771f42ec900253fe77d075745d5ad99f72692e64736f6c63430008140033",
  "linkReferences": {},
  "deployedLinkReferences": {}
}