{
  "_format": "hh-sol-artifact-1",
  "contractName": "AIGC",
  "sourceName": "contracts/AIGC.sol",
  "abi": [
    {
      "inputs": [
        {
          "internalType": "uint256",
          "name": "_modelIndex",
          "type": "uint256"
        },
        {
          "internalType": "string",
          "name": "_modelName",
          "type": "string"
        },
        {
          "internalType": "string",
          "name": "_modelSymbol",
          "type": "string"
        },
        {
          "internalType": "address",
          "name": "_token",
          "type": "address"
        },
        {
          "internalType": "uint256",
          "name": "_costToken",
          "type": "uint256"
        },
        {
          "internalType": "bytes32",
          "name": "_aiModelVm",
          "type": "bytes32"
        },
        {
          "internalType": "address",
          "name": "_opmlLib",
          "type": "address"
        }
      ],
      "stateMutability": "nonpayable",
      "type": "constructor"
    },
    {
      "inputs": [
        {
          "internalType": "address",
          "name": "sender",
          "type": "address"
        },
        {
          "internalType": "uint256",
          "name": "tokenId",
          "type": "uint256"
        },
        {
          "internalType": "address",
          "name": "owner",
          "type": "address"
        }
      ],
      "name": "ERC721IncorrectOwner",
      "type": "error"
    },
    {
      "inputs": [
        {
          "internalType": "address",
          "name": "operator",
          "type": "address"
        },
        {
          "internalType": "uint256",
          "name": "tokenId",
          "type": "uint256"
        }
      ],
      "name": "ERC721InsufficientApproval",
      "type": "error"
    },
    {
      "inputs": [
        {
          "internalType": "address",
          "name": "approver",
          "type": "address"
        }
      ],
      "name": "ERC721InvalidApprover",
      "type": "error"
    },
    {
      "inputs": [
        {
          "internalType": "address",
          "name": "operator",
          "type": "address"
        }
      ],
      "name": "ERC721InvalidOperator",
      "type": "error"
    },
    {
      "inputs": [
        {
          "internalType": "address",
          "name": "owner",
          "type": "address"
        }
      ],
      "name": "ERC721InvalidOwner",
      "type": "error"
    },
    {
      "inputs": [
        {
          "internalType": "address",
          "name": "receiver",
          "type": "address"
        }
      ],
      "name": "ERC721InvalidReceiver",
      "type": "error"
    },
    {
      "inputs": [
        {
          "internalType": "address",
          "name": "sender",
          "type": "address"
        }
      ],
      "name": "ERC721InvalidSender",
      "type": "error"
    },
    {
      "inputs": [
        {
          "internalType": "uint256",
          "name": "tokenId",
          "type": "uint256"
        }
      ],
      "name": "ERC721NonexistentToken",
      "type": "error"
    },
    {
      "anonymous": false,
      "inputs": [
        {
          "indexed": true,
          "internalType": "address",
          "name": "owner",
          "type": "address"
        },
        {
          "indexed": true,
          "internalType": "address",
          "name": "approved",
          "type": "address"
        },
        {
          "indexed": true,
          "internalType": "uint256",
          "name": "tokenId",
          "type": "uint256"
        }
      ],
      "name": "Approval",
      "type": "event"
    },
    {
      "anonymous": false,
      "inputs": [
        {
          "indexed": true,
          "internalType": "address",
          "name": "owner",
          "type": "address"
        },
        {
          "indexed": true,
          "internalType": "address",
          "name": "operator",
          "type": "address"
        },
        {
          "indexed": false,
          "internalType": "bool",
          "name": "approved",
          "type": "bool"
        }
      ],
      "name": "ApprovalForAll",
      "type": "event"
    },
    {
      "anonymous": false,
      "inputs": [
        {
          "indexed": false,
          "internalType": "uint256",
          "name": "_fromTokenId",
          "type": "uint256"
        },
        {
          "indexed": false,
          "internalType": "uint256",
          "name": "_toTokenId",
          "type": "uint256"
        }
      ],
      "name": "BatchMetadataUpdate",
      "type": "event"
    },
    {
      "anonymous": false,
      "inputs": [
        {
          "indexed": false,
          "internalType": "uint256",
          "name": "_tokenId",
          "type": "uint256"
        }
      ],
      "name": "MetadataUpdate",
      "type": "event"
    },
    {
      "anonymous": false,
      "inputs": [
        {
          "indexed": true,
          "internalType": "address",
          "name": "from",
          "type": "address"
        },
        {
          "indexed": true,
          "internalType": "address",
          "name": "to",
          "type": "address"
        },
        {
          "indexed": true,
          "internalType": "uint256",
          "name": "tokenId",
          "type": "uint256"
        }
      ],
      "name": "Transfer",
      "type": "event"
    },
    {
      "inputs": [],
      "name": "aiModelVm",
      "outputs": [
        {
          "internalType": "bytes32",
          "name": "",
          "type": "bytes32"
        }
      ],
      "stateMutability": "view",
      "type": "function"
    },
    {
      "inputs": [
        {
          "internalType": "address",
          "name": "to",
          "type": "address"
        },
        {
          "internalType": "uint256",
          "name": "tokenId",
          "type": "uint256"
        }
      ],
      "name": "approve",
      "outputs": [],
      "stateMutability": "nonpayable",
      "type": "function"
    },
    {
      "inputs": [
        {
          "internalType": "address",
          "name": "owner",
          "type": "address"
        }
      ],
      "name": "balanceOf",
      "outputs": [
        {
          "internalType": "uint256",
          "name": "",
          "type": "uint256"
        }
      ],
      "stateMutability": "view",
      "type": "function"
    },
    {
      "inputs": [],
      "name": "costToken",
      "outputs": [
        {
          "internalType": "uint256",
          "name": "",
          "type": "uint256"
        }
      ],
      "stateMutability": "view",
      "type": "function"
    },
    {
      "inputs": [
        {
          "internalType": "uint256",
          "name": "tokenId",
          "type": "uint256"
        }
      ],
      "name": "getApproved",
      "outputs": [
        {
          "internalType": "address",
          "name": "",
          "type": "address"
        }
      ],
      "stateMutability": "view",
      "type": "function"
    },
    {
      "inputs": [],
      "name": "getModelIndex",
      "outputs": [
        {
          "internalType": "uint256",
          "name": "",
          "type": "uint256"
        }
      ],
      "stateMutability": "view",
      "type": "function"
    },
    {
      "inputs": [
        {
          "internalType": "address",
          "name": "owner",
          "type": "address"
        },
        {
          "internalType": "address",
          "name": "operator",
          "type": "address"
        }
      ],
      "name": "isApprovedForAll",
      "outputs": [
        {
          "internalType": "bool",
          "name": "",
          "type": "bool"
        }
      ],
      "stateMutability": "view",
      "type": "function"
    },
    {
      "inputs": [
        {
          "internalType": "string",
          "name": "_tokenURI",
          "type": "string"
        },
        {
          "internalType": "bytes32",
          "name": "_promptHash",
          "type": "bytes32"
        },
        {
          "internalType": "bytes32",
          "name": "_opmlFinalState",
          "type": "bytes32"
        }
      ],
      "name": "mint",
      "outputs": [],
      "stateMutability": "nonpayable",
      "type": "function"
    },
    {
      "inputs": [],
      "name": "modelIndex",
      "outputs": [
        {
          "internalType": "uint256",
          "name": "",
          "type": "uint256"
        }
      ],
      "stateMutability": "view",
      "type": "function"
    },
    {
      "inputs": [],
      "name": "name",
      "outputs": [
        {
          "internalType": "string",
          "name": "",
          "type": "string"
        }
      ],
      "stateMutability": "view",
      "type": "function"
    },
    {
      "inputs": [],
      "name": "opmlLib",
      "outputs": [
        {
          "internalType": "contract OpmlLib",
          "name": "",
          "type": "address"
        }
      ],
      "stateMutability": "view",
      "type": "function"
    },
    {
      "inputs": [
        {
          "internalType": "uint256",
          "name": "tokenId",
          "type": "uint256"
        }
      ],
      "name": "ownerOf",
      "outputs": [
        {
          "internalType": "address",
          "name": "",
          "type": "address"
        }
      ],
      "stateMutability": "view",
      "type": "function"
    },
    {
      "inputs": [
        {
          "internalType": "address",
          "name": "from",
          "type": "address"
        },
        {
          "internalType": "address",
          "name": "to",
          "type": "address"
        },
        {
          "internalType": "uint256",
          "name": "tokenId",
          "type": "uint256"
        }
      ],
      "name": "safeTransferFrom",
      "outputs": [],
      "stateMutability": "nonpayable",
      "type": "function"
    },
    {
      "inputs": [
        {
          "internalType": "address",
          "name": "from",
          "type": "address"
        },
        {
          "internalType": "address",
          "name": "to",
          "type": "address"
        },
        {
          "internalType": "uint256",
          "name": "tokenId",
          "type": "uint256"
        },
        {
          "internalType": "bytes",
          "name": "data",
          "type": "bytes"
        }
      ],
      "name": "safeTransferFrom",
      "outputs": [],
      "stateMutability": "nonpayable",
      "type": "function"
    },
    {
      "inputs": [
        {
          "internalType": "address",
          "name": "operator",
          "type": "address"
        },
        {
          "internalType": "bool",
          "name": "approved",
          "type": "bool"
        }
      ],
      "name": "setApprovalForAll",
      "outputs": [],
      "stateMutability": "nonpayable",
      "type": "function"
    },
    {
      "inputs": [
        {
          "internalType": "bytes4",
          "name": "interfaceId",
          "type": "bytes4"
        }
      ],
      "name": "supportsInterface",
      "outputs": [
        {
          "internalType": "bool",
          "name": "",
          "type": "bool"
        }
      ],
      "stateMutability": "view",
      "type": "function"
    },
    {
      "inputs": [],
      "name": "symbol",
      "outputs": [
        {
          "internalType": "string",
          "name": "",
          "type": "string"
        }
      ],
      "stateMutability": "view",
      "type": "function"
    },
    {
      "inputs": [],
      "name": "token",
      "outputs": [
        {
          "internalType": "contract IERC20",
          "name": "",
          "type": "address"
        }
      ],
      "stateMutability": "view",
      "type": "function"
    },
    {
      "inputs": [],
      "name": "tokenId",
      "outputs": [
        {
          "internalType": "uint256",
          "name": "",
          "type": "uint256"
        }
      ],
      "stateMutability": "view",
      "type": "function"
    },
    {
      "inputs": [
        {
          "internalType": "uint256",
          "name": "tokenId",
          "type": "uint256"
        }
      ],
      "name": "tokenURI",
      "outputs": [
        {
          "internalType": "string",
          "name": "",
          "type": "string"
        }
      ],
      "stateMutability": "view",
      "type": "function"
    },
    {
      "inputs": [
        {
          "internalType": "address",
          "name": "from",
          "type": "address"
        },
        {
          "internalType": "address",
          "name": "to",
          "type": "address"
        },
        {
          "internalType": "uint256",
          "name": "tokenId",
          "type": "uint256"
        }
      ],
      "name": "transferFrom",
      "outputs": [],
      "stateMutability": "nonpayable",
      "type": "function"
    },
    {
      "inputs": [
        {
          "internalType": "uint256",
          "name": "_tokenId",
          "type": "uint256"
        }
      ],
      "name": "verify",
      "outputs": [
        {
          "internalType": "bool",
          "name": "",
          "type": "bool"
        }
      ],
      "stateMutability": "nonpayable",
      "type": "function"
    }
  ],
  "bytecode": "0x60806040523480156200001157600080fd5b506040516200316c3803806200316c833981810160405281019062000037919062000371565b858581600090816200004a9190620006a3565b5080600190816200005c9190620006a3565b50505083600a60006101000a81548173ffffffffffffffffffffffffffffffffffffffff021916908373ffffffffffffffffffffffffffffffffffffffff160217905550866007819055508260098190555081600b8190555080600c60006101000a81548173ffffffffffffffffffffffffffffffffffffffff021916908373ffffffffffffffffffffffffffffffffffffffff160217905550505050505050506200078a565b6000604051905090565b600080fd5b600080fd5b6000819050919050565b6200012c8162000117565b81146200013857600080fd5b50565b6000815190506200014c8162000121565b92915050565b600080fd5b600080fd5b6000601f19601f8301169050919050565b7f4e487b7100000000000000000000000000000000000000000000000000000000600052604160045260246000fd5b620001a7826200015c565b810181811067ffffffffffffffff82111715620001c957620001c86200016d565b5b80604052505050565b6000620001de62000103565b9050620001ec82826200019c565b919050565b600067ffffffffffffffff8211156200020f576200020e6200016d565b5b6200021a826200015c565b9050602081019050919050565b60005b83811015620002475780820151818401526020810190506200022a565b60008484015250505050565b60006200026a6200026484620001f1565b620001d2565b90508281526020810184848401111562000289576200028862000157565b5b6200029684828562000227565b509392505050565b600082601f830112620002b657620002b562000152565b5b8151620002c884826020860162000253565b91505092915050565b600073ffffffffffffffffffffffffffffffffffffffff82169050919050565b6000620002fe82620002d1565b9050919050565b6200031081620002f1565b81146200031c57600080fd5b50565b600081519050620003308162000305565b92915050565b6000819050919050565b6200034b8162000336565b81146200035757600080fd5b50565b6000815190506200036b8162000340565b92915050565b600080600080600080600060e0888a0312156200039357620003926200010d565b5b6000620003a38a828b016200013b565b975050602088015167ffffffffffffffff811115620003c757620003c662000112565b5b620003d58a828b016200029e565b965050604088015167ffffffffffffffff811115620003f957620003f862000112565b5b620004078a828b016200029e565b95505060606200041a8a828b016200031f565b94505060806200042d8a828b016200013b565b93505060a0620004408a828b016200035a565b92505060c0620004538a828b016200031f565b91505092959891949750929550565b600081519050919050565b7f4e487b7100000000000000000000000000000000000000000000000000000000600052602260045260246000fd5b60006002820490506001821680620004b557607f821691505b602082108103620004cb57620004ca6200046d565b5b50919050565b60008190508160005260206000209050919050565b60006020601f8301049050919050565b600082821b905092915050565b600060088302620005357fffffffffffffffffffffffffffffffffffffffffffffffffffffffffffffffff82620004f6565b620005418683620004f6565b95508019841693508086168417925050509392505050565b6000819050919050565b6000620005846200057e620005788462000117565b62000559565b62000117565b9050919050565b6000819050919050565b620005a08362000563565b620005b8620005af826200058b565b84845462000503565b825550505050565b600090565b620005cf620005c0565b620005dc81848462000595565b505050565b5b818110156200060457620005f8600082620005c5565b600181019050620005e2565b5050565b601f82111562000653576200061d81620004d1565b6200062884620004e6565b8101602085101562000638578190505b620006506200064785620004e6565b830182620005e1565b50505b505050565b600082821c905092915050565b6000620006786000198460080262000658565b1980831691505092915050565b600062000693838362000665565b9150826002028217905092915050565b620006ae8262000462565b67ffffffffffffffff811115620006ca57620006c96200016d565b5b620006d682546200049c565b620006e382828562000608565b600060209050601f8311600181146200071b576000841562000706578287015190505b62000712858262000685565b86555062000782565b601f1984166200072b86620004d1565b60005b8281101562000755578489015182556001820191506020850194506020810190506200072e565b8683101562000775578489015162000771601f89168262000665565b8355505b6001600288020188555050505b505050505050565b6129d2806200079a6000396000f3fe608060405234801561001057600080fd5b50600436106101425760003560e01c806370a08231116100b8578063b88d4fde1161007c578063b88d4fde14610379578063c87b56dd14610395578063d632265d146103c5578063df218bd1146103e1578063e985e9c5146103ff578063fc0c546a1461042f57610142565b806370a08231146102c157806374a349d2146102f15780638753367f1461030f57806395d89b411461033f578063a22cb4651461035d57610142565b806317d70f7c1161010a57806317d70f7c146101ff57806323b872dd1461021d5780632f03012e1461023957806342842e0e14610257578063608193c3146102735780636352211e1461029157610142565b806301ffc9a71461014757806306fdde0314610177578063081812fc14610195578063095ea7b3146101c557806312986513146101e1575b600080fd5b610161600480360381019061015c9190611c19565b61044d565b60405161016e9190611c61565b60405180910390f35b61017f6104ae565b60405161018c9190611d0c565b60405180910390f35b6101af60048036038101906101aa9190611d64565b610540565b6040516101bc9190611dd2565b60405180910390f35b6101df60048036038101906101da9190611e19565b61055c565b005b6101e9610572565b6040516101f69190611e72565b60405180910390f35b610207610578565b6040516102149190611e9c565b60405180910390f35b61023760048036038101906102329190611eb7565b61057e565b005b610241610680565b60405161024e9190611f69565b60405180910390f35b610271600480360381019061026c9190611eb7565b6106a6565b005b61027b6106c6565b6040516102889190611e9c565b60405180910390f35b6102ab60048036038101906102a69190611d64565b6106d0565b6040516102b89190611dd2565b60405180910390f35b6102db60048036038101906102d69190611f84565b6106e2565b6040516102e89190611e9c565b60405180910390f35b6102f961079c565b6040516103069190611e9c565b60405180910390f35b61032960048036038101906103249190611d64565b6107a2565b6040516103369190611c61565b60405180910390f35b61034761085c565b6040516103549190611d0c565b60405180910390f35b61037760048036038101906103729190611fdd565b6108ee565b005b610393600480360381019061038e9190612152565b610904565b005b6103af60048036038101906103aa9190611d64565b610921565b6040516103bc9190611d0c565b60405180910390f35b6103df60048036038101906103da91906122a2565b610a34565b005b6103e9610bcb565b6040516103f69190611e9c565b60405180910390f35b61041960048036038101906104149190612311565b610bd1565b6040516104269190611c61565b60405180910390f35b610437610c65565b6040516104449190612372565b60405180910390f35b6000634906490660e01b7bffffffffffffffffffffffffffffffffffffffffffffffffffffffff1916827bffffffffffffffffffffffffffffffffffffffffffffffffffffffff191614806104a757506104a682610c8b565b5b9050919050565b6060600080546104bd906123bc565b80601f01602080910402602001604051908101604052809291908181526020018280546104e9906123bc565b80156105365780601f1061050b57610100808354040283529160200191610536565b820191906000526020600020905b81548152906001019060200180831161051957829003601f168201915b5050505050905090565b600061054b82610d6d565b5061055582610df5565b9050919050565b61056e8282610569610e32565b610e3a565b5050565b600b5481565b60085481565b600073ffffffffffffffffffffffffffffffffffffffff168273ffffffffffffffffffffffffffffffffffffffff16036105f05760006040517f64a0ae920000000000000000000000000000000000000000000000000000000081526004016105e79190611dd2565b60405180910390fd5b600061060483836105ff610e32565b610e4c565b90508373ffffffffffffffffffffffffffffffffffffffff168173ffffffffffffffffffffffffffffffffffffffff161461067a578382826040517f64283d7b000000000000000000000000000000000000000000000000000000008152600401610671939291906123ed565b60405180910390fd5b50505050565b600c60009054906101000a900473ffffffffffffffffffffffffffffffffffffffff1681565b6106c183838360405180602001604052806000815250610904565b505050565b6000600754905090565b60006106db82610d6d565b9050919050565b60008073ffffffffffffffffffffffffffffffffffffffff168273ffffffffffffffffffffffffffffffffffffffff16036107555760006040517f89c62b6400000000000000000000000000000000000000000000000000000000815260040161074c9190611dd2565b60405180910390fd5b600360008373ffffffffffffffffffffffffffffffffffffffff1673ffffffffffffffffffffffffffffffffffffffff168152602001908152602001600020549050919050565b60095481565b6000600c60009054906101000a900473ffffffffffffffffffffffffffffffffffffffff1673ffffffffffffffffffffffffffffffffffffffff166333727c4d600d6000858152602001908152602001600020546040518263ffffffff1660e01b81526004016108129190611e9c565b6020604051808303816000875af1158015610831573d6000803e3d6000fd5b505050506040513d601f19601f820116820180604052508101906108559190612439565b9050919050565b60606001805461086b906123bc565b80601f0160208091040260200160405190810160405280929190818152602001828054610897906123bc565b80156108e45780601f106108b9576101008083540402835291602001916108e4565b820191906000526020600020905b8154815290600101906020018083116108c757829003601f168201915b5050505050905090565b6109006108f9610e32565b8383611066565b5050565b61090f84848461057e565b61091b848484846111d5565b50505050565b606061092c82610d6d565b50600060066000848152602001908152602001600020805461094d906123bc565b80601f0160208091040260200160405190810160405280929190818152602001828054610979906123bc565b80156109c65780601f1061099b576101008083540402835291602001916109c6565b820191906000526020600020905b8154815290600101906020018083116109a957829003601f168201915b5050505050905060006109d761138c565b905060008151036109ec578192505050610a2f565b600082511115610a21578082604051602001610a099291906124a2565b60405160208183030381529060405292505050610a2f565b610a2a846113a3565b925050505b919050565b600a60009054906101000a900473ffffffffffffffffffffffffffffffffffffffff1673ffffffffffffffffffffffffffffffffffffffff166323b872dd33306009546040518463ffffffff1660e01b8152600401610a95939291906124c6565b6020604051808303816000875af1158015610ab4573d6000803e3d6000fd5b505050506040513d601f19601f82011682018060405250810190610ad89190612439565b50610ae53360085461140c565b610af16008548461142a565b600c60009054906101000a900473ffffffffffffffffffffffffffffffffffffffff1673ffffffffffffffffffffffffffffffffffffffff16631aafb2be600b5484846040518463ffffffff1660e01b8152600401610b52939291906124fd565b6020604051808303816000875af1158015610b71573d6000803e3d6000fd5b505050506040513d601f19601f82011682018060405250810190610b959190612549565b600d600060085481526020019081526020016000208190555060086000815480929190610bc1906125a5565b9190505550505050565b60075481565b6000600560008473ffffffffffffffffffffffffffffffffffffffff1673ffffffffffffffffffffffffffffffffffffffff16815260200190815260200160002060008373ffffffffffffffffffffffffffffffffffffffff1673ffffffffffffffffffffffffffffffffffffffff16815260200190815260200160002060009054906101000a900460ff16905092915050565b600a60009054906101000a900473ffffffffffffffffffffffffffffffffffffffff1681565b60007f80ac58cd000000000000000000000000000000000000000000000000000000007bffffffffffffffffffffffffffffffffffffffffffffffffffffffff1916827bffffffffffffffffffffffffffffffffffffffffffffffffffffffff19161480610d5657507f5b5e139f000000000000000000000000000000000000000000000000000000007bffffffffffffffffffffffffffffffffffffffffffffffffffffffff1916827bffffffffffffffffffffffffffffffffffffffffffffffffffffffff1916145b80610d665750610d6582611486565b5b9050919050565b600080610d79836114f0565b9050600073ffffffffffffffffffffffffffffffffffffffff168173ffffffffffffffffffffffffffffffffffffffff1603610dec57826040517f7e273289000000000000000000000000000000000000000000000000000000008152600401610de39190611e9c565b60405180910390fd5b80915050919050565b60006004600083815260200190815260200160002060009054906101000a900473ffffffffffffffffffffffffffffffffffffffff169050919050565b600033905090565b610e47838383600161152d565b505050565b600080610e58846114f0565b9050600073ffffffffffffffffffffffffffffffffffffffff168373ffffffffffffffffffffffffffffffffffffffff1614610e9a57610e998184866116f2565b5b600073ffffffffffffffffffffffffffffffffffffffff168173ffffffffffffffffffffffffffffffffffffffff1614610f2b57610edc60008560008061152d565b6001600360008373ffffffffffffffffffffffffffffffffffffffff1673ffffffffffffffffffffffffffffffffffffffff168152602001908152602001600020600082825403925050819055505b600073ffffffffffffffffffffffffffffffffffffffff168573ffffffffffffffffffffffffffffffffffffffff1614610fae576001600360008773ffffffffffffffffffffffffffffffffffffffff1673ffffffffffffffffffffffffffffffffffffffff168152602001908152602001600020600082825401925050819055505b846002600086815260200190815260200160002060006101000a81548173ffffffffffffffffffffffffffffffffffffffff021916908373ffffffffffffffffffffffffffffffffffffffff160217905550838573ffffffffffffffffffffffffffffffffffffffff168273ffffffffffffffffffffffffffffffffffffffff167fddf252ad1be2c89b69c2b068fc378daa952ba7f163c4a11628f55a4df523b3ef60405160405180910390a4809150509392505050565b600073ffffffffffffffffffffffffffffffffffffffff168273ffffffffffffffffffffffffffffffffffffffff16036110d757816040517f5b08ba180000000000000000000000000000000000000000000000000000000081526004016110ce9190611dd2565b60405180910390fd5b80600560008573ffffffffffffffffffffffffffffffffffffffff1673ffffffffffffffffffffffffffffffffffffffff16815260200190815260200160002060008473ffffffffffffffffffffffffffffffffffffffff1673ffffffffffffffffffffffffffffffffffffffff16815260200190815260200160002060006101000a81548160ff0219169083151502179055508173ffffffffffffffffffffffffffffffffffffffff168373ffffffffffffffffffffffffffffffffffffffff167f17307eab39ab6107e8899845ad3d59bd9653f200f220920489ca2b5937696c31836040516111c89190611c61565b60405180910390a3505050565b60008373ffffffffffffffffffffffffffffffffffffffff163b1115611386578273ffffffffffffffffffffffffffffffffffffffff1663150b7a02611219610e32565b8685856040518563ffffffff1660e01b815260040161123b9493929190612642565b6020604051808303816000875af192505050801561127757506040513d601f19601f8201168201806040525081019061127491906126a3565b60015b6112fb573d80600081146112a7576040519150601f19603f3d011682016040523d82523d6000602084013e6112ac565b606091505b5060008151036112f357836040517f64a0ae920000000000000000000000000000000000000000000000000000000081526004016112ea9190611dd2565b60405180910390fd5b805181602001fd5b63150b7a0260e01b7bffffffffffffffffffffffffffffffffffffffffffffffffffffffff1916817bffffffffffffffffffffffffffffffffffffffffffffffffffffffff19161461138457836040517f64a0ae9200000000000000000000000000000000000000000000000000000000815260040161137b9190611dd2565b60405180910390fd5b505b50505050565b606060405180602001604052806000815250905090565b60606113ae82610d6d565b5060006113b961138c565b905060008151116113d95760405180602001604052806000815250611404565b806113e3846117b6565b6040516020016113f49291906124a2565b6040516020818303038152906040525b915050919050565b611426828260405180602001604052806000815250611884565b5050565b8060066000848152602001908152602001600020908161144a9190612872565b507ff8e1a15aba9398e019f0b49df1a4fde98ee17ae345cb5f6b5e2c27f5033e8ce78260405161147a9190611e9c565b60405180910390a15050565b60007f01ffc9a7000000000000000000000000000000000000000000000000000000007bffffffffffffffffffffffffffffffffffffffffffffffffffffffff1916827bffffffffffffffffffffffffffffffffffffffffffffffffffffffff1916149050919050565b60006002600083815260200190815260200160002060009054906101000a900473ffffffffffffffffffffffffffffffffffffffff169050919050565b80806115665750600073ffffffffffffffffffffffffffffffffffffffff168273ffffffffffffffffffffffffffffffffffffffff1614155b1561169a57600061157684610d6d565b9050600073ffffffffffffffffffffffffffffffffffffffff168373ffffffffffffffffffffffffffffffffffffffff16141580156115e157508273ffffffffffffffffffffffffffffffffffffffff168173ffffffffffffffffffffffffffffffffffffffff1614155b80156115f457506115f28184610bd1565b155b1561163657826040517fa9fbf51f00000000000000000000000000000000000000000000000000000000815260040161162d9190611dd2565b60405180910390fd5b811561169857838573ffffffffffffffffffffffffffffffffffffffff168273ffffffffffffffffffffffffffffffffffffffff167f8c5be1e5ebec7d5bd14f71427d1e84f3dd0314c0f7b2291e5b200ac8c7c3b92560405160405180910390a45b505b836004600085815260200190815260200160002060006101000a81548173ffffffffffffffffffffffffffffffffffffffff021916908373ffffffffffffffffffffffffffffffffffffffff16021790555050505050565b6116fd8383836118a0565b6117b157600073ffffffffffffffffffffffffffffffffffffffff168373ffffffffffffffffffffffffffffffffffffffff160361177257806040517f7e2732890000000000000000000000000000000000000000000000000000000081526004016117699190611e9c565b60405180910390fd5b81816040517f177e802f0000000000000000000000000000000000000000000000000000000081526004016117a8929190612944565b60405180910390fd5b505050565b6060600060016117c584611961565b01905060008167ffffffffffffffff8111156117e4576117e3612027565b5b6040519080825280601f01601f1916602001820160405280156118165781602001600182028036833780820191505090505b509050600082602001820190505b600115611879578080600190039150507f3031323334353637383961626364656600000000000000000000000000000000600a86061a8153600a858161186d5761186c61296d565b5b04945060008503611824575b819350505050919050565b61188e8383611ab4565b61189b60008484846111d5565b505050565b60008073ffffffffffffffffffffffffffffffffffffffff168373ffffffffffffffffffffffffffffffffffffffff161415801561195857508273ffffffffffffffffffffffffffffffffffffffff168473ffffffffffffffffffffffffffffffffffffffff16148061191957506119188484610bd1565b5b8061195757508273ffffffffffffffffffffffffffffffffffffffff1661193f83610df5565b73ffffffffffffffffffffffffffffffffffffffff16145b5b90509392505050565b600080600090507a184f03e93ff9f4daa797ed6e38ed64bf6a1f01000000000000000083106119bf577a184f03e93ff9f4daa797ed6e38ed64bf6a1f01000000000000000083816119b5576119b461296d565b5b0492506040810190505b6d04ee2d6d415b85acef810000000083106119fc576d04ee2d6d415b85acef810000000083816119f2576119f161296d565b5b0492506020810190505b662386f26fc100008310611a2b57662386f26fc100008381611a2157611a2061296d565b5b0492506010810190505b6305f5e1008310611a54576305f5e1008381611a4a57611a4961296d565b5b0492506008810190505b6127108310611a79576127108381611a6f57611a6e61296d565b5b0492506004810190505b60648310611a9c5760648381611a9257611a9161296d565b5b0492506002810190505b600a8310611aab576001810190505b80915050919050565b600073ffffffffffffffffffffffffffffffffffffffff168273ffffffffffffffffffffffffffffffffffffffff1603611b265760006040517f64a0ae92000000000000000000000000000000000000000000000000000000008152600401611b1d9190611dd2565b60405180910390fd5b6000611b3483836000610e4c565b9050600073ffffffffffffffffffffffffffffffffffffffff168173ffffffffffffffffffffffffffffffffffffffff1614611ba85760006040517f73c6ac6e000000000000000000000000000000000000000000000000000000008152600401611b9f9190611dd2565b60405180910390fd5b505050565b6000604051905090565b600080fd5b600080fd5b60007fffffffff0000000000000000000000000000000000000000000000000000000082169050919050565b611bf681611bc1565b8114611c0157600080fd5b50565b600081359050611c1381611bed565b92915050565b600060208284031215611c2f57611c2e611bb7565b5b6000611c3d84828501611c04565b91505092915050565b60008115159050919050565b611c5b81611c46565b82525050565b6000602082019050611c766000830184611c52565b92915050565b600081519050919050565b600082825260208201905092915050565b60005b83811015611cb6578082015181840152602081019050611c9b565b60008484015250505050565b6000601f19601f8301169050919050565b6000611cde82611c7c565b611ce88185611c87565b9350611cf8818560208601611c98565b611d0181611cc2565b840191505092915050565b60006020820190508181036000830152611d268184611cd3565b905092915050565b6000819050919050565b611d4181611d2e565b8114611d4c57600080fd5b50565b600081359050611d5e81611d38565b92915050565b600060208284031215611d7a57611d79611bb7565b5b6000611d8884828501611d4f565b91505092915050565b600073ffffffffffffffffffffffffffffffffffffffff82169050919050565b6000611dbc82611d91565b9050919050565b611dcc81611db1565b82525050565b6000602082019050611de76000830184611dc3565b92915050565b611df681611db1565b8114611e0157600080fd5b50565b600081359050611e1381611ded565b92915050565b60008060408385031215611e3057611e2f611bb7565b5b6000611e3e85828601611e04565b9250506020611e4f85828601611d4f565b9150509250929050565b6000819050919050565b611e6c81611e59565b82525050565b6000602082019050611e876000830184611e63565b92915050565b611e9681611d2e565b82525050565b6000602082019050611eb16000830184611e8d565b92915050565b600080600060608486031215611ed057611ecf611bb7565b5b6000611ede86828701611e04565b9350506020611eef86828701611e04565b9250506040611f0086828701611d4f565b9150509250925092565b6000819050919050565b6000611f2f611f2a611f2584611d91565b611f0a565b611d91565b9050919050565b6000611f4182611f14565b9050919050565b6000611f5382611f36565b9050919050565b611f6381611f48565b82525050565b6000602082019050611f7e6000830184611f5a565b92915050565b600060208284031215611f9a57611f99611bb7565b5b6000611fa884828501611e04565b91505092915050565b611fba81611c46565b8114611fc557600080fd5b50565b600081359050611fd781611fb1565b92915050565b60008060408385031215611ff457611ff3611bb7565b5b600061200285828601611e04565b925050602061201385828601611fc8565b9150509250929050565b600080fd5b600080fd5b7f4e487b7100000000000000000000000000000000000000000000000000000000600052604160045260246000fd5b61205f82611cc2565b810181811067ffffffffffffffff8211171561207e5761207d612027565b5b80604052505050565b6000612091611bad565b905061209d8282612056565b919050565b600067ffffffffffffffff8211156120bd576120bc612027565b5b6120c682611cc2565b9050602081019050919050565b82818337600083830152505050565b60006120f56120f0846120a2565b612087565b90508281526020810184848401111561211157612110612022565b5b61211c8482856120d3565b509392505050565b600082601f8301126121395761213861201d565b5b81356121498482602086016120e2565b91505092915050565b6000806000806080858703121561216c5761216b611bb7565b5b600061217a87828801611e04565b945050602061218b87828801611e04565b935050604061219c87828801611d4f565b925050606085013567ffffffffffffffff8111156121bd576121bc611bbc565b5b6121c987828801612124565b91505092959194509250565b600067ffffffffffffffff8211156121f0576121ef612027565b5b6121f982611cc2565b9050602081019050919050565b6000612219612214846121d5565b612087565b90508281526020810184848401111561223557612234612022565b5b6122408482856120d3565b509392505050565b600082601f83011261225d5761225c61201d565b5b813561226d848260208601612206565b91505092915050565b61227f81611e59565b811461228a57600080fd5b50565b60008135905061229c81612276565b92915050565b6000806000606084860312156122bb576122ba611bb7565b5b600084013567ffffffffffffffff8111156122d9576122d8611bbc565b5b6122e586828701612248565b93505060206122f68682870161228d565b92505060406123078682870161228d565b9150509250925092565b6000806040838503121561232857612327611bb7565b5b600061233685828601611e04565b925050602061234785828601611e04565b9150509250929050565b600061235c82611f36565b9050919050565b61236c81612351565b82525050565b60006020820190506123876000830184612363565b92915050565b7f4e487b7100000000000000000000000000000000000000000000000000000000600052602260045260246000fd5b600060028204905060018216806123d457607f821691505b6020821081036123e7576123e661238d565b5b50919050565b60006060820190506124026000830186611dc3565b61240f6020830185611e8d565b61241c6040830184611dc3565b949350505050565b60008151905061243381611fb1565b92915050565b60006020828403121561244f5761244e611bb7565b5b600061245d84828501612424565b91505092915050565b600081905092915050565b600061247c82611c7c565b6124868185612466565b9350612496818560208601611c98565b80840191505092915050565b60006124ae8285612471565b91506124ba8284612471565b91508190509392505050565b60006060820190506124db6000830186611dc3565b6124e86020830185611dc3565b6124f56040830184611e8d565b949350505050565b60006060820190506125126000830186611e63565b61251f6020830185611e63565b61252c6040830184611e63565b949350505050565b60008151905061254381611d38565b92915050565b60006020828403121561255f5761255e611bb7565b5b600061256d84828501612534565b91505092915050565b7f4e487b7100000000000000000000000000000000000000000000000000000000600052601160045260246000fd5b60006125b082611d2e565b91507fffffffffffffffffffffffffffffffffffffffffffffffffffffffffffffffff82036125e2576125e1612576565b5b600182019050919050565b600081519050919050565b600082825260208201905092915050565b6000612614826125ed565b61261e81856125f8565b935061262e818560208601611c98565b61263781611cc2565b840191505092915050565b60006080820190506126576000830187611dc3565b6126646020830186611dc3565b6126716040830185611e8d565b81810360608301526126838184612609565b905095945050505050565b60008151905061269d81611bed565b92915050565b6000602082840312156126b9576126b8611bb7565b5b60006126c78482850161268e565b91505092915050565b60008190508160005260206000209050919050565b60006020601f8301049050919050565b600082821b905092915050565b6000600883026127327fffffffffffffffffffffffffffffffffffffffffffffffffffffffffffffffff826126f5565b61273c86836126f5565b95508019841693508086168417925050509392505050565b600061276f61276a61276584611d2e565b611f0a565b611d2e565b9050919050565b6000819050919050565b61278983612754565b61279d61279582612776565b848454612702565b825550505050565b600090565b6127b26127a5565b6127bd818484612780565b505050565b5b818110156127e1576127d66000826127aa565b6001810190506127c3565b5050565b601f821115612826576127f7816126d0565b612800846126e5565b8101602085101561280f578190505b61282361281b856126e5565b8301826127c2565b50505b505050565b600082821c905092915050565b60006128496000198460080261282b565b1980831691505092915050565b60006128628383612838565b9150826002028217905092915050565b61287b82611c7c565b67ffffffffffffffff81111561289457612893612027565b5b61289e82546123bc565b6128a98282856127e5565b600060209050601f8311600181146128dc57600084156128ca578287015190505b6128d48582612856565b86555061293c565b601f1984166128ea866126d0565b60005b82811015612912578489015182556001820191506020850194506020810190506128ed565b8683101561292f578489015161292b601f891682612838565b8355505b6001600288020188555050505b505050505050565b60006040820190506129596000830185611dc3565b6129666020830184611e8d565b9392505050565b7f4e487b7100000000000000000000000000000000000000000000000000000000600052601260045260246000fdfea26469706673582212207807c85d35b5500a22fd7b8ec752f299a7aa546971ddb4cac009ae8c8f30031764736f6c63430008140033",
  "linkReferences": {},
  "deployedLinkReferences": {}
}