{
  "_format": "hh-sol-artifact-1",
  "contractName": "AIGC",
  "sourceName": "contracts/AIGC.sol",
  "abi": [
    {
      "inputs": [
        {
          "internalType": "uint256",
          "name": "_modelIndex",
          "type": "uint256"
        },
        {
          "internalType": "string",
          "name": "_modelName",
          "type": "string"
        },
        {
          "internalType": "string",
          "name": "_modelSymbol",
          "type": "string"
        },
        {
          "internalType": "address",
          "name": "_token",
          "type": "address"
        },
        {
          "internalType": "uint256",
          "name": "_costToken",
          "type": "uint256"
        },
        {
          "internalType": "bytes32",
          "name": "_aiModelVm",
          "type": "bytes32"
        },
        {
          "internalType": "address",
          "name": "_opmlLib",
          "type": "address"
        },
        {
          "internalType": "uint96",
          "name": "_royalty",
          "type": "uint96"
        }
      ],
      "stateMutability": "nonpayable",
      "type": "constructor"
    },
    {
      "inputs": [
        {
          "internalType": "uint256",
          "name": "numerator",
          "type": "uint256"
        },
        {
          "internalType": "uint256",
          "name": "denominator",
          "type": "uint256"
        }
      ],
      "name": "ERC2981InvalidDefaultRoyalty",
      "type": "error"
    },
    {
      "inputs": [
        {
          "internalType": "address",
          "name": "receiver",
          "type": "address"
        }
      ],
      "name": "ERC2981InvalidDefaultRoyaltyReceiver",
      "type": "error"
    },
    {
      "inputs": [
        {
          "internalType": "uint256",
          "name": "tokenId",
          "type": "uint256"
        },
        {
          "internalType": "uint256",
          "name": "numerator",
          "type": "uint256"
        },
        {
          "internalType": "uint256",
          "name": "denominator",
          "type": "uint256"
        }
      ],
      "name": "ERC2981InvalidTokenRoyalty",
      "type": "error"
    },
    {
      "inputs": [
        {
          "internalType": "uint256",
          "name": "tokenId",
          "type": "uint256"
        },
        {
          "internalType": "address",
          "name": "receiver",
          "type": "address"
        }
      ],
      "name": "ERC2981InvalidTokenRoyaltyReceiver",
      "type": "error"
    },
    {
      "inputs": [
        {
          "internalType": "address",
          "name": "sender",
          "type": "address"
        },
        {
          "internalType": "uint256",
          "name": "tokenId",
          "type": "uint256"
        },
        {
          "internalType": "address",
          "name": "owner",
          "type": "address"
        }
      ],
      "name": "ERC721IncorrectOwner",
      "type": "error"
    },
    {
      "inputs": [
        {
          "internalType": "address",
          "name": "operator",
          "type": "address"
        },
        {
          "internalType": "uint256",
          "name": "tokenId",
          "type": "uint256"
        }
      ],
      "name": "ERC721InsufficientApproval",
      "type": "error"
    },
    {
      "inputs": [
        {
          "internalType": "address",
          "name": "approver",
          "type": "address"
        }
      ],
      "name": "ERC721InvalidApprover",
      "type": "error"
    },
    {
      "inputs": [
        {
          "internalType": "address",
          "name": "operator",
          "type": "address"
        }
      ],
      "name": "ERC721InvalidOperator",
      "type": "error"
    },
    {
      "inputs": [
        {
          "internalType": "address",
          "name": "owner",
          "type": "address"
        }
      ],
      "name": "ERC721InvalidOwner",
      "type": "error"
    },
    {
      "inputs": [
        {
          "internalType": "address",
          "name": "receiver",
          "type": "address"
        }
      ],
      "name": "ERC721InvalidReceiver",
      "type": "error"
    },
    {
      "inputs": [
        {
          "internalType": "address",
          "name": "sender",
          "type": "address"
        }
      ],
      "name": "ERC721InvalidSender",
      "type": "error"
    },
    {
      "inputs": [
        {
          "internalType": "uint256",
          "name": "tokenId",
          "type": "uint256"
        }
      ],
      "name": "ERC721NonexistentToken",
      "type": "error"
    },
    {
      "anonymous": false,
      "inputs": [
        {
          "indexed": true,
          "internalType": "address",
          "name": "owner",
          "type": "address"
        },
        {
          "indexed": true,
          "internalType": "address",
          "name": "approved",
          "type": "address"
        },
        {
          "indexed": true,
          "internalType": "uint256",
          "name": "tokenId",
          "type": "uint256"
        }
      ],
      "name": "Approval",
      "type": "event"
    },
    {
      "anonymous": false,
      "inputs": [
        {
          "indexed": true,
          "internalType": "address",
          "name": "owner",
          "type": "address"
        },
        {
          "indexed": true,
          "internalType": "address",
          "name": "operator",
          "type": "address"
        },
        {
          "indexed": false,
          "internalType": "bool",
          "name": "approved",
          "type": "bool"
        }
      ],
      "name": "ApprovalForAll",
      "type": "event"
    },
    {
      "anonymous": false,
      "inputs": [
        {
          "indexed": false,
          "internalType": "uint256",
          "name": "_fromTokenId",
          "type": "uint256"
        },
        {
          "indexed": false,
          "internalType": "uint256",
          "name": "_toTokenId",
          "type": "uint256"
        }
      ],
      "name": "BatchMetadataUpdate",
      "type": "event"
    },
    {
      "anonymous": false,
      "inputs": [
        {
          "indexed": false,
          "internalType": "uint256",
          "name": "_tokenId",
          "type": "uint256"
        }
      ],
      "name": "MetadataUpdate",
      "type": "event"
    },
    {
      "anonymous": false,
      "inputs": [
        {
          "indexed": true,
          "internalType": "address",
          "name": "from",
          "type": "address"
        },
        {
          "indexed": true,
          "internalType": "address",
          "name": "to",
          "type": "address"
        },
        {
          "indexed": true,
          "internalType": "uint256",
          "name": "tokenId",
          "type": "uint256"
        }
      ],
      "name": "Transfer",
      "type": "event"
    },
    {
      "inputs": [],
      "name": "aiModelVm",
      "outputs": [
        {
          "internalType": "bytes32",
          "name": "",
          "type": "bytes32"
        }
      ],
      "stateMutability": "view",
      "type": "function"
    },
    {
      "inputs": [
        {
          "internalType": "address",
          "name": "to",
          "type": "address"
        },
        {
          "internalType": "uint256",
          "name": "tokenId",
          "type": "uint256"
        }
      ],
      "name": "approve",
      "outputs": [],
      "stateMutability": "nonpayable",
      "type": "function"
    },
    {
      "inputs": [
        {
          "internalType": "address",
          "name": "owner",
          "type": "address"
        }
      ],
      "name": "balanceOf",
      "outputs": [
        {
          "internalType": "uint256",
          "name": "",
          "type": "uint256"
        }
      ],
      "stateMutability": "view",
      "type": "function"
    },
    {
      "inputs": [],
      "name": "costToken",
      "outputs": [
        {
          "internalType": "uint256",
          "name": "",
          "type": "uint256"
        }
      ],
      "stateMutability": "view",
      "type": "function"
    },
    {
      "inputs": [
        {
          "internalType": "uint256",
          "name": "tokenId",
          "type": "uint256"
        }
      ],
      "name": "getApproved",
      "outputs": [
        {
          "internalType": "address",
          "name": "",
          "type": "address"
        }
      ],
      "stateMutability": "view",
      "type": "function"
    },
    {
      "inputs": [],
      "name": "getModelIndex",
      "outputs": [
        {
          "internalType": "uint256",
          "name": "",
          "type": "uint256"
        }
      ],
      "stateMutability": "view",
      "type": "function"
    },
    {
      "inputs": [
        {
          "internalType": "address",
          "name": "owner",
          "type": "address"
        },
        {
          "internalType": "address",
          "name": "operator",
          "type": "address"
        }
      ],
      "name": "isApprovedForAll",
      "outputs": [
        {
          "internalType": "bool",
          "name": "",
          "type": "bool"
        }
      ],
      "stateMutability": "view",
      "type": "function"
    },
    {
      "inputs": [
        {
          "internalType": "string",
          "name": "_tokenURI",
          "type": "string"
        },
        {
          "internalType": "bytes32",
          "name": "_promptHash",
          "type": "bytes32"
        },
        {
          "internalType": "bytes32",
          "name": "_opmlFinalState",
          "type": "bytes32"
        }
      ],
      "name": "mint",
      "outputs": [],
      "stateMutability": "nonpayable",
      "type": "function"
    },
    {
      "inputs": [],
      "name": "modelIndex",
      "outputs": [
        {
          "internalType": "uint256",
          "name": "",
          "type": "uint256"
        }
      ],
      "stateMutability": "view",
      "type": "function"
    },
    {
      "inputs": [],
      "name": "name",
      "outputs": [
        {
          "internalType": "string",
          "name": "",
          "type": "string"
        }
      ],
      "stateMutability": "view",
      "type": "function"
    },
    {
      "inputs": [],
      "name": "opmlLib",
      "outputs": [
        {
          "internalType": "contract IOpmlLib",
          "name": "",
          "type": "address"
        }
      ],
      "stateMutability": "view",
      "type": "function"
    },
    {
      "inputs": [
        {
          "internalType": "uint256",
          "name": "tokenId",
          "type": "uint256"
        }
      ],
      "name": "ownerOf",
      "outputs": [
        {
          "internalType": "address",
          "name": "",
          "type": "address"
        }
      ],
      "stateMutability": "view",
      "type": "function"
    },
    {
      "inputs": [
        {
          "internalType": "uint256",
          "name": "tokenId",
          "type": "uint256"
        },
        {
          "internalType": "uint256",
          "name": "salePrice",
          "type": "uint256"
        }
      ],
      "name": "royaltyInfo",
      "outputs": [
        {
          "internalType": "address",
          "name": "",
          "type": "address"
        },
        {
          "internalType": "uint256",
          "name": "",
          "type": "uint256"
        }
      ],
      "stateMutability": "view",
      "type": "function"
    },
    {
      "inputs": [
        {
          "internalType": "address",
          "name": "from",
          "type": "address"
        },
        {
          "internalType": "address",
          "name": "to",
          "type": "address"
        },
        {
          "internalType": "uint256",
          "name": "tokenId",
          "type": "uint256"
        }
      ],
      "name": "safeTransferFrom",
      "outputs": [],
      "stateMutability": "nonpayable",
      "type": "function"
    },
    {
      "inputs": [
        {
          "internalType": "address",
          "name": "from",
          "type": "address"
        },
        {
          "internalType": "address",
          "name": "to",
          "type": "address"
        },
        {
          "internalType": "uint256",
          "name": "tokenId",
          "type": "uint256"
        },
        {
          "internalType": "bytes",
          "name": "data",
          "type": "bytes"
        }
      ],
      "name": "safeTransferFrom",
      "outputs": [],
      "stateMutability": "nonpayable",
      "type": "function"
    },
    {
      "inputs": [
        {
          "internalType": "address",
          "name": "operator",
          "type": "address"
        },
        {
          "internalType": "bool",
          "name": "approved",
          "type": "bool"
        }
      ],
      "name": "setApprovalForAll",
      "outputs": [],
      "stateMutability": "nonpayable",
      "type": "function"
    },
    {
      "inputs": [
        {
          "internalType": "bytes4",
          "name": "interfaceId",
          "type": "bytes4"
        }
      ],
      "name": "supportsInterface",
      "outputs": [
        {
          "internalType": "bool",
          "name": "",
          "type": "bool"
        }
      ],
      "stateMutability": "view",
      "type": "function"
    },
    {
      "inputs": [],
      "name": "symbol",
      "outputs": [
        {
          "internalType": "string",
          "name": "",
          "type": "string"
        }
      ],
      "stateMutability": "view",
      "type": "function"
    },
    {
      "inputs": [],
      "name": "token",
      "outputs": [
        {
          "internalType": "contract IERC20",
          "name": "",
          "type": "address"
        }
      ],
      "stateMutability": "view",
      "type": "function"
    },
    {
      "inputs": [],
      "name": "tokenId",
      "outputs": [
        {
          "internalType": "uint256",
          "name": "",
          "type": "uint256"
        }
      ],
      "stateMutability": "view",
      "type": "function"
    },
    {
      "inputs": [
        {
          "internalType": "uint256",
          "name": "_tokenId",
          "type": "uint256"
        }
      ],
      "name": "tokenURI",
      "outputs": [
        {
          "internalType": "string",
          "name": "",
          "type": "string"
        }
      ],
      "stateMutability": "view",
      "type": "function"
    },
    {
      "inputs": [
        {
          "internalType": "address",
          "name": "from",
          "type": "address"
        },
        {
          "internalType": "address",
          "name": "to",
          "type": "address"
        },
        {
          "internalType": "uint256",
          "name": "tokenId",
          "type": "uint256"
        }
      ],
      "name": "transferFrom",
      "outputs": [],
      "stateMutability": "nonpayable",
      "type": "function"
    },
    {
      "inputs": [
        {
          "internalType": "uint256",
          "name": "_tokenId",
          "type": "uint256"
        }
      ],
      "name": "verify",
      "outputs": [
        {
          "internalType": "bool",
          "name": "",
          "type": "bool"
        }
      ],
      "stateMutability": "nonpayable",
      "type": "function"
    }
  ],
  "bytecode": "0x60806040523480156200001157600080fd5b5060405162001dba38038062001dba83398101604081905262000034916200023c565b868660026200004483826200039b565b5060036200005382826200039b565b5050600c80546001600160a01b038089166001600160a01b03199283161790925560098b9055600b879055600d869055600e80549286169290911691909117905550620000a18582620000af565b505050505050505062000467565b6127106001600160601b038216811015620000f457604051636f483d0960e01b81526001600160601b0383166004820152602481018290526044015b60405180910390fd5b6001600160a01b0383166200012057604051635b6cc80560e11b815260006004820152602401620000eb565b50604080518082019091526001600160a01b039092168083526001600160601b039091166020909201829052600160a01b90910217600055565b634e487b7160e01b600052604160045260246000fd5b600082601f8301126200018257600080fd5b81516001600160401b03808211156200019f576200019f6200015a565b604051601f8301601f19908116603f01168101908282118183101715620001ca57620001ca6200015a565b81604052838152602092508683858801011115620001e757600080fd5b600091505b838210156200020b5785820183015181830184015290820190620001ec565b600093810190920192909252949350505050565b80516001600160a01b03811681146200023757600080fd5b919050565b600080600080600080600080610100898b0312156200025a57600080fd5b885160208a01519098506001600160401b03808211156200027a57600080fd5b620002888c838d0162000170565b985060408b01519150808211156200029f57600080fd5b50620002ae8b828c0162000170565b965050620002bf60608a016200021f565b94506080890151935060a08901519250620002dd60c08a016200021f565b60e08a01519092506001600160601b0381168114620002fb57600080fd5b809150509295985092959890939650565b600181811c908216806200032157607f821691505b6020821081036200034257634e487b7160e01b600052602260045260246000fd5b50919050565b601f8211156200039657600081815260208120601f850160051c81016020861015620003715750805b601f850160051c820191505b8181101562000392578281556001016200037d565b5050505b505050565b81516001600160401b03811115620003b757620003b76200015a565b620003cf81620003c884546200030c565b8462000348565b602080601f831160018114620004075760008415620003ee5750858301515b600019600386901b1c1916600185901b17855562000392565b600085815260208120601f198616915b82811015620004385788860151825594840194600190910190840162000417565b5085821015620004575787850151600019600388901b60f8161c191681555b5050505050600190811b01905550565b61194380620004776000396000f3fe608060405234801561001057600080fd5b506004361061018d5760003560e01c80636352211e116100e3578063b88d4fde1161008c578063df218bd111610066578063df218bd114610338578063e985e9c514610341578063fc0c546a1461037d57600080fd5b8063b88d4fde146102ff578063c87b56dd14610312578063d632265d1461032557600080fd5b80638753367f116100bd5780638753367f146102d157806395d89b41146102e4578063a22cb465146102ec57600080fd5b80636352211e146102a257806370a08231146102b557806374a349d2146102c857600080fd5b806317d70f7c116101455780632f03012e1161011f5780632f03012e1461027457806342842e0e14610287578063608193c31461029a57600080fd5b806317d70f7c1461022657806323b872dd1461022f5780632a55205a1461024257600080fd5b8063081812fc11610176578063081812fc146101cf578063095ea7b3146101fa578063129865131461020f57600080fd5b806301ffc9a71461019257806306fdde03146101ba575b600080fd5b6101a56101a0366004611365565b610390565b60405190151581526020015b60405180910390f35b6101c26103a1565b6040516101b191906113d2565b6101e26101dd3660046113e5565b610433565b6040516001600160a01b0390911681526020016101b1565b61020d61020836600461141a565b61045c565b005b610218600d5481565b6040519081526020016101b1565b610218600a5481565b61020d61023d366004611444565b61046b565b610255610250366004611480565b610514565b604080516001600160a01b0390931683526020830191909152016101b1565b600e546101e2906001600160a01b031681565b61020d610295366004611444565b6105cf565b600954610218565b6101e26102b03660046113e5565b6105ef565b6102186102c33660046114a2565b6105fa565b610218600b5481565b6101a56102df3660046113e5565b61065b565b6101c26106f8565b61020d6102fa3660046114cb565b610707565b61020d61030d36600461158e565b610712565b6101c26103203660046113e5565b610729565b61020d61033336600461160a565b610734565b61021860095481565b6101a561034f36600461166c565b6001600160a01b03918216600090815260076020908152604080832093909416825291909152205460ff1690565b600c546101e2906001600160a01b031681565b600061039b826108ab565b92915050565b6060600280546103b09061169f565b80601f01602080910402602001604051908101604052809291908181526020018280546103dc9061169f565b80156104295780601f106103fe57610100808354040283529160200191610429565b820191906000526020600020905b81548152906001019060200180831161040c57829003601f168201915b5050505050905090565b600061043e826108b6565b506000828152600660205260409020546001600160a01b031661039b565b6104678282336108ef565b5050565b6001600160a01b03821661049a57604051633250574960e11b8152600060048201526024015b60405180910390fd5b60006104a78383336108fc565b9050836001600160a01b0316816001600160a01b03161461050e576040517f64283d7b0000000000000000000000000000000000000000000000000000000081526001600160a01b0380861660048301526024820184905282166044820152606401610491565b50505050565b60008281526001602090815260408083208151808301909252546001600160a01b038116808352600160a01b9091046bffffffffffffffffffffffff169282019290925282916105935750604080518082019091526000546001600160a01b0381168252600160a01b90046bffffffffffffffffffffffff1660208201525b6020810151600090612710906105b7906bffffffffffffffffffffffff16876116ef565b6105c19190611706565b915196919550909350505050565b6105ea83838360405180602001604052806000815250610712565b505050565b600061039b826108b6565b60006001600160a01b03821661063f576040517f89c62b6400000000000000000000000000000000000000000000000000000000815260006004820152602401610491565b506001600160a01b031660009081526005602052604090205490565b600e546000828152600f60205260408082205490517f33727c4d00000000000000000000000000000000000000000000000000000000815291926001600160a01b0316916333727c4d916106b59160040190815260200190565b6020604051808303816000875af11580156106d4573d6000803e3d6000fd5b505050506040513d601f19601f8201168201806040525081019061039b9190611728565b6060600380546103b09061169f565b610467338383610a02565b61071d84848461046b565b61050e84848484610aba565b606061039b82610be3565b600c54600b546040517f23b872dd00000000000000000000000000000000000000000000000000000000815233600482015230602482015260448101919091526001600160a01b03909116906323b872dd906064016020604051808303816000875af11580156107a8573d6000803e3d6000fd5b505050506040513d601f19601f820116820180604052508101906107cc9190611728565b506107d933600a54610cf4565b6107e5600a5484610d0e565b600e54600d546040517f1aafb2be000000000000000000000000000000000000000000000000000000008152600481019190915260248101849052604481018390526001600160a01b0390911690631aafb2be906064016020604051808303816000875af115801561085b573d6000803e3d6000fd5b505050506040513d601f19601f8201168201806040525081019061087f9190611745565b600a80546000908152600f60205260408120929092558054916108a18361175e565b9190505550505050565b600061039b82610d5e565b6000818152600460205260408120546001600160a01b03168061039b57604051637e27328960e01b815260048101849052602401610491565b6105ea8383836001610d9c565b6000828152600460205260408120546001600160a01b039081169083161561092957610929818486610ee7565b6001600160a01b0381161561096757610946600085600080610d9c565b6001600160a01b038116600090815260056020526040902080546000190190555b6001600160a01b03851615610996576001600160a01b0385166000908152600560205260409020805460010190555b600084815260046020526040808220805473ffffffffffffffffffffffffffffffffffffffff19166001600160a01b0389811691821790925591518793918516917fddf252ad1be2c89b69c2b068fc378daa952ba7f163c4a11628f55a4df523b3ef91a4949350505050565b6001600160a01b038216610a4d576040517f5b08ba180000000000000000000000000000000000000000000000000000000081526001600160a01b0383166004820152602401610491565b6001600160a01b03838116600081815260076020908152604080832094871680845294825291829020805460ff191686151590811790915591519182527f17307eab39ab6107e8899845ad3d59bd9653f200f220920489ca2b5937696c31910160405180910390a3505050565b6001600160a01b0383163b1561050e57604051630a85bd0160e11b81526001600160a01b0384169063150b7a0290610afc903390889087908790600401611777565b6020604051808303816000875af1925050508015610b37575060408051601f3d908101601f19168201909252610b34918101906117b3565b60015b610ba0573d808015610b65576040519150601f19603f3d011682016040523d82523d6000602084013e610b6a565b606091505b508051600003610b9857604051633250574960e11b81526001600160a01b0385166004820152602401610491565b805181602001fd5b6001600160e01b03198116630a85bd0160e11b14610bdc57604051633250574960e11b81526001600160a01b0385166004820152602401610491565b5050505050565b6060610bee826108b6565b5060008281526008602052604081208054610c089061169f565b80601f0160208091040260200160405190810160405280929190818152602001828054610c349061169f565b8015610c815780601f10610c5657610100808354040283529160200191610c81565b820191906000526020600020905b815481529060010190602001808311610c6457829003601f168201915b505050505090506000610c9f60408051602081019091526000815290565b90508051600003610cb1575092915050565b815115610ce3578082604051602001610ccb9291906117d0565b60405160208183030381529060405292505050919050565b610cec84610f64565b949350505050565b610467828260405180602001604052806000815250610fd9565b6000828152600860205260409020610d26828261184d565b506040518281527ff8e1a15aba9398e019f0b49df1a4fde98ee17ae345cb5f6b5e2c27f5033e8ce79060200160405180910390a15050565b60006001600160e01b031982167f4906490600000000000000000000000000000000000000000000000000000000148061039b575061039b82610ff0565b8080610db057506001600160a01b03821615155b15610eaa576000610dc0846108b6565b90506001600160a01b03831615801590610dec5750826001600160a01b0316816001600160a01b031614155b8015610e1e57506001600160a01b0380821660009081526007602090815260408083209387168352929052205460ff16155b15610e60576040517fa9fbf51f0000000000000000000000000000000000000000000000000000000081526001600160a01b0384166004820152602401610491565b8115610ea85783856001600160a01b0316826001600160a01b03167f8c5be1e5ebec7d5bd14f71427d1e84f3dd0314c0f7b2291e5b200ac8c7c3b92560405160405180910390a45b505b50506000908152600660205260409020805473ffffffffffffffffffffffffffffffffffffffff19166001600160a01b0392909216919091179055565b610ef2838383611062565b6105ea576001600160a01b038316610f2057604051637e27328960e01b815260048101829052602401610491565b6040517f177e802f0000000000000000000000000000000000000000000000000000000081526001600160a01b038316600482015260248101829052604401610491565b6060610f6f826108b6565b506000610f8760408051602081019091526000815290565b90506000815111610fa75760405180602001604052806000815250610fd2565b80610fb1846110e5565b604051602001610fc29291906117d0565b6040516020818303038152906040525b9392505050565b610fe38383611185565b6105ea6000848484610aba565b60006001600160e01b031982167f80ac58cd00000000000000000000000000000000000000000000000000000000148061105357506001600160e01b031982167f5b5e139f00000000000000000000000000000000000000000000000000000000145b8061039b575061039b82611203565b60006001600160a01b03831615801590610cec5750826001600160a01b0316846001600160a01b031614806110bc57506001600160a01b0380851660009081526007602090815260408083209387168352929052205460ff165b80610cec5750506000908152600660205260409020546001600160a01b03908116911614919050565b606060006110f28361126a565b600101905060008167ffffffffffffffff81111561111257611112611502565b6040519080825280601f01601f19166020018201604052801561113c576020820181803683370190505b5090508181016020015b600019017f3031323334353637383961626364656600000000000000000000000000000000600a86061a8153600a850494508461114657509392505050565b6001600160a01b0382166111af57604051633250574960e11b815260006004820152602401610491565b60006111bd838360006108fc565b90506001600160a01b038116156105ea576040517f73c6ac6e00000000000000000000000000000000000000000000000000000000815260006004820152602401610491565b60006001600160e01b031982167f2a55205a00000000000000000000000000000000000000000000000000000000148061039b57507f01ffc9a7000000000000000000000000000000000000000000000000000000006001600160e01b031983161461039b565b6000807a184f03e93ff9f4daa797ed6e38ed64bf6a1f01000000000000000083106112b3577a184f03e93ff9f4daa797ed6e38ed64bf6a1f010000000000000000830492506040015b6d04ee2d6d415b85acef810000000083106112df576d04ee2d6d415b85acef8100000000830492506020015b662386f26fc1000083106112fd57662386f26fc10000830492506010015b6305f5e1008310611315576305f5e100830492506008015b612710831061132957612710830492506004015b6064831061133b576064830492506002015b600a831061039b5760010192915050565b6001600160e01b03198116811461136257600080fd5b50565b60006020828403121561137757600080fd5b8135610fd28161134c565b60005b8381101561139d578181015183820152602001611385565b50506000910152565b600081518084526113be816020860160208601611382565b601f01601f19169290920160200192915050565b602081526000610fd260208301846113a6565b6000602082840312156113f757600080fd5b5035919050565b80356001600160a01b038116811461141557600080fd5b919050565b6000806040838503121561142d57600080fd5b611436836113fe565b946020939093013593505050565b60008060006060848603121561145957600080fd5b611462846113fe565b9250611470602085016113fe565b9150604084013590509250925092565b6000806040838503121561149357600080fd5b50508035926020909101359150565b6000602082840312156114b457600080fd5b610fd2826113fe565b801515811461136257600080fd5b600080604083850312156114de57600080fd5b6114e7836113fe565b915060208301356114f7816114bd565b809150509250929050565b634e487b7160e01b600052604160045260246000fd5b600067ffffffffffffffff8084111561153357611533611502565b604051601f8501601f19908116603f0116810190828211818310171561155b5761155b611502565b8160405280935085815286868601111561157457600080fd5b858560208301376000602087830101525050509392505050565b600080600080608085870312156115a457600080fd5b6115ad856113fe565b93506115bb602086016113fe565b925060408501359150606085013567ffffffffffffffff8111156115de57600080fd5b8501601f810187136115ef57600080fd5b6115fe87823560208401611518565b91505092959194509250565b60008060006060848603121561161f57600080fd5b833567ffffffffffffffff81111561163657600080fd5b8401601f8101861361164757600080fd5b61165686823560208401611518565b9660208601359650604090950135949350505050565b6000806040838503121561167f57600080fd5b611688836113fe565b9150611696602084016113fe565b90509250929050565b600181811c908216806116b357607f821691505b6020821081036116d357634e487b7160e01b600052602260045260246000fd5b50919050565b634e487b7160e01b600052601160045260246000fd5b808202811582820484141761039b5761039b6116d9565b60008261172357634e487b7160e01b600052601260045260246000fd5b500490565b60006020828403121561173a57600080fd5b8151610fd2816114bd565b60006020828403121561175757600080fd5b5051919050565b600060018201611770576117706116d9565b5060010190565b60006001600160a01b038087168352808616602084015250836040830152608060608301526117a960808301846113a6565b9695505050505050565b6000602082840312156117c557600080fd5b8151610fd28161134c565b600083516117e2818460208801611382565b8351908301906117f6818360208801611382565b01949350505050565b601f8211156105ea57600081815260208120601f850160051c810160208610156118265750805b601f850160051c820191505b8181101561184557828155600101611832565b505050505050565b815167ffffffffffffffff81111561186757611867611502565b61187b81611875845461169f565b846117ff565b602080601f8311600181146118b057600084156118985750858301515b600019600386901b1c1916600185901b178555611845565b600085815260208120601f198616915b828110156118df578886015182559484019460019091019084016118c0565b50858210156118fd5787850151600019600388901b60f8161c191681555b5050505050600190811b0190555056fea2646970667358221220a8ab8dc72d11e96dfc0d13683501f8afed2ce57d52a51442a995a79c95b097ef64736f6c63430008140033",
  "linkReferences": {},
  "deployedLinkReferences": {}
}