{
  "_format": "hh-sol-artifact-1",
  "contractName": "AIGC",
  "sourceName": "contracts/AIGC.sol",
  "abi": [
    {
      "inputs": [],
      "stateMutability": "nonpayable",
      "type": "constructor"
    },
    {
      "inputs": [
        {
          "internalType": "uint256",
          "name": "numerator",
          "type": "uint256"
        },
        {
          "internalType": "uint256",
          "name": "denominator",
          "type": "uint256"
        }
      ],
      "name": "ERC2981InvalidDefaultRoyalty",
      "type": "error"
    },
    {
      "inputs": [
        {
          "internalType": "address",
          "name": "receiver",
          "type": "address"
        }
      ],
      "name": "ERC2981InvalidDefaultRoyaltyReceiver",
      "type": "error"
    },
    {
      "inputs": [
        {
          "internalType": "uint256",
          "name": "tokenId",
          "type": "uint256"
        },
        {
          "internalType": "uint256",
          "name": "numerator",
          "type": "uint256"
        },
        {
          "internalType": "uint256",
          "name": "denominator",
          "type": "uint256"
        }
      ],
      "name": "ERC2981InvalidTokenRoyalty",
      "type": "error"
    },
    {
      "inputs": [
        {
          "internalType": "uint256",
          "name": "tokenId",
          "type": "uint256"
        },
        {
          "internalType": "address",
          "name": "receiver",
          "type": "address"
        }
      ],
      "name": "ERC2981InvalidTokenRoyaltyReceiver",
      "type": "error"
    },
    {
      "inputs": [
        {
          "internalType": "address",
          "name": "sender",
          "type": "address"
        },
        {
          "internalType": "uint256",
          "name": "tokenId",
          "type": "uint256"
        },
        {
          "internalType": "address",
          "name": "owner",
          "type": "address"
        }
      ],
      "name": "ERC721IncorrectOwner",
      "type": "error"
    },
    {
      "inputs": [
        {
          "internalType": "address",
          "name": "operator",
          "type": "address"
        },
        {
          "internalType": "uint256",
          "name": "tokenId",
          "type": "uint256"
        }
      ],
      "name": "ERC721InsufficientApproval",
      "type": "error"
    },
    {
      "inputs": [
        {
          "internalType": "address",
          "name": "approver",
          "type": "address"
        }
      ],
      "name": "ERC721InvalidApprover",
      "type": "error"
    },
    {
      "inputs": [
        {
          "internalType": "address",
          "name": "operator",
          "type": "address"
        }
      ],
      "name": "ERC721InvalidOperator",
      "type": "error"
    },
    {
      "inputs": [
        {
          "internalType": "address",
          "name": "owner",
          "type": "address"
        }
      ],
      "name": "ERC721InvalidOwner",
      "type": "error"
    },
    {
      "inputs": [
        {
          "internalType": "address",
          "name": "receiver",
          "type": "address"
        }
      ],
      "name": "ERC721InvalidReceiver",
      "type": "error"
    },
    {
      "inputs": [
        {
          "internalType": "address",
          "name": "sender",
          "type": "address"
        }
      ],
      "name": "ERC721InvalidSender",
      "type": "error"
    },
    {
      "inputs": [
        {
          "internalType": "uint256",
          "name": "tokenId",
          "type": "uint256"
        }
      ],
      "name": "ERC721NonexistentToken",
      "type": "error"
    },
    {
      "inputs": [],
      "name": "InvalidInitialization",
      "type": "error"
    },
    {
      "inputs": [],
      "name": "NotInitializing",
      "type": "error"
    },
    {
      "anonymous": false,
      "inputs": [
        {
          "indexed": true,
          "internalType": "address",
          "name": "owner",
          "type": "address"
        },
        {
          "indexed": true,
          "internalType": "address",
          "name": "approved",
          "type": "address"
        },
        {
          "indexed": true,
          "internalType": "uint256",
          "name": "tokenId",
          "type": "uint256"
        }
      ],
      "name": "Approval",
      "type": "event"
    },
    {
      "anonymous": false,
      "inputs": [
        {
          "indexed": true,
          "internalType": "address",
          "name": "owner",
          "type": "address"
        },
        {
          "indexed": true,
          "internalType": "address",
          "name": "operator",
          "type": "address"
        },
        {
          "indexed": false,
          "internalType": "bool",
          "name": "approved",
          "type": "bool"
        }
      ],
      "name": "ApprovalForAll",
      "type": "event"
    },
    {
      "anonymous": false,
      "inputs": [
        {
          "indexed": false,
          "internalType": "uint256",
          "name": "_fromTokenId",
          "type": "uint256"
        },
        {
          "indexed": false,
          "internalType": "uint256",
          "name": "_toTokenId",
          "type": "uint256"
        }
      ],
      "name": "BatchMetadataUpdate",
      "type": "event"
    },
    {
      "anonymous": false,
      "inputs": [
        {
          "indexed": false,
          "internalType": "uint64",
          "name": "version",
          "type": "uint64"
        }
      ],
      "name": "Initialized",
      "type": "event"
    },
    {
      "anonymous": false,
      "inputs": [
        {
          "indexed": false,
          "internalType": "uint256",
          "name": "_tokenId",
          "type": "uint256"
        }
      ],
      "name": "MetadataUpdate",
      "type": "event"
    },
    {
      "anonymous": false,
      "inputs": [
        {
          "indexed": true,
          "internalType": "address",
          "name": "from",
          "type": "address"
        },
        {
          "indexed": true,
          "internalType": "address",
          "name": "to",
          "type": "address"
        },
        {
          "indexed": true,
          "internalType": "uint256",
          "name": "tokenId",
          "type": "uint256"
        }
      ],
      "name": "Transfer",
      "type": "event"
    },
    {
      "inputs": [],
      "name": "aiModelVm",
      "outputs": [
        {
          "internalType": "bytes32",
          "name": "",
          "type": "bytes32"
        }
      ],
      "stateMutability": "view",
      "type": "function"
    },
    {
      "inputs": [
        {
          "internalType": "address",
          "name": "to",
          "type": "address"
        },
        {
          "internalType": "uint256",
          "name": "tokenId",
          "type": "uint256"
        }
      ],
      "name": "approve",
      "outputs": [],
      "stateMutability": "nonpayable",
      "type": "function"
    },
    {
      "inputs": [
        {
          "internalType": "address",
          "name": "owner",
          "type": "address"
        }
      ],
      "name": "balanceOf",
      "outputs": [
        {
          "internalType": "uint256",
          "name": "",
          "type": "uint256"
        }
      ],
      "stateMutability": "view",
      "type": "function"
    },
    {
      "inputs": [],
      "name": "costToken",
      "outputs": [
        {
          "internalType": "uint256",
          "name": "",
          "type": "uint256"
        }
      ],
      "stateMutability": "view",
      "type": "function"
    },
    {
      "inputs": [
        {
          "internalType": "uint256",
          "name": "tokenId",
          "type": "uint256"
        }
      ],
      "name": "getApproved",
      "outputs": [
        {
          "internalType": "address",
          "name": "",
          "type": "address"
        }
      ],
      "stateMutability": "view",
      "type": "function"
    },
    {
      "inputs": [],
      "name": "getModelIndex",
      "outputs": [
        {
          "internalType": "uint256",
          "name": "",
          "type": "uint256"
        }
      ],
      "stateMutability": "view",
      "type": "function"
    },
    {
      "inputs": [
        {
          "internalType": "uint256[]",
          "name": "vals",
          "type": "uint256[]"
        },
        {
          "internalType": "string[]",
          "name": "vals2",
          "type": "string[]"
        },
        {
          "internalType": "address[]",
          "name": "vals3",
          "type": "address[]"
        },
        {
          "internalType": "bytes32",
          "name": "_aiModelVm",
          "type": "bytes32"
        },
        {
          "internalType": "uint96",
          "name": "_royalty",
          "type": "uint96"
        }
      ],
      "name": "initialize",
      "outputs": [],
      "stateMutability": "nonpayable",
      "type": "function"
    },
    {
      "inputs": [],
      "name": "ipOrgAddr",
      "outputs": [
        {
          "internalType": "address",
          "name": "",
          "type": "address"
        }
      ],
      "stateMutability": "view",
      "type": "function"
    },
    {
      "inputs": [
        {
          "internalType": "address",
          "name": "owner",
          "type": "address"
        },
        {
          "internalType": "address",
          "name": "operator",
          "type": "address"
        }
      ],
      "name": "isApprovedForAll",
      "outputs": [
        {
          "internalType": "bool",
          "name": "",
          "type": "bool"
        }
      ],
      "stateMutability": "view",
      "type": "function"
    },
    {
      "inputs": [
        {
          "internalType": "string",
          "name": "_tokenURI",
          "type": "string"
        },
        {
          "internalType": "bytes32",
          "name": "_promptHash",
          "type": "bytes32"
        },
        {
          "internalType": "bytes32",
          "name": "_opmlFinalState",
          "type": "bytes32"
        },
        {
          "internalType": "string",
          "name": "_ipAssetMediaUrl",
          "type": "string"
        }
      ],
      "name": "mint",
      "outputs": [],
      "stateMutability": "nonpayable",
      "type": "function"
    },
    {
      "inputs": [],
      "name": "modelIndex",
      "outputs": [
        {
          "internalType": "uint256",
          "name": "",
          "type": "uint256"
        }
      ],
      "stateMutability": "view",
      "type": "function"
    },
    {
      "inputs": [],
      "name": "modelName",
      "outputs": [
        {
          "internalType": "string",
          "name": "",
          "type": "string"
        }
      ],
      "stateMutability": "view",
      "type": "function"
    },
    {
      "inputs": [],
      "name": "name",
      "outputs": [
        {
          "internalType": "string",
          "name": "",
          "type": "string"
        }
      ],
      "stateMutability": "view",
      "type": "function"
    },
    {
      "inputs": [],
      "name": "opmlLib",
      "outputs": [
        {
          "internalType": "contract IOpmlLib",
          "name": "",
          "type": "address"
        }
      ],
      "stateMutability": "view",
      "type": "function"
    },
    {
      "inputs": [
        {
          "internalType": "uint256",
          "name": "tokenId",
          "type": "uint256"
        }
      ],
      "name": "ownerOf",
      "outputs": [
        {
          "internalType": "address",
          "name": "",
          "type": "address"
        }
      ],
      "stateMutability": "view",
      "type": "function"
    },
    {
      "inputs": [
        {
          "internalType": "uint256",
          "name": "tokenId",
          "type": "uint256"
        },
        {
          "internalType": "uint256",
          "name": "salePrice",
          "type": "uint256"
        }
      ],
      "name": "royaltyInfo",
      "outputs": [
        {
          "internalType": "address",
          "name": "",
          "type": "address"
        },
        {
          "internalType": "uint256",
          "name": "",
          "type": "uint256"
        }
      ],
      "stateMutability": "view",
      "type": "function"
    },
    {
      "inputs": [
        {
          "internalType": "address",
          "name": "from",
          "type": "address"
        },
        {
          "internalType": "address",
          "name": "to",
          "type": "address"
        },
        {
          "internalType": "uint256",
          "name": "tokenId",
          "type": "uint256"
        }
      ],
      "name": "safeTransferFrom",
      "outputs": [],
      "stateMutability": "nonpayable",
      "type": "function"
    },
    {
      "inputs": [
        {
          "internalType": "address",
          "name": "from",
          "type": "address"
        },
        {
          "internalType": "address",
          "name": "to",
          "type": "address"
        },
        {
          "internalType": "uint256",
          "name": "tokenId",
          "type": "uint256"
        },
        {
          "internalType": "bytes",
          "name": "data",
          "type": "bytes"
        }
      ],
      "name": "safeTransferFrom",
      "outputs": [],
      "stateMutability": "nonpayable",
      "type": "function"
    },
    {
      "inputs": [
        {
          "internalType": "address",
          "name": "operator",
          "type": "address"
        },
        {
          "internalType": "bool",
          "name": "approved",
          "type": "bool"
        }
      ],
      "name": "setApprovalForAll",
      "outputs": [],
      "stateMutability": "nonpayable",
      "type": "function"
    },
    {
      "inputs": [
        {
          "internalType": "bytes4",
          "name": "interfaceId",
          "type": "bytes4"
        }
      ],
      "name": "supportsInterface",
      "outputs": [
        {
          "internalType": "bool",
          "name": "",
          "type": "bool"
        }
      ],
      "stateMutability": "view",
      "type": "function"
    },
    {
      "inputs": [],
      "name": "symbol",
      "outputs": [
        {
          "internalType": "string",
          "name": "",
          "type": "string"
        }
      ],
      "stateMutability": "view",
      "type": "function"
    },
    {
      "inputs": [],
      "name": "token",
      "outputs": [
        {
          "internalType": "contract IERC20",
          "name": "",
          "type": "address"
        }
      ],
      "stateMutability": "view",
      "type": "function"
    },
    {
      "inputs": [],
      "name": "tokenId",
      "outputs": [
        {
          "internalType": "uint256",
          "name": "",
          "type": "uint256"
        }
      ],
      "stateMutability": "view",
      "type": "function"
    },
    {
      "inputs": [
        {
          "internalType": "uint256",
          "name": "_tokenId",
          "type": "uint256"
        }
      ],
      "name": "tokenURI",
      "outputs": [
        {
          "internalType": "string",
          "name": "",
          "type": "string"
        }
      ],
      "stateMutability": "view",
      "type": "function"
    },
    {
      "inputs": [
        {
          "internalType": "address",
          "name": "from",
          "type": "address"
        },
        {
          "internalType": "address",
          "name": "to",
          "type": "address"
        },
        {
          "internalType": "uint256",
          "name": "tokenId",
          "type": "uint256"
        }
      ],
      "name": "transferFrom",
      "outputs": [],
      "stateMutability": "nonpayable",
      "type": "function"
    },
    {
      "inputs": [
        {
          "internalType": "uint256",
          "name": "_tokenId",
          "type": "uint256"
        }
      ],
      "name": "verify",
      "outputs": [
        {
          "internalType": "bool",
          "name": "",
          "type": "bool"
        }
      ],
      "stateMutability": "nonpayable",
      "type": "function"
    }
  ],
  "bytecode": "0x60806040523480156200001157600080fd5b506200001c62000022565b620000d6565b7ff0c57e16840df040f15088dc2f81fe391c3923bec73e23a9662efc9c229c6a00805468010000000000000000900460ff1615620000735760405163f92ee8a960e01b815260040160405180910390fd5b80546001600160401b0390811614620000d35780546001600160401b0319166001600160401b0390811782556040519081527fc7f505b2f371ae2175ee4913f4499e1f2633a7b5936321eed1cdaeb6115181d29060200160405180910390a15b50565b61268d80620000e66000396000f3fe608060405234801561001057600080fd5b50600436106101ae5760003560e01c80636a2787bb116100ee578063a81675c711610097578063c87b56dd11610071578063c87b56dd14610374578063df218bd114610387578063e985e9c514610390578063fc0c546a146103eb57600080fd5b8063a81675c714610346578063b8076a6b1461034e578063b88d4fde1461036157600080fd5b80638753367f116100c85780638753367f1461031857806395d89b411461032b578063a22cb4651461033357600080fd5b80636a2787bb146102e957806370a08231146102fc57806374a349d21461030f57600080fd5b806323b872dd1161015b57806331c54e251161013557806331c54e25146102a857806342842e0e146102bb578063608193c3146102ce5780636352211e146102d657600080fd5b806323b872dd146102505780632a55205a146102635780632f03012e1461029557600080fd5b8063095ea7b31161018c578063095ea7b31461021b578063129865131461023057806317d70f7c1461024757600080fd5b806301ffc9a7146101b357806306fdde03146101db578063081812fc146101f0575b600080fd5b6101c66101c1366004611d0f565b6103fe565b60405190151581526020015b60405180910390f35b6101e361040f565b6040516101d29190611d7c565b6102036101fe366004611d8f565b6104c5565b6040516001600160a01b0390911681526020016101d2565b61022e610229366004611dc4565b61050d565b005b61023960045481565b6040519081526020016101d2565b61023960015481565b61022e61025e366004611dee565b61051c565b610276610271366004611e2a565b6105c5565b604080516001600160a01b0390931683526020830191909152016101d2565b600554610203906001600160a01b031681565b61022e6102b6366004611f0b565b6106c2565b61022e6102c9366004611dee565b610a06565b600054610239565b6102036102e4366004611d8f565b610a26565b61022e6102f73660046120b4565b610a31565b61023961030a3660046121ac565b610d07565b61023960025481565b6101c6610326366004611d8f565b610d8e565b6101e3610e2b565b61022e6103413660046121d5565b610e7c565b6101e3610e87565b600654610203906001600160a01b031681565b61022e61036f36600461220c565b610f15565b6101e3610382366004611d8f565b610f2c565b61023960005481565b6101c661039e36600461227c565b6001600160a01b0391821660009081527f80bb2b638cc20bc4d0a60d66940f3ab4a00c1d7b313497ca82fb0b4ab00793056020908152604080832093909416825291909152205460ff1690565b600354610203906001600160a01b031681565b600061040982610f37565b92915050565b7f80bb2b638cc20bc4d0a60d66940f3ab4a00c1d7b313497ca82fb0b4ab00793008054606091908190610441906122af565b80601f016020809104026020016040519081016040528092919081815260200182805461046d906122af565b80156104ba5780601f1061048f576101008083540402835291602001916104ba565b820191906000526020600020905b81548152906001019060200180831161049d57829003601f168201915b505050505091505090565b60006104d082610f42565b5060008281527f80bb2b638cc20bc4d0a60d66940f3ab4a00c1d7b313497ca82fb0b4ab007930460205260409020546001600160a01b0316610409565b610518828233610f9a565b5050565b6001600160a01b03821661054b57604051633250574960e11b8152600060048201526024015b60405180910390fd5b6000610558838333610fa7565b9050836001600160a01b0316816001600160a01b0316146105bf576040517f64283d7b0000000000000000000000000000000000000000000000000000000081526001600160a01b0380861660048301526024820184905282166044820152606401610542565b50505050565b60008281527fdaedc9ab023613a7caf35e703657e986ccfad7e3eb0af93a2853f8d65dd86b01602090815260408083208151808301909252546001600160a01b038116808352600160a01b9091046bffffffffffffffffffffffff169282019290925282917fdaedc9ab023613a7caf35e703657e986ccfad7e3eb0af93a2853f8d65dd86b00919061068557506040805180820190915281546001600160a01b0381168252600160a01b90046bffffffffffffffffffffffff1660208201525b6020810151600090612710906106a9906bffffffffffffffffffffffff16886122ff565b6106b39190612316565b91519791965090945050505050565b6003546002546040517f23b872dd00000000000000000000000000000000000000000000000000000000815233600482015230602482015260448101919091526001600160a01b03909116906323b872dd906064016020604051808303816000875af1158015610736573d6000803e3d6000fd5b505050506040513d601f19601f8201168201806040525081019061075a9190612338565b50610767336001546110f5565b6107736001548561110f565b600554600480546040517f1aafb2be0000000000000000000000000000000000000000000000000000000081529182015260248101859052604481018490526001600160a01b0390911690631aafb2be906064016020604051808303816000875af11580156107e6573d6000803e3d6000fd5b505050506040513d601f19601f8201168201806040525081019061080a9190612355565b6008600060015481526020019081526020016000208190555060006040518060a00160405280306001600160a01b03168152602001600060ff16815260200160078054610856906122af565b80601f0160208091040260200160405190810160405280929190818152602001828054610882906122af565b80156108cf5780601f106108a4576101008083540402835291602001916108cf565b820191906000526020600020905b8154815290600101906020018083116108b257829003601f168201915b5050509183525050600060208083018290526040928301869052600654835183815291820190935292935091829173537fccce413236a4e5f4f385e2edc861aec622f09163dc0ec402916001600160a01b0316908690859081610942565b606081526020019060019003908161092d5790505b50604080516000808252602082019092529061096e565b60608152602001906001900390816109595790505b506040518663ffffffff1660e01b815260040161098f9594939291906123c3565b60408051808303816000875af11580156109ad573d6000803e3d6000fd5b505050506040513d601f19601f820116820180604052508101906109d1919061246e565b6001805460009081526009602052604081208490558154939550919350906109f883612492565b919050555050505050505050565b610a2183838360405180602001604052806000815250610f15565b505050565b600061040982610f42565b7ff0c57e16840df040f15088dc2f81fe391c3923bec73e23a9662efc9c229c6a00805468010000000000000000810460ff16159067ffffffffffffffff16600081158015610a7c5750825b905060008267ffffffffffffffff166001148015610a995750303b155b905081158015610aa7575080155b15610ade576040517ff92ee8a900000000000000000000000000000000000000000000000000000000815260040160405180910390fd5b845467ffffffffffffffff191660011785558315610b1257845468ff00000000000000001916680100000000000000001785555b60008a600081518110610b2757610b276124ab565b6020026020010151905060008b600181518110610b4657610b466124ab565b6020026020010151905060008b600081518110610b6557610b656124ab565b6020026020010151905060008c600181518110610b8457610b846124ab565b6020026020010151905060008c600081518110610ba357610ba36124ab565b6020026020010151905060008d600181518110610bc257610bc26124ab565b6020026020010151905060008e600281518110610be157610be16124ab565b60200260200101519050610bf58585611182565b610bfd611194565b610c05611194565b82600360006101000a8154816001600160a01b0302191690836001600160a01b0316021790555086600081905550856002819055508d60048190555081600560006101000a8154816001600160a01b0302191690836001600160a01b0316021790555080600660006101000a8154816001600160a01b0302191690836001600160a01b031602179055508460079081610c9e919061250f565b50610ca9838e61119e565b505050505050508315610cfb57845468ff000000000000000019168555604051600181527fc7f505b2f371ae2175ee4913f4499e1f2633a7b5936321eed1cdaeb6115181d29060200160405180910390a15b50505050505050505050565b60007f80bb2b638cc20bc4d0a60d66940f3ab4a00c1d7b313497ca82fb0b4ab00793006001600160a01b038316610d6d576040517f89c62b6400000000000000000000000000000000000000000000000000000000815260006004820152602401610542565b6001600160a01b039092166000908152600390920160205250604090205490565b6005546000828152600860205260408082205490517f33727c4d00000000000000000000000000000000000000000000000000000000815291926001600160a01b0316916333727c4d91610de89160040190815260200190565b6020604051808303816000875af1158015610e07573d6000803e3d6000fd5b505050506040513d601f19601f820116820180604052508101906104099190612338565b7f80bb2b638cc20bc4d0a60d66940f3ab4a00c1d7b313497ca82fb0b4ab007930180546060917f80bb2b638cc20bc4d0a60d66940f3ab4a00c1d7b313497ca82fb0b4ab007930091610441906122af565b6105183383836112a2565b60078054610e94906122af565b80601f0160208091040260200160405190810160405280929190818152602001828054610ec0906122af565b8015610f0d5780601f10610ee257610100808354040283529160200191610f0d565b820191906000526020600020905b815481529060010190602001808311610ef057829003601f168201915b505050505081565b610f2084848461051c565b6105bf8484848461137e565b6060610409826114a7565b6000610409826115dc565b60008181527f80bb2b638cc20bc4d0a60d66940f3ab4a00c1d7b313497ca82fb0b4ab007930260205260408120546001600160a01b03168061040957604051637e27328960e01b815260048101849052602401610542565b610a21838383600161161a565b60008281527f80bb2b638cc20bc4d0a60d66940f3ab4a00c1d7b313497ca82fb0b4ab007930260205260408120547f80bb2b638cc20bc4d0a60d66940f3ab4a00c1d7b313497ca82fb0b4ab0079300906001600160a01b0390811690841615611015576110158185876117a6565b6001600160a01b038116156110555761103260008660008061161a565b6001600160a01b0381166000908152600383016020526040902080546000190190555b6001600160a01b03861615611086576001600160a01b03861660009081526003830160205260409020805460010190555b6000858152600283016020526040808220805473ffffffffffffffffffffffffffffffffffffffff19166001600160a01b038a811691821790925591518893918516917fddf252ad1be2c89b69c2b068fc378daa952ba7f163c4a11628f55a4df523b3ef91a495945050505050565b610518828260405180602001604052806000815250611823565b60008281527f0542a41881ee128a365a727b282c86fa859579490b9bb45aab8503648c8e790060208190526040909120611149838261250f565b506040518381527ff8e1a15aba9398e019f0b49df1a4fde98ee17ae345cb5f6b5e2c27f5033e8ce79060200160405180910390a1505050565b61118a61183a565b61051882826118a1565b61119c61183a565b565b7fdaedc9ab023613a7caf35e703657e986ccfad7e3eb0af93a2853f8d65dd86b006127106bffffffffffffffffffffffff8316811015611221576040517f6f483d090000000000000000000000000000000000000000000000000000000081526bffffffffffffffffffffffff8416600482015260248101829052604401610542565b6001600160a01b038416611264576040517fb6d9900a00000000000000000000000000000000000000000000000000000000815260006004820152602401610542565b50604080518082019091526001600160a01b039093168084526bffffffffffffffffffffffff9092166020909301839052600160a01b909202179055565b7f80bb2b638cc20bc4d0a60d66940f3ab4a00c1d7b313497ca82fb0b4ab00793006001600160a01b03831661130e576040517f5b08ba180000000000000000000000000000000000000000000000000000000081526001600160a01b0384166004820152602401610542565b6001600160a01b038481166000818152600584016020908152604080832094881680845294825291829020805460ff191687151590811790915591519182527f17307eab39ab6107e8899845ad3d59bd9653f200f220920489ca2b5937696c31910160405180910390a350505050565b6001600160a01b0383163b156105bf57604051630a85bd0160e11b81526001600160a01b0384169063150b7a02906113c09033908890879087906004016125cf565b6020604051808303816000875af19250505080156113fb575060408051601f3d908101601f191682019092526113f89181019061260b565b60015b611464573d808015611429576040519150601f19603f3d011682016040523d82523d6000602084013e61142e565b606091505b50805160000361145c57604051633250574960e11b81526001600160a01b0385166004820152602401610542565b805181602001fd5b6001600160e01b03198116630a85bd0160e11b146114a057604051633250574960e11b81526001600160a01b0385166004820152602401610542565b5050505050565b60607f0542a41881ee128a365a727b282c86fa859579490b9bb45aab8503648c8e79006114d383610f42565b50600083815260208290526040812080546114ed906122af565b80601f0160208091040260200160405190810160405280929190818152602001828054611519906122af565b80156115665780601f1061153b57610100808354040283529160200191611566565b820191906000526020600020905b81548152906001019060200180831161154957829003601f168201915b50505050509050600061158460408051602081019091526000815290565b9050805160000361159757509392505050565b8151156115ca5780826040516020016115b1929190612628565b6040516020818303038152906040529350505050919050565b6115d3856118e4565b95945050505050565b60006001600160e01b031982167f49064906000000000000000000000000000000000000000000000000000000001480610409575061040982611959565b7f80bb2b638cc20bc4d0a60d66940f3ab4a00c1d7b313497ca82fb0b4ab0079300818061164f57506001600160a01b03831615155b1561176857600061165f85610f42565b90506001600160a01b0384161580159061168b5750836001600160a01b0316816001600160a01b031614155b80156116dc57506001600160a01b0380821660009081527f80bb2b638cc20bc4d0a60d66940f3ab4a00c1d7b313497ca82fb0b4ab0079305602090815260408083209388168352929052205460ff16155b1561171e576040517fa9fbf51f0000000000000000000000000000000000000000000000000000000081526001600160a01b0385166004820152602401610542565b82156117665784866001600160a01b0316826001600160a01b03167f8c5be1e5ebec7d5bd14f71427d1e84f3dd0314c0f7b2291e5b200ac8c7c3b92560405160405180910390a45b505b6000938452600401602052505060409020805473ffffffffffffffffffffffffffffffffffffffff19166001600160a01b0392909216919091179055565b6117b18383836119cb565b610a21576001600160a01b0383166117df57604051637e27328960e01b815260048101829052602401610542565b6040517f177e802f0000000000000000000000000000000000000000000000000000000081526001600160a01b038316600482015260248101829052604401610542565b61182d8383611a8f565b610a21600084848461137e565b7ff0c57e16840df040f15088dc2f81fe391c3923bec73e23a9662efc9c229c6a005468010000000000000000900460ff1661119c576040517fd7e6bcf800000000000000000000000000000000000000000000000000000000815260040160405180910390fd5b6118a961183a565b7f80bb2b638cc20bc4d0a60d66940f3ab4a00c1d7b313497ca82fb0b4ab0079300806118d5848261250f565b50600181016105bf838261250f565b60606118ef82610f42565b50600061190760408051602081019091526000815290565b905060008151116119275760405180602001604052806000815250611952565b8061193184611b0d565b604051602001611942929190612628565b6040516020818303038152906040525b9392505050565b60006001600160e01b031982167f80ac58cd0000000000000000000000000000000000000000000000000000000014806119bc57506001600160e01b031982167f5b5e139f00000000000000000000000000000000000000000000000000000000145b80610409575061040982611bad565b60006001600160a01b03831615801590611a875750826001600160a01b0316846001600160a01b03161480611a4457506001600160a01b0380851660009081527f80bb2b638cc20bc4d0a60d66940f3ab4a00c1d7b313497ca82fb0b4ab0079305602090815260408083209387168352929052205460ff165b80611a87575060008281527f80bb2b638cc20bc4d0a60d66940f3ab4a00c1d7b313497ca82fb0b4ab007930460205260409020546001600160a01b038481169116145b949350505050565b6001600160a01b038216611ab957604051633250574960e11b815260006004820152602401610542565b6000611ac783836000610fa7565b90506001600160a01b03811615610a21576040517f73c6ac6e00000000000000000000000000000000000000000000000000000000815260006004820152602401610542565b60606000611b1a83611c14565b600101905060008167ffffffffffffffff811115611b3a57611b3a611e4c565b6040519080825280601f01601f191660200182016040528015611b64576020820181803683370190505b5090508181016020015b600019017f3031323334353637383961626364656600000000000000000000000000000000600a86061a8153600a8504945084611b6e57509392505050565b60006001600160e01b031982167f2a55205a00000000000000000000000000000000000000000000000000000000148061040957507f01ffc9a7000000000000000000000000000000000000000000000000000000006001600160e01b0319831614610409565b6000807a184f03e93ff9f4daa797ed6e38ed64bf6a1f0100000000000000008310611c5d577a184f03e93ff9f4daa797ed6e38ed64bf6a1f010000000000000000830492506040015b6d04ee2d6d415b85acef81000000008310611c89576d04ee2d6d415b85acef8100000000830492506020015b662386f26fc100008310611ca757662386f26fc10000830492506010015b6305f5e1008310611cbf576305f5e100830492506008015b6127108310611cd357612710830492506004015b60648310611ce5576064830492506002015b600a83106104095760010192915050565b6001600160e01b031981168114611d0c57600080fd5b50565b600060208284031215611d2157600080fd5b813561195281611cf6565b60005b83811015611d47578181015183820152602001611d2f565b50506000910152565b60008151808452611d68816020860160208601611d2c565b601f01601f19169290920160200192915050565b6020815260006119526020830184611d50565b600060208284031215611da157600080fd5b5035919050565b80356001600160a01b0381168114611dbf57600080fd5b919050565b60008060408385031215611dd757600080fd5b611de083611da8565b946020939093013593505050565b600080600060608486031215611e0357600080fd5b611e0c84611da8565b9250611e1a60208501611da8565b9150604084013590509250925092565b60008060408385031215611e3d57600080fd5b50508035926020909101359150565b634e487b7160e01b600052604160045260246000fd5b604051601f8201601f1916810167ffffffffffffffff81118282101715611e8b57611e8b611e4c565b604052919050565b600067ffffffffffffffff831115611ead57611ead611e4c565b611ec0601f8401601f1916602001611e62565b9050828152838383011115611ed457600080fd5b828260208301376000602084830101529392505050565b600082601f830112611efc57600080fd5b61195283833560208501611e93565b60008060008060808587031215611f2157600080fd5b843567ffffffffffffffff80821115611f3957600080fd5b611f4588838901611eeb565b955060208701359450604087013593506060870135915080821115611f6957600080fd5b50611f7687828801611eeb565b91505092959194509250565b600067ffffffffffffffff821115611f9c57611f9c611e4c565b5060051b60200190565b600082601f830112611fb757600080fd5b81356020611fcc611fc783611f82565b611e62565b82815260059290921b84018101918181019086841115611feb57600080fd5b8286015b8481101561202b57803567ffffffffffffffff81111561200f5760008081fd5b61201d8986838b0101611eeb565b845250918301918301611fef565b509695505050505050565b600082601f83011261204757600080fd5b81356020612057611fc783611f82565b82815260059290921b8401810191818101908684111561207657600080fd5b8286015b8481101561202b5761208b81611da8565b835291830191830161207a565b80356bffffffffffffffffffffffff81168114611dbf57600080fd5b600080600080600060a086880312156120cc57600080fd5b853567ffffffffffffffff808211156120e457600080fd5b818801915088601f8301126120f857600080fd5b81356020612108611fc783611f82565b82815260059290921b8401810191818101908c84111561212757600080fd5b948201945b838610156121455785358252948201949082019061212c565b9950508901359250508082111561215b57600080fd5b61216789838a01611fa6565b9550604088013591508082111561217d57600080fd5b5061218a88828901612036565b935050606086013591506121a060808701612098565b90509295509295909350565b6000602082840312156121be57600080fd5b61195282611da8565b8015158114611d0c57600080fd5b600080604083850312156121e857600080fd5b6121f183611da8565b91506020830135612201816121c7565b809150509250929050565b6000806000806080858703121561222257600080fd5b61222b85611da8565b935061223960208601611da8565b925060408501359150606085013567ffffffffffffffff81111561225c57600080fd5b8501601f8101871361226d57600080fd5b611f7687823560208401611e93565b6000806040838503121561228f57600080fd5b61229883611da8565b91506122a660208401611da8565b90509250929050565b600181811c908216806122c357607f821691505b6020821081036122e357634e487b7160e01b600052602260045260246000fd5b50919050565b634e487b7160e01b600052601160045260246000fd5b8082028115828204841417610409576104096122e9565b60008261233357634e487b7160e01b600052601260045260246000fd5b500490565b60006020828403121561234a57600080fd5b8151611952816121c7565b60006020828403121561236757600080fd5b5051919050565b600081518084526020808501808196508360051b8101915082860160005b858110156123b65782840389526123a4848351611d50565b9885019893509084019060010161238c565b5091979650505050505050565b60006001600160a01b03808816835260a060208401528087511660a08401525060ff60208701511660c0830152604086015160a060e084015261240a610140840182611d50565b905060608701516101008401526080870151609f19848303016101208501526124338282611d50565b915050856040840152828103606084015261244e818661236e565b90508281036080840152612462818561236e565b98975050505050505050565b6000806040838503121561248157600080fd5b505080516020909101519092909150565b6000600182016124a4576124a46122e9565b5060010190565b634e487b7160e01b600052603260045260246000fd5b601f821115610a2157600081815260208120601f850160051c810160208610156124e85750805b601f850160051c820191505b81811015612507578281556001016124f4565b505050505050565b815167ffffffffffffffff81111561252957612529611e4c565b61253d8161253784546122af565b846124c1565b602080601f831160018114612572576000841561255a5750858301515b600019600386901b1c1916600185901b178555612507565b600085815260208120601f198616915b828110156125a157888601518255948401946001909101908401612582565b50858210156125bf5787850151600019600388901b60f8161c191681555b5050505050600190811b01905550565b60006001600160a01b038087168352808616602084015250836040830152608060608301526126016080830184611d50565b9695505050505050565b60006020828403121561261d57600080fd5b815161195281611cf6565b6000835161263a818460208801611d2c565b83519083019061264e818360208801611d2c565b0194935050505056fea2646970667358221220c10f77860c4f2879cec2fd7449454a975178bbb16426a9b6d049a7d5bd37efab64736f6c63430008140033",
  "linkReferences": {},
  "deployedLinkReferences": {}
}