{
  "_format": "hh-sol-artifact-1",
  "contractName": "AIGC",
  "sourceName": "contracts/AIGC.sol",
  "abi": [
    {
      "inputs": [],
      "stateMutability": "nonpayable",
      "type": "constructor"
    },
    {
      "inputs": [
        {
          "internalType": "uint256",
          "name": "numerator",
          "type": "uint256"
        },
        {
          "internalType": "uint256",
          "name": "denominator",
          "type": "uint256"
        }
      ],
      "name": "ERC2981InvalidDefaultRoyalty",
      "type": "error"
    },
    {
      "inputs": [
        {
          "internalType": "address",
          "name": "receiver",
          "type": "address"
        }
      ],
      "name": "ERC2981InvalidDefaultRoyaltyReceiver",
      "type": "error"
    },
    {
      "inputs": [
        {
          "internalType": "uint256",
          "name": "tokenId",
          "type": "uint256"
        },
        {
          "internalType": "uint256",
          "name": "numerator",
          "type": "uint256"
        },
        {
          "internalType": "uint256",
          "name": "denominator",
          "type": "uint256"
        }
      ],
      "name": "ERC2981InvalidTokenRoyalty",
      "type": "error"
    },
    {
      "inputs": [
        {
          "internalType": "uint256",
          "name": "tokenId",
          "type": "uint256"
        },
        {
          "internalType": "address",
          "name": "receiver",
          "type": "address"
        }
      ],
      "name": "ERC2981InvalidTokenRoyaltyReceiver",
      "type": "error"
    },
    {
      "inputs": [
        {
          "internalType": "address",
          "name": "sender",
          "type": "address"
        },
        {
          "internalType": "uint256",
          "name": "tokenId",
          "type": "uint256"
        },
        {
          "internalType": "address",
          "name": "owner",
          "type": "address"
        }
      ],
      "name": "ERC721IncorrectOwner",
      "type": "error"
    },
    {
      "inputs": [
        {
          "internalType": "address",
          "name": "operator",
          "type": "address"
        },
        {
          "internalType": "uint256",
          "name": "tokenId",
          "type": "uint256"
        }
      ],
      "name": "ERC721InsufficientApproval",
      "type": "error"
    },
    {
      "inputs": [
        {
          "internalType": "address",
          "name": "approver",
          "type": "address"
        }
      ],
      "name": "ERC721InvalidApprover",
      "type": "error"
    },
    {
      "inputs": [
        {
          "internalType": "address",
          "name": "operator",
          "type": "address"
        }
      ],
      "name": "ERC721InvalidOperator",
      "type": "error"
    },
    {
      "inputs": [
        {
          "internalType": "address",
          "name": "owner",
          "type": "address"
        }
      ],
      "name": "ERC721InvalidOwner",
      "type": "error"
    },
    {
      "inputs": [
        {
          "internalType": "address",
          "name": "receiver",
          "type": "address"
        }
      ],
      "name": "ERC721InvalidReceiver",
      "type": "error"
    },
    {
      "inputs": [
        {
          "internalType": "address",
          "name": "sender",
          "type": "address"
        }
      ],
      "name": "ERC721InvalidSender",
      "type": "error"
    },
    {
      "inputs": [
        {
          "internalType": "uint256",
          "name": "tokenId",
          "type": "uint256"
        }
      ],
      "name": "ERC721NonexistentToken",
      "type": "error"
    },
    {
      "inputs": [],
      "name": "InvalidInitialization",
      "type": "error"
    },
    {
      "inputs": [],
      "name": "NotInitializing",
      "type": "error"
    },
    {
      "anonymous": false,
      "inputs": [
        {
          "indexed": true,
          "internalType": "address",
          "name": "owner",
          "type": "address"
        },
        {
          "indexed": true,
          "internalType": "address",
          "name": "approved",
          "type": "address"
        },
        {
          "indexed": true,
          "internalType": "uint256",
          "name": "tokenId",
          "type": "uint256"
        }
      ],
      "name": "Approval",
      "type": "event"
    },
    {
      "anonymous": false,
      "inputs": [
        {
          "indexed": true,
          "internalType": "address",
          "name": "owner",
          "type": "address"
        },
        {
          "indexed": true,
          "internalType": "address",
          "name": "operator",
          "type": "address"
        },
        {
          "indexed": false,
          "internalType": "bool",
          "name": "approved",
          "type": "bool"
        }
      ],
      "name": "ApprovalForAll",
      "type": "event"
    },
    {
      "anonymous": false,
      "inputs": [
        {
          "indexed": false,
          "internalType": "uint256",
          "name": "_fromTokenId",
          "type": "uint256"
        },
        {
          "indexed": false,
          "internalType": "uint256",
          "name": "_toTokenId",
          "type": "uint256"
        }
      ],
      "name": "BatchMetadataUpdate",
      "type": "event"
    },
    {
      "anonymous": false,
      "inputs": [
        {
          "indexed": false,
          "internalType": "uint64",
          "name": "version",
          "type": "uint64"
        }
      ],
      "name": "Initialized",
      "type": "event"
    },
    {
      "anonymous": false,
      "inputs": [
        {
          "indexed": false,
          "internalType": "uint256",
          "name": "_tokenId",
          "type": "uint256"
        }
      ],
      "name": "MetadataUpdate",
      "type": "event"
    },
    {
      "anonymous": false,
      "inputs": [
        {
          "indexed": true,
          "internalType": "address",
          "name": "from",
          "type": "address"
        },
        {
          "indexed": true,
          "internalType": "address",
          "name": "to",
          "type": "address"
        },
        {
          "indexed": true,
          "internalType": "uint256",
          "name": "tokenId",
          "type": "uint256"
        }
      ],
      "name": "Transfer",
      "type": "event"
    },
    {
      "inputs": [],
      "name": "aiModelVm",
      "outputs": [
        {
          "internalType": "bytes32",
          "name": "",
          "type": "bytes32"
        }
      ],
      "stateMutability": "view",
      "type": "function"
    },
    {
      "inputs": [
        {
          "internalType": "address",
          "name": "to",
          "type": "address"
        },
        {
          "internalType": "uint256",
          "name": "tokenId",
          "type": "uint256"
        }
      ],
      "name": "approve",
      "outputs": [],
      "stateMutability": "nonpayable",
      "type": "function"
    },
    {
      "inputs": [
        {
          "internalType": "address",
          "name": "owner",
          "type": "address"
        }
      ],
      "name": "balanceOf",
      "outputs": [
        {
          "internalType": "uint256",
          "name": "",
          "type": "uint256"
        }
      ],
      "stateMutability": "view",
      "type": "function"
    },
    {
      "inputs": [],
      "name": "costToken",
      "outputs": [
        {
          "internalType": "uint256",
          "name": "",
          "type": "uint256"
        }
      ],
      "stateMutability": "view",
      "type": "function"
    },
    {
      "inputs": [
        {
          "internalType": "uint256",
          "name": "tokenId",
          "type": "uint256"
        }
      ],
      "name": "getApproved",
      "outputs": [
        {
          "internalType": "address",
          "name": "",
          "type": "address"
        }
      ],
      "stateMutability": "view",
      "type": "function"
    },
    {
      "inputs": [],
      "name": "getModelIndex",
      "outputs": [
        {
          "internalType": "uint256",
          "name": "",
          "type": "uint256"
        }
      ],
      "stateMutability": "view",
      "type": "function"
    },
    {
      "inputs": [
        {
          "internalType": "uint256[]",
          "name": "vals",
          "type": "uint256[]"
        },
        {
          "internalType": "string[]",
          "name": "vals2",
          "type": "string[]"
        },
        {
          "internalType": "address[]",
          "name": "vals3",
          "type": "address[]"
        },
        {
          "internalType": "bytes32",
          "name": "_aiModelVm",
          "type": "bytes32"
        },
        {
          "internalType": "uint96",
          "name": "_royalty",
          "type": "uint96"
        }
      ],
      "name": "initialize",
      "outputs": [],
      "stateMutability": "nonpayable",
      "type": "function"
    },
    {
      "inputs": [],
      "name": "ipOrgAddr",
      "outputs": [
        {
          "internalType": "address",
          "name": "",
          "type": "address"
        }
      ],
      "stateMutability": "view",
      "type": "function"
    },
    {
      "inputs": [
        {
          "internalType": "address",
          "name": "owner",
          "type": "address"
        },
        {
          "internalType": "address",
          "name": "operator",
          "type": "address"
        }
      ],
      "name": "isApprovedForAll",
      "outputs": [
        {
          "internalType": "bool",
          "name": "",
          "type": "bool"
        }
      ],
      "stateMutability": "view",
      "type": "function"
    },
    {
      "inputs": [
        {
          "internalType": "string",
          "name": "_tokenURI",
          "type": "string"
        },
        {
          "internalType": "bytes32",
          "name": "_promptHash",
          "type": "bytes32"
        },
        {
          "internalType": "bytes32",
          "name": "_opmlFinalState",
          "type": "bytes32"
        },
        {
          "internalType": "string",
          "name": "_ipAssetMediaUrl",
          "type": "string"
        }
      ],
      "name": "mint",
      "outputs": [],
      "stateMutability": "nonpayable",
      "type": "function"
    },
    {
      "inputs": [],
      "name": "modelIndex",
      "outputs": [
        {
          "internalType": "uint256",
          "name": "",
          "type": "uint256"
        }
      ],
      "stateMutability": "view",
      "type": "function"
    },
    {
      "inputs": [],
      "name": "modelName",
      "outputs": [
        {
          "internalType": "string",
          "name": "",
          "type": "string"
        }
      ],
      "stateMutability": "view",
      "type": "function"
    },
    {
      "inputs": [],
      "name": "name",
      "outputs": [
        {
          "internalType": "string",
          "name": "",
          "type": "string"
        }
      ],
      "stateMutability": "view",
      "type": "function"
    },
    {
      "inputs": [],
      "name": "opmlLib",
      "outputs": [
        {
          "internalType": "contract IOpmlLib",
          "name": "",
          "type": "address"
        }
      ],
      "stateMutability": "view",
      "type": "function"
    },
    {
      "inputs": [
        {
          "internalType": "uint256",
          "name": "tokenId",
          "type": "uint256"
        }
      ],
      "name": "ownerOf",
      "outputs": [
        {
          "internalType": "address",
          "name": "",
          "type": "address"
        }
      ],
      "stateMutability": "view",
      "type": "function"
    },
    {
      "inputs": [
        {
          "internalType": "uint256",
          "name": "tokenId",
          "type": "uint256"
        },
        {
          "internalType": "uint256",
          "name": "salePrice",
          "type": "uint256"
        }
      ],
      "name": "royaltyInfo",
      "outputs": [
        {
          "internalType": "address",
          "name": "",
          "type": "address"
        },
        {
          "internalType": "uint256",
          "name": "",
          "type": "uint256"
        }
      ],
      "stateMutability": "view",
      "type": "function"
    },
    {
      "inputs": [
        {
          "internalType": "address",
          "name": "from",
          "type": "address"
        },
        {
          "internalType": "address",
          "name": "to",
          "type": "address"
        },
        {
          "internalType": "uint256",
          "name": "tokenId",
          "type": "uint256"
        }
      ],
      "name": "safeTransferFrom",
      "outputs": [],
      "stateMutability": "nonpayable",
      "type": "function"
    },
    {
      "inputs": [
        {
          "internalType": "address",
          "name": "from",
          "type": "address"
        },
        {
          "internalType": "address",
          "name": "to",
          "type": "address"
        },
        {
          "internalType": "uint256",
          "name": "tokenId",
          "type": "uint256"
        },
        {
          "internalType": "bytes",
          "name": "data",
          "type": "bytes"
        }
      ],
      "name": "safeTransferFrom",
      "outputs": [],
      "stateMutability": "nonpayable",
      "type": "function"
    },
    {
      "inputs": [
        {
          "internalType": "address",
          "name": "operator",
          "type": "address"
        },
        {
          "internalType": "bool",
          "name": "approved",
          "type": "bool"
        }
      ],
      "name": "setApprovalForAll",
      "outputs": [],
      "stateMutability": "nonpayable",
      "type": "function"
    },
    {
      "inputs": [
        {
          "internalType": "bytes4",
          "name": "interfaceId",
          "type": "bytes4"
        }
      ],
      "name": "supportsInterface",
      "outputs": [
        {
          "internalType": "bool",
          "name": "",
          "type": "bool"
        }
      ],
      "stateMutability": "view",
      "type": "function"
    },
    {
      "inputs": [],
      "name": "symbol",
      "outputs": [
        {
          "internalType": "string",
          "name": "",
          "type": "string"
        }
      ],
      "stateMutability": "view",
      "type": "function"
    },
    {
      "inputs": [],
      "name": "token",
      "outputs": [
        {
          "internalType": "contract IERC20",
          "name": "",
          "type": "address"
        }
      ],
      "stateMutability": "view",
      "type": "function"
    },
    {
      "inputs": [],
      "name": "tokenId",
      "outputs": [
        {
          "internalType": "uint256",
          "name": "",
          "type": "uint256"
        }
      ],
      "stateMutability": "view",
      "type": "function"
    },
    {
      "inputs": [
        {
          "internalType": "uint256",
          "name": "_tokenId",
          "type": "uint256"
        }
      ],
      "name": "tokenURI",
      "outputs": [
        {
          "internalType": "string",
          "name": "",
          "type": "string"
        }
      ],
      "stateMutability": "view",
      "type": "function"
    },
    {
      "inputs": [
        {
          "internalType": "address",
          "name": "from",
          "type": "address"
        },
        {
          "internalType": "address",
          "name": "to",
          "type": "address"
        },
        {
          "internalType": "uint256",
          "name": "tokenId",
          "type": "uint256"
        }
      ],
      "name": "transferFrom",
      "outputs": [],
      "stateMutability": "nonpayable",
      "type": "function"
    },
    {
      "inputs": [
        {
          "internalType": "uint256",
          "name": "_tokenId",
          "type": "uint256"
        }
      ],
      "name": "verify",
      "outputs": [
        {
          "internalType": "bool",
          "name": "",
          "type": "bool"
        }
      ],
      "stateMutability": "nonpayable",
      "type": "function"
    }
  ],
  "bytecode": "0x60806040523480156200001157600080fd5b506200001c62000022565b620000d6565b7ff0c57e16840df040f15088dc2f81fe391c3923bec73e23a9662efc9c229c6a00805468010000000000000000900460ff1615620000735760405163f92ee8a960e01b815260040160405180910390fd5b80546001600160401b0390811614620000d35780546001600160401b0319166001600160401b0390811782556040519081527fc7f505b2f371ae2175ee4913f4499e1f2633a7b5936321eed1cdaeb6115181d29060200160405180910390a15b50565b61252b80620000e66000396000f3fe608060405234801561001057600080fd5b50600436106101ae5760003560e01c80636a2787bb116100ee578063a81675c711610097578063c87b56dd11610071578063c87b56dd14610374578063df218bd114610387578063e985e9c514610390578063fc0c546a146103eb57600080fd5b8063a81675c714610346578063b8076a6b1461034e578063b88d4fde1461036157600080fd5b80638753367f116100c85780638753367f1461031857806395d89b411461032b578063a22cb4651461033357600080fd5b80636a2787bb146102e957806370a08231146102fc57806374a349d21461030f57600080fd5b806323b872dd1161015b57806331c54e251161013557806331c54e25146102a857806342842e0e146102bb578063608193c3146102ce5780636352211e146102d657600080fd5b806323b872dd146102505780632a55205a146102635780632f03012e1461029557600080fd5b8063095ea7b31161018c578063095ea7b31461021b578063129865131461023057806317d70f7c1461024757600080fd5b806301ffc9a7146101b357806306fdde03146101db578063081812fc146101f0575b600080fd5b6101c66101c1366004611bc6565b6103fe565b60405190151581526020015b60405180910390f35b6101e361040f565b6040516101d29190611c33565b6102036101fe366004611c46565b6104c5565b6040516001600160a01b0390911681526020016101d2565b61022e610229366004611c7b565b61050d565b005b61023960045481565b6040519081526020016101d2565b61023960015481565b61022e61025e366004611ca5565b61051c565b610276610271366004611ce1565b6105c5565b604080516001600160a01b0390931683526020830191909152016101d2565b600554610203906001600160a01b031681565b61022e6102b6366004611dc2565b6106c2565b61022e6102c9366004611ca5565b6108bd565b600054610239565b6102036102e4366004611c46565b6108dd565b61022e6102f7366004611f6b565b6108e8565b61023961030a366004612063565b610bbe565b61023960025481565b6101c6610326366004611c46565b610c45565b6101e3610ce2565b61022e61034136600461208c565b610d33565b6101e3610d3e565b600654610203906001600160a01b031681565b61022e61036f3660046120c3565b610dcc565b6101e3610382366004611c46565b610de3565b61023960005481565b6101c661039e366004612133565b6001600160a01b0391821660009081527f80bb2b638cc20bc4d0a60d66940f3ab4a00c1d7b313497ca82fb0b4ab00793056020908152604080832093909416825291909152205460ff1690565b600354610203906001600160a01b031681565b600061040982610dee565b92915050565b7f80bb2b638cc20bc4d0a60d66940f3ab4a00c1d7b313497ca82fb0b4ab0079300805460609190819061044190612166565b80601f016020809104026020016040519081016040528092919081815260200182805461046d90612166565b80156104ba5780601f1061048f576101008083540402835291602001916104ba565b820191906000526020600020905b81548152906001019060200180831161049d57829003601f168201915b505050505091505090565b60006104d082610df9565b5060008281527f80bb2b638cc20bc4d0a60d66940f3ab4a00c1d7b313497ca82fb0b4ab007930460205260409020546001600160a01b0316610409565b610518828233610e51565b5050565b6001600160a01b03821661054b57604051633250574960e11b8152600060048201526024015b60405180910390fd5b6000610558838333610e5e565b9050836001600160a01b0316816001600160a01b0316146105bf576040517f64283d7b0000000000000000000000000000000000000000000000000000000081526001600160a01b0380861660048301526024820184905282166044820152606401610542565b50505050565b60008281527fdaedc9ab023613a7caf35e703657e986ccfad7e3eb0af93a2853f8d65dd86b01602090815260408083208151808301909252546001600160a01b038116808352600160a01b9091046bffffffffffffffffffffffff169282019290925282917fdaedc9ab023613a7caf35e703657e986ccfad7e3eb0af93a2853f8d65dd86b00919061068557506040805180820190915281546001600160a01b0381168252600160a01b90046bffffffffffffffffffffffff1660208201525b6020810151600090612710906106a9906bffffffffffffffffffffffff16886121b6565b6106b391906121cd565b91519791965090945050505050565b6106ce33600154610fac565b6106da60015485610fc6565b60006040518060a00160405280306001600160a01b03168152602001600060ff1681526020016007805461070d90612166565b80601f016020809104026020016040519081016040528092919081815260200182805461073990612166565b80156107865780601f1061075b57610100808354040283529160200191610786565b820191906000526020600020905b81548152906001019060200180831161076957829003601f168201915b5050509183525050600060208083018290526040928301869052600654835183815291820190935292935091829173537fccce413236a4e5f4f385e2edc861aec622f09163dc0ec402916001600160a01b03169086908590816107f9565b60608152602001906001900390816107e45790505b506040805160008082526020820190925290610825565b60608152602001906001900390816108105790505b506040518663ffffffff1660e01b8152600401610846959493929190612244565b60408051808303816000875af1158015610864573d6000803e3d6000fd5b505050506040513d601f19601f8201168201806040525081019061088891906122ef565b6001805460009081526009602052604081208490558154939550919350906108af83612313565b919050555050505050505050565b6108d883838360405180602001604052806000815250610dcc565b505050565b600061040982610df9565b7ff0c57e16840df040f15088dc2f81fe391c3923bec73e23a9662efc9c229c6a00805468010000000000000000810460ff16159067ffffffffffffffff166000811580156109335750825b905060008267ffffffffffffffff1660011480156109505750303b155b90508115801561095e575080155b15610995576040517ff92ee8a900000000000000000000000000000000000000000000000000000000815260040160405180910390fd5b845467ffffffffffffffff1916600117855583156109c957845468ff00000000000000001916680100000000000000001785555b60008a6000815181106109de576109de61232c565b6020026020010151905060008b6001815181106109fd576109fd61232c565b6020026020010151905060008b600081518110610a1c57610a1c61232c565b6020026020010151905060008c600181518110610a3b57610a3b61232c565b6020026020010151905060008c600081518110610a5a57610a5a61232c565b6020026020010151905060008d600181518110610a7957610a7961232c565b6020026020010151905060008e600281518110610a9857610a9861232c565b60200260200101519050610aac8585611039565b610ab461104b565b610abc61104b565b82600360006101000a8154816001600160a01b0302191690836001600160a01b0316021790555086600081905550856002819055508d60048190555081600560006101000a8154816001600160a01b0302191690836001600160a01b0316021790555080600660006101000a8154816001600160a01b0302191690836001600160a01b031602179055508460079081610b559190612390565b50610b60838e611055565b505050505050508315610bb257845468ff000000000000000019168555604051600181527fc7f505b2f371ae2175ee4913f4499e1f2633a7b5936321eed1cdaeb6115181d29060200160405180910390a15b50505050505050505050565b60007f80bb2b638cc20bc4d0a60d66940f3ab4a00c1d7b313497ca82fb0b4ab00793006001600160a01b038316610c24576040517f89c62b6400000000000000000000000000000000000000000000000000000000815260006004820152602401610542565b6001600160a01b039092166000908152600390920160205250604090205490565b6005546000828152600860205260408082205490517f33727c4d00000000000000000000000000000000000000000000000000000000815291926001600160a01b0316916333727c4d91610c9f9160040190815260200190565b6020604051808303816000875af1158015610cbe573d6000803e3d6000fd5b505050506040513d601f19601f820116820180604052508101906104099190612450565b7f80bb2b638cc20bc4d0a60d66940f3ab4a00c1d7b313497ca82fb0b4ab007930180546060917f80bb2b638cc20bc4d0a60d66940f3ab4a00c1d7b313497ca82fb0b4ab00793009161044190612166565b610518338383611159565b60078054610d4b90612166565b80601f0160208091040260200160405190810160405280929190818152602001828054610d7790612166565b8015610dc45780601f10610d9957610100808354040283529160200191610dc4565b820191906000526020600020905b815481529060010190602001808311610da757829003601f168201915b505050505081565b610dd784848461051c565b6105bf84848484611235565b60606104098261135e565b600061040982611493565b60008181527f80bb2b638cc20bc4d0a60d66940f3ab4a00c1d7b313497ca82fb0b4ab007930260205260408120546001600160a01b03168061040957604051637e27328960e01b815260048101849052602401610542565b6108d883838360016114d1565b60008281527f80bb2b638cc20bc4d0a60d66940f3ab4a00c1d7b313497ca82fb0b4ab007930260205260408120547f80bb2b638cc20bc4d0a60d66940f3ab4a00c1d7b313497ca82fb0b4ab0079300906001600160a01b0390811690841615610ecc57610ecc81858761165d565b6001600160a01b03811615610f0c57610ee96000866000806114d1565b6001600160a01b0381166000908152600383016020526040902080546000190190555b6001600160a01b03861615610f3d576001600160a01b03861660009081526003830160205260409020805460010190555b6000858152600283016020526040808220805473ffffffffffffffffffffffffffffffffffffffff19166001600160a01b038a811691821790925591518893918516917fddf252ad1be2c89b69c2b068fc378daa952ba7f163c4a11628f55a4df523b3ef91a495945050505050565b6105188282604051806020016040528060008152506116da565b60008281527f0542a41881ee128a365a727b282c86fa859579490b9bb45aab8503648c8e7900602081905260409091206110008382612390565b506040518381527ff8e1a15aba9398e019f0b49df1a4fde98ee17ae345cb5f6b5e2c27f5033e8ce79060200160405180910390a1505050565b6110416116f1565b6105188282611758565b6110536116f1565b565b7fdaedc9ab023613a7caf35e703657e986ccfad7e3eb0af93a2853f8d65dd86b006127106bffffffffffffffffffffffff83168110156110d8576040517f6f483d090000000000000000000000000000000000000000000000000000000081526bffffffffffffffffffffffff8416600482015260248101829052604401610542565b6001600160a01b03841661111b576040517fb6d9900a00000000000000000000000000000000000000000000000000000000815260006004820152602401610542565b50604080518082019091526001600160a01b039093168084526bffffffffffffffffffffffff9092166020909301839052600160a01b909202179055565b7f80bb2b638cc20bc4d0a60d66940f3ab4a00c1d7b313497ca82fb0b4ab00793006001600160a01b0383166111c5576040517f5b08ba180000000000000000000000000000000000000000000000000000000081526001600160a01b0384166004820152602401610542565b6001600160a01b038481166000818152600584016020908152604080832094881680845294825291829020805460ff191687151590811790915591519182527f17307eab39ab6107e8899845ad3d59bd9653f200f220920489ca2b5937696c31910160405180910390a350505050565b6001600160a01b0383163b156105bf57604051630a85bd0160e11b81526001600160a01b0384169063150b7a029061127790339088908790879060040161246d565b6020604051808303816000875af19250505080156112b2575060408051601f3d908101601f191682019092526112af918101906124a9565b60015b61131b573d8080156112e0576040519150601f19603f3d011682016040523d82523d6000602084013e6112e5565b606091505b50805160000361131357604051633250574960e11b81526001600160a01b0385166004820152602401610542565b805181602001fd5b6001600160e01b03198116630a85bd0160e11b1461135757604051633250574960e11b81526001600160a01b0385166004820152602401610542565b5050505050565b60607f0542a41881ee128a365a727b282c86fa859579490b9bb45aab8503648c8e790061138a83610df9565b50600083815260208290526040812080546113a490612166565b80601f01602080910402602001604051908101604052809291908181526020018280546113d090612166565b801561141d5780601f106113f25761010080835404028352916020019161141d565b820191906000526020600020905b81548152906001019060200180831161140057829003601f168201915b50505050509050600061143b60408051602081019091526000815290565b9050805160000361144e57509392505050565b8151156114815780826040516020016114689291906124c6565b6040516020818303038152906040529350505050919050565b61148a8561179b565b95945050505050565b60006001600160e01b031982167f49064906000000000000000000000000000000000000000000000000000000001480610409575061040982611810565b7f80bb2b638cc20bc4d0a60d66940f3ab4a00c1d7b313497ca82fb0b4ab0079300818061150657506001600160a01b03831615155b1561161f57600061151685610df9565b90506001600160a01b038416158015906115425750836001600160a01b0316816001600160a01b031614155b801561159357506001600160a01b0380821660009081527f80bb2b638cc20bc4d0a60d66940f3ab4a00c1d7b313497ca82fb0b4ab0079305602090815260408083209388168352929052205460ff16155b156115d5576040517fa9fbf51f0000000000000000000000000000000000000000000000000000000081526001600160a01b0385166004820152602401610542565b821561161d5784866001600160a01b0316826001600160a01b03167f8c5be1e5ebec7d5bd14f71427d1e84f3dd0314c0f7b2291e5b200ac8c7c3b92560405160405180910390a45b505b6000938452600401602052505060409020805473ffffffffffffffffffffffffffffffffffffffff19166001600160a01b0392909216919091179055565b611668838383611882565b6108d8576001600160a01b03831661169657604051637e27328960e01b815260048101829052602401610542565b6040517f177e802f0000000000000000000000000000000000000000000000000000000081526001600160a01b038316600482015260248101829052604401610542565b6116e48383611946565b6108d86000848484611235565b7ff0c57e16840df040f15088dc2f81fe391c3923bec73e23a9662efc9c229c6a005468010000000000000000900460ff16611053576040517fd7e6bcf800000000000000000000000000000000000000000000000000000000815260040160405180910390fd5b6117606116f1565b7f80bb2b638cc20bc4d0a60d66940f3ab4a00c1d7b313497ca82fb0b4ab00793008061178c8482612390565b50600181016105bf8382612390565b60606117a682610df9565b5060006117be60408051602081019091526000815290565b905060008151116117de5760405180602001604052806000815250611809565b806117e8846119c4565b6040516020016117f99291906124c6565b6040516020818303038152906040525b9392505050565b60006001600160e01b031982167f80ac58cd00000000000000000000000000000000000000000000000000000000148061187357506001600160e01b031982167f5b5e139f00000000000000000000000000000000000000000000000000000000145b80610409575061040982611a64565b60006001600160a01b0383161580159061193e5750826001600160a01b0316846001600160a01b031614806118fb57506001600160a01b0380851660009081527f80bb2b638cc20bc4d0a60d66940f3ab4a00c1d7b313497ca82fb0b4ab0079305602090815260408083209387168352929052205460ff165b8061193e575060008281527f80bb2b638cc20bc4d0a60d66940f3ab4a00c1d7b313497ca82fb0b4ab007930460205260409020546001600160a01b038481169116145b949350505050565b6001600160a01b03821661197057604051633250574960e11b815260006004820152602401610542565b600061197e83836000610e5e565b90506001600160a01b038116156108d8576040517f73c6ac6e00000000000000000000000000000000000000000000000000000000815260006004820152602401610542565b606060006119d183611acb565b600101905060008167ffffffffffffffff8111156119f1576119f1611d03565b6040519080825280601f01601f191660200182016040528015611a1b576020820181803683370190505b5090508181016020015b600019017f3031323334353637383961626364656600000000000000000000000000000000600a86061a8153600a8504945084611a2557509392505050565b60006001600160e01b031982167f2a55205a00000000000000000000000000000000000000000000000000000000148061040957507f01ffc9a7000000000000000000000000000000000000000000000000000000006001600160e01b0319831614610409565b6000807a184f03e93ff9f4daa797ed6e38ed64bf6a1f0100000000000000008310611b14577a184f03e93ff9f4daa797ed6e38ed64bf6a1f010000000000000000830492506040015b6d04ee2d6d415b85acef81000000008310611b40576d04ee2d6d415b85acef8100000000830492506020015b662386f26fc100008310611b5e57662386f26fc10000830492506010015b6305f5e1008310611b76576305f5e100830492506008015b6127108310611b8a57612710830492506004015b60648310611b9c576064830492506002015b600a83106104095760010192915050565b6001600160e01b031981168114611bc357600080fd5b50565b600060208284031215611bd857600080fd5b813561180981611bad565b60005b83811015611bfe578181015183820152602001611be6565b50506000910152565b60008151808452611c1f816020860160208601611be3565b601f01601f19169290920160200192915050565b6020815260006118096020830184611c07565b600060208284031215611c5857600080fd5b5035919050565b80356001600160a01b0381168114611c7657600080fd5b919050565b60008060408385031215611c8e57600080fd5b611c9783611c5f565b946020939093013593505050565b600080600060608486031215611cba57600080fd5b611cc384611c5f565b9250611cd160208501611c5f565b9150604084013590509250925092565b60008060408385031215611cf457600080fd5b50508035926020909101359150565b634e487b7160e01b600052604160045260246000fd5b604051601f8201601f1916810167ffffffffffffffff81118282101715611d4257611d42611d03565b604052919050565b600067ffffffffffffffff831115611d6457611d64611d03565b611d77601f8401601f1916602001611d19565b9050828152838383011115611d8b57600080fd5b828260208301376000602084830101529392505050565b600082601f830112611db357600080fd5b61180983833560208501611d4a565b60008060008060808587031215611dd857600080fd5b843567ffffffffffffffff80821115611df057600080fd5b611dfc88838901611da2565b955060208701359450604087013593506060870135915080821115611e2057600080fd5b50611e2d87828801611da2565b91505092959194509250565b600067ffffffffffffffff821115611e5357611e53611d03565b5060051b60200190565b600082601f830112611e6e57600080fd5b81356020611e83611e7e83611e39565b611d19565b82815260059290921b84018101918181019086841115611ea257600080fd5b8286015b84811015611ee257803567ffffffffffffffff811115611ec65760008081fd5b611ed48986838b0101611da2565b845250918301918301611ea6565b509695505050505050565b600082601f830112611efe57600080fd5b81356020611f0e611e7e83611e39565b82815260059290921b84018101918181019086841115611f2d57600080fd5b8286015b84811015611ee257611f4281611c5f565b8352918301918301611f31565b80356bffffffffffffffffffffffff81168114611c7657600080fd5b600080600080600060a08688031215611f8357600080fd5b853567ffffffffffffffff80821115611f9b57600080fd5b818801915088601f830112611faf57600080fd5b81356020611fbf611e7e83611e39565b82815260059290921b8401810191818101908c841115611fde57600080fd5b948201945b83861015611ffc57853582529482019490820190611fe3565b9950508901359250508082111561201257600080fd5b61201e89838a01611e5d565b9550604088013591508082111561203457600080fd5b5061204188828901611eed565b9350506060860135915061205760808701611f4f565b90509295509295909350565b60006020828403121561207557600080fd5b61180982611c5f565b8015158114611bc357600080fd5b6000806040838503121561209f57600080fd5b6120a883611c5f565b915060208301356120b88161207e565b809150509250929050565b600080600080608085870312156120d957600080fd5b6120e285611c5f565b93506120f060208601611c5f565b925060408501359150606085013567ffffffffffffffff81111561211357600080fd5b8501601f8101871361212457600080fd5b611e2d87823560208401611d4a565b6000806040838503121561214657600080fd5b61214f83611c5f565b915061215d60208401611c5f565b90509250929050565b600181811c9082168061217a57607f821691505b60208210810361219a57634e487b7160e01b600052602260045260246000fd5b50919050565b634e487b7160e01b600052601160045260246000fd5b8082028115828204841417610409576104096121a0565b6000826121ea57634e487b7160e01b600052601260045260246000fd5b500490565b600081518084526020808501808196508360051b8101915082860160005b85811015612237578284038952612225848351611c07565b9885019893509084019060010161220d565b5091979650505050505050565b60006001600160a01b03808816835260a060208401528087511660a08401525060ff60208701511660c0830152604086015160a060e084015261228b610140840182611c07565b905060608701516101008401526080870151609f19848303016101208501526122b48282611c07565b91505085604084015282810360608401526122cf81866121ef565b905082810360808401526122e381856121ef565b98975050505050505050565b6000806040838503121561230257600080fd5b505080516020909101519092909150565b600060018201612325576123256121a0565b5060010190565b634e487b7160e01b600052603260045260246000fd5b601f8211156108d857600081815260208120601f850160051c810160208610156123695750805b601f850160051c820191505b8181101561238857828155600101612375565b505050505050565b815167ffffffffffffffff8111156123aa576123aa611d03565b6123be816123b88454612166565b84612342565b602080601f8311600181146123f357600084156123db5750858301515b600019600386901b1c1916600185901b178555612388565b600085815260208120601f198616915b8281101561242257888601518255948401946001909101908401612403565b50858210156124405787850151600019600388901b60f8161c191681555b5050505050600190811b01905550565b60006020828403121561246257600080fd5b81516118098161207e565b60006001600160a01b0380871683528086166020840152508360408301526080606083015261249f6080830184611c07565b9695505050505050565b6000602082840312156124bb57600080fd5b815161180981611bad565b600083516124d8818460208801611be3565b8351908301906124ec818360208801611be3565b0194935050505056fea2646970667358221220f09d1c3b5f9b566fcc6063e6739c0cc1c11c51418038d2b0b321554ef966280c64736f6c63430008140033",
  "linkReferences": {},
  "deployedLinkReferences": {}
}